{
  "_format": "hh-sol-artifact-1",
  "contractName": "SummitOracle",
  "sourceName": "src/contracts/SummitOracle.sol",
  "abi": [
    {
      "inputs": [
        {
          "internalType": "address",
          "name": "_router",
          "type": "address"
        },
        {
          "internalType": "address",
          "name": "_stable",
          "type": "address"
        },
        {
          "internalType": "address",
          "name": "_wNative",
          "type": "address"
        }
      ],
      "stateMutability": "nonpayable",
      "type": "constructor"
    },
    {
      "anonymous": false,
      "inputs": [
        {
          "indexed": true,
          "internalType": "address",
          "name": "_asset",
          "type": "address"
        },
        {
          "indexed": false,
          "internalType": "uint256",
          "name": "amount",
          "type": "uint256"
        }
      ],
      "name": "Recovered",
      "type": "event"
    },
    {
      "anonymous": false,
      "inputs": [
        {
          "indexed": true,
          "internalType": "bytes32",
          "name": "role",
          "type": "bytes32"
        },
        {
          "indexed": true,
          "internalType": "bytes32",
          "name": "previousAdminRole",
          "type": "bytes32"
        },
        {
          "indexed": true,
          "internalType": "bytes32",
          "name": "newAdminRole",
          "type": "bytes32"
        }
      ],
      "name": "RoleAdminChanged",
      "type": "event"
    },
    {
      "anonymous": false,
      "inputs": [
        {
          "indexed": true,
          "internalType": "bytes32",
          "name": "role",
          "type": "bytes32"
        },
        {
          "indexed": true,
          "internalType": "address",
          "name": "account",
          "type": "address"
        },
        {
          "indexed": true,
          "internalType": "address",
          "name": "sender",
          "type": "address"
        }
      ],
      "name": "RoleGranted",
      "type": "event"
    },
    {
      "anonymous": false,
      "inputs": [
        {
          "indexed": true,
          "internalType": "bytes32",
          "name": "role",
          "type": "bytes32"
        },
        {
          "indexed": true,
          "internalType": "address",
          "name": "account",
          "type": "address"
        },
        {
          "indexed": true,
          "internalType": "address",
          "name": "sender",
          "type": "address"
        }
      ],
      "name": "RoleRevoked",
      "type": "event"
    },
    {
      "inputs": [],
      "name": "DEFAULT_ADMIN_ROLE",
      "outputs": [
        {
          "internalType": "bytes32",
          "name": "",
          "type": "bytes32"
        }
      ],
      "stateMutability": "view",
      "type": "function"
    },
    {
      "inputs": [],
      "name": "MAINTAINER_ROLE",
      "outputs": [
        {
          "internalType": "bytes32",
          "name": "",
          "type": "bytes32"
        }
      ],
      "stateMutability": "view",
      "type": "function"
    },
    {
      "inputs": [],
      "name": "ROUTER",
      "outputs": [
        {
          "internalType": "contract ISummitRouter",
          "name": "",
          "type": "address"
        }
      ],
      "stateMutability": "view",
      "type": "function"
    },
    {
      "inputs": [],
      "name": "STABLE",
      "outputs": [
        {
          "internalType": "contract IERC20",
          "name": "",
          "type": "address"
        }
      ],
      "stateMutability": "view",
      "type": "function"
    },
    {
      "inputs": [],
      "name": "WNATIVE",
      "outputs": [
        {
          "internalType": "contract IERC20",
          "name": "",
          "type": "address"
        }
      ],
      "stateMutability": "view",
      "type": "function"
    },
    {
      "inputs": [
        {
          "internalType": "address",
          "name": "addedMaintainer",
          "type": "address"
        }
      ],
      "name": "addMaintainer",
      "outputs": [],
      "stateMutability": "nonpayable",
      "type": "function"
    },
    {
      "inputs": [
        {
          "internalType": "address",
          "name": "_token",
          "type": "address"
        }
      ],
      "name": "getPrice10Stable",
      "outputs": [
        {
          "internalType": "uint256",
          "name": "",
          "type": "uint256"
        }
      ],
      "stateMutability": "view",
      "type": "function"
    },
    {
      "inputs": [
        {
          "internalType": "bytes32",
          "name": "role",
          "type": "bytes32"
        }
      ],
      "name": "getRoleAdmin",
      "outputs": [
        {
          "internalType": "bytes32",
          "name": "",
          "type": "bytes32"
        }
      ],
      "stateMutability": "view",
      "type": "function"
    },
    {
      "inputs": [
        {
          "internalType": "uint256",
          "name": "_amountIn",
          "type": "uint256"
        },
        {
          "internalType": "address",
          "name": "_tokenIn",
          "type": "address"
        },
        {
          "internalType": "address",
          "name": "_tokenOut",
          "type": "address"
        },
        {
          "internalType": "uint256",
          "name": "_maxSteps",
          "type": "uint256"
        }
      ],
      "name": "getSwapData",
      "outputs": [
        {
          "components": [
            {
              "internalType": "uint256[]",
              "name": "amounts",
              "type": "uint256[]"
            },
            {
              "internalType": "address[]",
              "name": "adapters",
              "type": "address[]"
            },
            {
              "internalType": "address[]",
              "name": "path",
              "type": "address[]"
            },
            {
              "internalType": "uint256",
              "name": "gasEstimate",
              "type": "uint256"
            }
          ],
          "internalType": "struct FormattedOffer",
          "name": "offer",
          "type": "tuple"
        }
      ],
      "stateMutability": "view",
      "type": "function"
    },
    {
      "inputs": [
        {
          "internalType": "address",
          "name": "_user",
          "type": "address"
        },
        {
          "internalType": "address",
          "name": "_token",
          "type": "address"
        }
      ],
      "name": "getTokenData",
      "outputs": [
        {
          "components": [
            {
              "internalType": "address",
              "name": "tokenAddress",
              "type": "address"
            },
            {
              "internalType": "string",
              "name": "symbol",
              "type": "string"
            },
            {
              "internalType": "uint256",
              "name": "decimals",
              "type": "uint256"
            },
            {
              "internalType": "uint256",
              "name": "bonus",
              "type": "uint256"
            },
            {
              "internalType": "uint256",
              "name": "userAllowance",
              "type": "uint256"
            },
            {
              "internalType": "uint256",
              "name": "userBalance",
              "type": "uint256"
            },
            {
              "internalType": "uint256",
              "name": "price",
              "type": "uint256"
            }
          ],
          "internalType": "struct SummitOracle.TokenData",
          "name": "token",
          "type": "tuple"
        }
      ],
      "stateMutability": "view",
      "type": "function"
    },
    {
      "inputs": [
        {
          "internalType": "bytes32",
          "name": "role",
          "type": "bytes32"
        },
        {
          "internalType": "address",
          "name": "account",
          "type": "address"
        }
      ],
      "name": "grantRole",
      "outputs": [],
      "stateMutability": "nonpayable",
      "type": "function"
    },
    {
      "inputs": [
        {
          "internalType": "bytes32",
          "name": "role",
          "type": "bytes32"
        },
        {
          "internalType": "address",
          "name": "account",
          "type": "address"
        }
      ],
      "name": "hasRole",
      "outputs": [
        {
          "internalType": "bool",
          "name": "",
          "type": "bool"
        }
      ],
      "stateMutability": "view",
      "type": "function"
    },
    {
      "inputs": [
        {
          "internalType": "address",
          "name": "_tokenAddress",
          "type": "address"
        },
        {
          "internalType": "uint256",
          "name": "_tokenAmount",
          "type": "uint256"
        }
      ],
      "name": "recoverERC20",
      "outputs": [],
      "stateMutability": "nonpayable",
      "type": "function"
    },
    {
      "inputs": [
        {
          "internalType": "uint256",
          "name": "_amount",
          "type": "uint256"
        }
      ],
      "name": "recoverNATIVE",
      "outputs": [],
      "stateMutability": "nonpayable",
      "type": "function"
    },
    {
      "inputs": [
        {
          "internalType": "address",
          "name": "removedMaintainer",
          "type": "address"
        }
      ],
      "name": "removeMaintainer",
      "outputs": [],
      "stateMutability": "nonpayable",
      "type": "function"
    },
    {
      "inputs": [
        {
          "internalType": "bytes32",
          "name": "role",
          "type": "bytes32"
        },
        {
          "internalType": "address",
          "name": "account",
          "type": "address"
        }
      ],
      "name": "renounceRole",
      "outputs": [],
      "stateMutability": "nonpayable",
      "type": "function"
    },
    {
      "inputs": [
        {
          "internalType": "bytes32",
          "name": "role",
          "type": "bytes32"
        }
      ],
      "name": "renounceRole",
      "outputs": [],
      "stateMutability": "nonpayable",
      "type": "function"
    },
    {
      "inputs": [
        {
          "internalType": "bytes32",
          "name": "role",
          "type": "bytes32"
        },
        {
          "internalType": "address",
          "name": "account",
          "type": "address"
        }
      ],
      "name": "revokeRole",
      "outputs": [],
      "stateMutability": "nonpayable",
      "type": "function"
    },
    {
      "inputs": [
        {
          "internalType": "address",
          "name": "_router",
          "type": "address"
        }
      ],
      "name": "setRouter",
      "outputs": [],
      "stateMutability": "nonpayable",
      "type": "function"
    },
    {
      "inputs": [
        {
          "internalType": "address",
          "name": "_stable",
          "type": "address"
        }
      ],
      "name": "setStable",
      "outputs": [],
      "stateMutability": "nonpayable",
      "type": "function"
    },
    {
      "inputs": [
        {
          "internalType": "address",
          "name": "_wNative",
          "type": "address"
        }
      ],
      "name": "setWNative",
      "outputs": [],
      "stateMutability": "nonpayable",
      "type": "function"
    },
    {
      "inputs": [
        {
          "internalType": "bytes4",
          "name": "interfaceId",
          "type": "bytes4"
        }
      ],
      "name": "supportsInterface",
      "outputs": [
        {
          "internalType": "bool",
          "name": "",
          "type": "bool"
        }
      ],
      "stateMutability": "view",
      "type": "function"
    },
    {
      "inputs": [
        {
          "internalType": "address",
          "name": "newOwner",
          "type": "address"
        }
      ],
      "name": "transferOwnership",
      "outputs": [],
      "stateMutability": "nonpayable",
      "type": "function"
    }
  ],
  "bytecode": "0x60806040523480156200001157600080fd5b50604051620020d4380380620020d483398101604081905262000034916200017d565b62000041600033620000b0565b6200006d7f339759585899103d2ace64958e37e18ccb0504652c81d4a1b8aa80fe2126ab9533620000b0565b600180546001600160a01b039485166001600160a01b031991821617909155600280549385169382169390931790925560038054919093169116179055620001c6565b620000bc8282620000c0565b5050565b6000828152602081815260408083206001600160a01b038516845290915290205460ff16620000bc576000828152602081815260408083206001600160a01b03851684529091529020805460ff191660011790556200011c3390565b6001600160a01b0316816001600160a01b0316837f2f8788117e7eff1d82e926ec794901d17c78024a50270940304540a733656f0d60405160405180910390a45050565b80516001600160a01b03811681146200017857600080fd5b919050565b60008060006060848603121562000192578283fd5b6200019d8462000160565b9250620001ad6020850162000160565b9150620001bd6040850162000160565b90509250925092565b611efe80620001d66000396000f3fe608060405234801561001057600080fd5b506004361061018d5760003560e01c806391d14854116100e3578063c2c528201161008c578063dba7137611610066578063dba713761461038e578063f2fde38b146103a1578063f8742254146103b457600080fd5b8063c2c5282014610355578063d547741f14610368578063d8baf7cf1461037b57600080fd5b8063b087ad5a116100bd578063b087ad5a1461031c578063b381cf401461032f578063c0d786551461034257600080fd5b806391d14854146102ca57806395490c0b14610301578063a217fddf1461031457600080fd5b806336568abe116101455780637449f8661161011f5780637449f866146102845780638980f11f146102a45780638bb9c5bf146102b757600080fd5b806336568abe1461024b57806354d9f6531461025e5780636b453c1f1461027157600080fd5b80632f2ff15d116101765780632f2ff15d146101eb57806331f380d01461020057806332fe7b261461022057600080fd5b806301ffc9a714610192578063248a9ca3146101ba575b600080fd5b6101a56101a036600461186f565b6103db565b60405190151581526020015b60405180910390f35b6101dd6101c8366004611833565b60009081526020819052604090206001015490565b6040519081526020016101b1565b6101fe6101f936600461184b565b610444565b005b61021361020e3660046117b0565b61046e565b6040516101b19190611c1c565b600154610233906001600160a01b031681565b6040516001600160a01b0390911681526020016101b1565b6101fe61025936600461184b565b610534565b600254610233906001600160a01b031681565b6101fe61027f366004611794565b6105c5565b6102976102923660046119fb565b6105f2565b6040516101b19190611b82565b6101fe6102b23660046117e8565b610709565b6101fe6102c5366004611833565b610843565b6101a56102d836600461184b565b6000918252602082815260408084206001600160a01b0393909316845291905290205460ff1690565b6101fe61030f366004611794565b61084d565b6101dd600081565b6101dd61032a366004611794565b61090b565b600354610233906001600160a01b031681565b6101fe610350366004611794565b610a89565b6101fe610363366004611833565b610b47565b6101fe61037636600461184b565b610c8d565b6101fe610389366004611794565b610cb2565b6101fe61039c366004611794565b610cdc565b6101fe6103af366004611794565b610d9a565b6101dd7f339759585899103d2ace64958e37e18ccb0504652c81d4a1b8aa80fe2126ab9581565b60006001600160e01b031982167f7965db0b00000000000000000000000000000000000000000000000000000000148061043e57507f01ffc9a7000000000000000000000000000000000000000000000000000000006001600160e01b03198316145b92915050565b60008281526020819052604090206001015461045f81610db0565b6104698383610dba565b505050565b6104b76040518060e0016040528060006001600160a01b031681526020016060815260200160008152602001600081526020016000815260200160008152602001600081525090565b60006104c28361090b565b90506040518060e00160405280846001600160a01b031681526020016104e785610e58565b81526020016104f585610f02565b60ff16815260200161050685610f8f565b8152602001610515868661103d565b81526020016105248686611113565b8152602001919091529392505050565b6001600160a01b03811633146105b75760405162461bcd60e51b815260206004820152602f60248201527f416363657373436f6e74726f6c3a2063616e206f6e6c792072656e6f756e636560448201527f20726f6c657320666f722073656c66000000000000000000000000000000000060648201526084015b60405180910390fd5b6105c18282611191565b5050565b6105ef7f339759585899103d2ace64958e37e18ccb0504652c81d4a1b8aa80fe2126ab9582610444565b50565b61061d6040518060800160405280606081526020016060815260200160608152602001600081525090565b6001546001600160a01b0390811690634c09cf4e908790871615610641578661064e565b6003546001600160a01b03165b6001600160a01b038716156106635786610670565b6003546001600160a01b03165b6040516001600160e01b031960e086901b16815260048101939093526001600160a01b0391821660248401521660448201526064810185905260840160006040518083038186803b1580156106c457600080fd5b505afa1580156106d8573d6000803e3d6000fd5b505050506040513d6000823e601f3d908101601f191682016040526107009190810190611927565b95945050505050565b3360009081527fa54247010af6b3693b80aceddfad12e077c5de3571e6243fada502635f0d7d39602052604090205460ff166107985760405162461bcd60e51b815260206004820152602860248201527f4d61696e7461696e61626c653a2043616c6c6572206973206e6f742061206d6160448201526734b73a30b4b732b960c11b60648201526084016105ae565b600081116107e85760405162461bcd60e51b815260206004820152601260248201527f4e6f7468696e6720746f207265636f766572000000000000000000000000000060448201526064016105ae565b6107fc6001600160a01b0383163383611210565b816001600160a01b03167f8c1256b8896378cd5044f80c202f9772b9d77dc85c8a6eb51967210b09bfaa288260405161083791815260200190565b60405180910390a25050565b6105ef8133610534565b3360009081527fa54247010af6b3693b80aceddfad12e077c5de3571e6243fada502635f0d7d39602052604090205460ff166108dc5760405162461bcd60e51b815260206004820152602860248201527f4d61696e7461696e61626c653a2043616c6c6572206973206e6f742061206d6160448201526734b73a30b4b732b960c11b60648201526084016105ae565b6003805473ffffffffffffffffffffffffffffffffffffffff19166001600160a01b0392909216919091179055565b600154600254604080517f313ce56700000000000000000000000000000000000000000000000000000000815290516000936001600160a01b0390811693634c09cf4e9391169163313ce56791600480820192602092909190829003018186803b15801561097857600080fd5b505afa15801561098c573d6000803e3d6000fd5b505050506040513d601f19601f820116820180604052508101906109b09190611a42565b6109bb90600a611d63565b6002546001600160a01b03908116908616156109d757856109e4565b6003546001600160a01b03165b6040516001600160e01b031960e086901b16815260048101939093526001600160a01b0391821660248401521660448201526003606482015260840160006040518083038186803b158015610a3857600080fd5b505afa925050508015610a6d57506040513d6000823e601f3d908101601f19168201604052610a6a9190810190611927565b60015b610a7957506000919050565b610a8281611290565b9392505050565b3360009081527fa54247010af6b3693b80aceddfad12e077c5de3571e6243fada502635f0d7d39602052604090205460ff16610b185760405162461bcd60e51b815260206004820152602860248201527f4d61696e7461696e61626c653a2043616c6c6572206973206e6f742061206d6160448201526734b73a30b4b732b960c11b60648201526084016105ae565b6001805473ffffffffffffffffffffffffffffffffffffffff19166001600160a01b0392909216919091179055565b3360009081527fa54247010af6b3693b80aceddfad12e077c5de3571e6243fada502635f0d7d39602052604090205460ff16610bd65760405162461bcd60e51b815260206004820152602860248201527f4d61696e7461696e61626c653a2043616c6c6572206973206e6f742061206d6160448201526734b73a30b4b732b960c11b60648201526084016105ae565b60008111610c265760405162461bcd60e51b815260206004820152601260248201527f4e6f7468696e6720746f207265636f766572000000000000000000000000000060448201526064016105ae565b604051339082156108fc029083906000818181858888f19350505050158015610c53573d6000803e3d6000fd5b506040518181526000907f8c1256b8896378cd5044f80c202f9772b9d77dc85c8a6eb51967210b09bfaa289060200160405180910390a250565b600082815260208190526040902060010154610ca881610db0565b6104698383611191565b6105ef7f339759585899103d2ace64958e37e18ccb0504652c81d4a1b8aa80fe2126ab9582610c8d565b3360009081527fa54247010af6b3693b80aceddfad12e077c5de3571e6243fada502635f0d7d39602052604090205460ff16610d6b5760405162461bcd60e51b815260206004820152602860248201527f4d61696e7461696e61626c653a2043616c6c6572206973206e6f742061206d6160448201526734b73a30b4b732b960c11b60648201526084016105ae565b6002805473ffffffffffffffffffffffffffffffffffffffff19166001600160a01b0392909216919091179055565b610da5600082610444565b6105ef600033610534565b6105ef81336112d1565b6000828152602081815260408083206001600160a01b038516845290915290205460ff166105c1576000828152602081815260408083206001600160a01b03851684529091529020805460ff19166001179055610e143390565b6001600160a01b0316816001600160a01b0316837f2f8788117e7eff1d82e926ec794901d17c78024a50270940304540a733656f0d60405160405180910390a45050565b60606001600160a01b038216610e7c57505060408051602081019091526000815290565b816001600160a01b03166395d89b416040518163ffffffff1660e01b815260040160006040518083038186803b158015610eb557600080fd5b505afa925050508015610eea57506040513d6000823e601f3d908101601f19168201604052610ee79190810190611897565b60015b61043e57505060408051602081019091526000815290565b60006001600160a01b038216610f1a57506012919050565b816001600160a01b031663313ce5676040518163ffffffff1660e01b815260040160206040518083038186803b158015610f5357600080fd5b505afa925050508015610f83575060408051601f3d908101601f19168201909252610f8091810190611a42565b60015b61043e57506012919050565b60006001600160a01b038216610fa757506000919050565b6001546040517f9217a8aa0000000000000000000000000000000000000000000000000000000081526001600160a01b03848116600483015290911690639217a8aa9060240160206040518083038186803b15801561100557600080fd5b505afa158015611019573d6000803e3d6000fd5b505050506040513d601f19601f8201168201806040525081019061043e91906119e3565b60006001600160a01b0383166110555750600061043e565b6001600160a01b03821661107457506001600160a01b0382163161043e565b6001546040517fdd62ed3e0000000000000000000000000000000000000000000000000000000081526001600160a01b03858116600483015291821660248201529083169063dd62ed3e906044015b60206040518083038186803b1580156110db57600080fd5b505afa1580156110ef573d6000803e3d6000fd5b505050506040513d601f19601f82011682018060405250810190610a8291906119e3565b60006001600160a01b03831661112b5750600061043e565b6001600160a01b03821661114a57506001600160a01b0382163161043e565b6040517f70a082310000000000000000000000000000000000000000000000000000000081526001600160a01b0384811660048301528316906370a08231906024016110c3565b6000828152602081815260408083206001600160a01b038516845290915290205460ff16156105c1576000828152602081815260408083206001600160a01b0385168085529252808320805460ff1916905551339285917ff6391f5c32d9c69d2a47ea670b442974b53935d1edc7fd64eb21e047a839171b9190a45050565b604080516001600160a01b038416602482015260448082018490528251808303909101815260649091019091526020810180517bffffffffffffffffffffffffffffffffffffffffffffffffffffffff167fa9059cbb00000000000000000000000000000000000000000000000000000000179052610469908490611344565b80518051600091906112a490600190611e2d565b815181106112c257634e487b7160e01b600052603260045260246000fd5b60200260200101519050919050565b6000828152602081815260408083206001600160a01b038516845290915290205460ff166105c15761130281611486565b61130d836020611498565b60405160200161131e929190611aee565b60408051601f198184030181529082905262461bcd60e51b82526105ae91600401611b6f565b600080836001600160a01b03168360405161135f9190611ad2565b6000604051808303816000865af19150503d806000811461139c576040519150601f19603f3d011682016040523d82523d6000602084013e6113a1565b606091505b5091509150816113f35760405162461bcd60e51b815260206004820181905260248201527f5361666545524332303a206c6f772d6c6576656c2063616c6c206661696c656460448201526064016105ae565b805115611480578080602001905181019061140e9190611813565b6114805760405162461bcd60e51b815260206004820152602a60248201527f5361666545524332303a204552433230206f7065726174696f6e20646964206e60448201527f6f7420737563636565640000000000000000000000000000000000000000000060648201526084016105ae565b50505050565b606061043e6001600160a01b03831660145b606060006114a7836002611e0e565b6114b2906002611d08565b67ffffffffffffffff8111156114d857634e487b7160e01b600052604160045260246000fd5b6040519080825280601f01601f191660200182016040528015611502576020820181803683370190505b5090507f30000000000000000000000000000000000000000000000000000000000000008160008151811061154757634e487b7160e01b600052603260045260246000fd5b60200101906001600160f81b031916908160001a9053507f7800000000000000000000000000000000000000000000000000000000000000816001815181106115a057634e487b7160e01b600052603260045260246000fd5b60200101906001600160f81b031916908160001a90535060006115c4846002611e0e565b6115cf906001611d08565b90505b6001811115611670577f303132333435363738396162636465660000000000000000000000000000000085600f166010811061161e57634e487b7160e01b600052603260045260246000fd5b1a60f81b82828151811061164257634e487b7160e01b600052603260045260246000fd5b60200101906001600160f81b031916908160001a90535060049490941c9361166981611e70565b90506115d2565b508315610a825760405162461bcd60e51b815260206004820181905260248201527f537472696e67733a20686578206c656e67746820696e73756666696369656e7460448201526064016105ae565b600082601f8301126116cf578081fd5b815160206116e46116df83611ce4565b611cb3565b80838252828201915082860187848660051b8901011115611703578586fd5b855b8581101561172a57815161171881611eb3565b84529284019290840190600101611705565b5090979650505050505050565b600082601f830112611747578081fd5b815160206117576116df83611ce4565b80838252828201915082860187848660051b8901011115611776578586fd5b855b8581101561172a57815184529284019290840190600101611778565b6000602082840312156117a5578081fd5b8135610a8281611eb3565b600080604083850312156117c2578081fd5b82356117cd81611eb3565b915060208301356117dd81611eb3565b809150509250929050565b600080604083850312156117fa578182fd5b823561180581611eb3565b946020939093013593505050565b600060208284031215611824578081fd5b81518015158114610a82578182fd5b600060208284031215611844578081fd5b5035919050565b6000806040838503121561185d578182fd5b8235915060208301356117dd81611eb3565b600060208284031215611880578081fd5b81356001600160e01b031981168114610a82578182fd5b6000602082840312156118a8578081fd5b815167ffffffffffffffff808211156118bf578283fd5b818401915084601f8301126118d2578283fd5b8151818111156118e4576118e4611e9d565b6118f7601f8201601f1916602001611cb3565b915080825285602082850101111561190d578384fd5b61191e816020840160208601611e44565b50949350505050565b600060208284031215611938578081fd5b815167ffffffffffffffff8082111561194f578283fd5b9083019060808286031215611962578283fd5b61196a611c8a565b825182811115611978578485fd5b61198487828601611737565b825250602083015182811115611998578485fd5b6119a4878286016116bf565b6020830152506040830151828111156119bb578485fd5b6119c7878286016116bf565b6040830152506060830151606082015280935050505092915050565b6000602082840312156119f4578081fd5b5051919050565b60008060008060808587031215611a10578182fd5b843593506020850135611a2281611eb3565b92506040850135611a3281611eb3565b9396929550929360600135925050565b600060208284031215611a53578081fd5b815160ff81168114610a82578182fd5b6000815180845260208085019450808401835b83811015611a9b5781516001600160a01b031687529582019590820190600101611a76565b509495945050505050565b60008151808452611abe816020860160208601611e44565b601f01601f19169290920160200192915050565b60008251611ae4818460208701611e44565b9190910192915050565b7f416363657373436f6e74726f6c3a206163636f756e7420000000000000000000815260008351611b26816017850160208801611e44565b7f206973206d697373696e6720726f6c65200000000000000000000000000000006017918401918201528351611b63816028840160208801611e44565b01602801949350505050565b602081526000610a826020830184611aa6565b60208082528251608083830152805160a0840181905260009291820190839060c08601905b80831015611bc75783518252928401926001929092019190840190611ba7565b50838701519350601f19925082868203016040870152611be78185611a63565b93505050604085015181858403016060860152611c048382611a63565b92505050606084015160808401528091505092915050565b602081526001600160a01b0382511660208201526000602083015160e06040840152611c4c610100840182611aa6565b90506040840151606084015260608401516080840152608084015160a084015260a084015160c084015260c084015160e08401528091505092915050565b6040516080810167ffffffffffffffff81118282101715611cad57611cad611e9d565b60405290565b604051601f8201601f1916810167ffffffffffffffff81118282101715611cdc57611cdc611e9d565b604052919050565b600067ffffffffffffffff821115611cfe57611cfe611e9d565b5060051b60200190565b60008219821115611d1b57611d1b611e87565b500190565b600181815b80851115611d5b578160001904821115611d4157611d41611e87565b80851615611d4e57918102915b93841c9390800290611d25565b509250929050565b6000610a8260ff841683600082611d7c5750600161043e565b81611d895750600061043e565b8160018114611d9f5760028114611da957611dc5565b600191505061043e565b60ff841115611dba57611dba611e87565b50506001821b61043e565b5060208310610133831016604e8410600b8410161715611de8575081810a61043e565b611df28383611d20565b8060001904821115611e0657611e06611e87565b029392505050565b6000816000190483118215151615611e2857611e28611e87565b500290565b600082821015611e3f57611e3f611e87565b500390565b60005b83811015611e5f578181015183820152602001611e47565b838111156114805750506000910152565b600081611e7f57611e7f611e87565b506000190190565b634e487b7160e01b600052601160045260246000fd5b634e487b7160e01b600052604160045260246000fd5b6001600160a01b03811681146105ef57600080fdfea2646970667358221220999130e9adb46efe66cd945cd8628a472c36dcaa6049fb9196d80f2dd301c72264736f6c63430008040033",
  "linkReferences": {},
  "deployedLinkReferences": {}
}