{
  "_format": "hh-sol-artifact-1",
  "contractName": "GasRefund",
  "sourceName": "src/contracts/GasRefund.sol",
  "abi": [
    {
      "inputs": [
        {
          "internalType": "address",
          "name": "_signer",
          "type": "address"
        }
      ],
      "stateMutability": "nonpayable",
      "type": "constructor"
    },
    {
      "anonymous": false,
      "inputs": [
        {
          "indexed": true,
          "internalType": "address",
          "name": "previousOwner",
          "type": "address"
        },
        {
          "indexed": true,
          "internalType": "address",
          "name": "newOwner",
          "type": "address"
        }
      ],
      "name": "OwnershipTransferred",
      "type": "event"
    },
    {
      "anonymous": false,
      "inputs": [
        {
          "indexed": true,
          "internalType": "address",
          "name": "recipient",
          "type": "address"
        },
        {
          "indexed": false,
          "internalType": "uint256",
          "name": "amount",
          "type": "uint256"
        }
      ],
      "name": "Withdrawn",
      "type": "event"
    },
    {
      "inputs": [],
      "name": "blast",
      "outputs": [
        {
          "internalType": "contract IBlast",
          "name": "",
          "type": "address"
        }
      ],
      "stateMutability": "view",
      "type": "function"
    },
    {
      "inputs": [
        {
          "internalType": "address",
          "name": "_signer",
          "type": "address"
        }
      ],
      "name": "changeSigner",
      "outputs": [],
      "stateMutability": "nonpayable",
      "type": "function"
    },
    {
      "inputs": [
        {
          "internalType": "address[]",
          "name": "_contractAddresses",
          "type": "address[]"
        }
      ],
      "name": "claimAllGas",
      "outputs": [],
      "stateMutability": "nonpayable",
      "type": "function"
    },
    {
      "inputs": [
        {
          "internalType": "address[]",
          "name": "_contractAddresses",
          "type": "address[]"
        },
        {
          "internalType": "uint256[]",
          "name": "_gasToClaim",
          "type": "uint256[]"
        },
        {
          "internalType": "uint256[]",
          "name": "_gasSecondsToConsume",
          "type": "uint256[]"
        }
      ],
      "name": "claimGas",
      "outputs": [],
      "stateMutability": "nonpayable",
      "type": "function"
    },
    {
      "inputs": [
        {
          "internalType": "address[]",
          "name": "_contractAddresses",
          "type": "address[]"
        },
        {
          "internalType": "uint256[]",
          "name": "_minClaimRateBips",
          "type": "uint256[]"
        }
      ],
      "name": "claimGasAtMinClaimRate",
      "outputs": [],
      "stateMutability": "nonpayable",
      "type": "function"
    },
    {
      "inputs": [
        {
          "internalType": "address[]",
          "name": "_contractAddresses",
          "type": "address[]"
        }
      ],
      "name": "claimMaxGas",
      "outputs": [],
      "stateMutability": "nonpayable",
      "type": "function"
    },
    {
      "inputs": [
        {
          "internalType": "address",
          "name": "_governor",
          "type": "address"
        }
      ],
      "name": "configureGovernor",
      "outputs": [],
      "stateMutability": "nonpayable",
      "type": "function"
    },
    {
      "inputs": [
        {
          "internalType": "address",
          "name": "",
          "type": "address"
        }
      ],
      "name": "nonces",
      "outputs": [
        {
          "internalType": "uint256",
          "name": "",
          "type": "uint256"
        }
      ],
      "stateMutability": "view",
      "type": "function"
    },
    {
      "inputs": [],
      "name": "owner",
      "outputs": [
        {
          "internalType": "address",
          "name": "",
          "type": "address"
        }
      ],
      "stateMutability": "view",
      "type": "function"
    },
    {
      "inputs": [
        {
          "internalType": "address",
          "name": "contractAddress",
          "type": "address"
        }
      ],
      "name": "readGasParams",
      "outputs": [
        {
          "internalType": "uint256",
          "name": "etherSeconds",
          "type": "uint256"
        },
        {
          "internalType": "uint256",
          "name": "etherBalance",
          "type": "uint256"
        },
        {
          "internalType": "uint256",
          "name": "lastUpdated",
          "type": "uint256"
        },
        {
          "internalType": "enum IBlast.GasMode",
          "name": "",
          "type": "uint8"
        }
      ],
      "stateMutability": "view",
      "type": "function"
    },
    {
      "inputs": [],
      "name": "renounceOwnership",
      "outputs": [],
      "stateMutability": "nonpayable",
      "type": "function"
    },
    {
      "inputs": [],
      "name": "signer",
      "outputs": [
        {
          "internalType": "address",
          "name": "",
          "type": "address"
        }
      ],
      "stateMutability": "view",
      "type": "function"
    },
    {
      "inputs": [
        {
          "internalType": "address",
          "name": "newOwner",
          "type": "address"
        }
      ],
      "name": "transferOwnership",
      "outputs": [],
      "stateMutability": "nonpayable",
      "type": "function"
    },
    {
      "inputs": [
        {
          "components": [
            {
              "internalType": "address",
              "name": "recipient",
              "type": "address"
            },
            {
              "internalType": "uint256",
              "name": "amount",
              "type": "uint256"
            },
            {
              "internalType": "uint256",
              "name": "nonce",
              "type": "uint256"
            }
          ],
          "internalType": "struct IGasRefund.Withdrawal",
          "name": "_withdrawal",
          "type": "tuple"
        },
        {
          "internalType": "bytes",
          "name": "_sig",
          "type": "bytes"
        }
      ],
      "name": "withdrawGas",
      "outputs": [],
      "stateMutability": "payable",
      "type": "function"
    }
  ],
  "bytecode": "0x608060405234801561001057600080fd5b506040516113a83803806113a883398101604081905261002f916100ad565b6100383361005d565b600180546001600160a01b0319166001600160a01b03929092169190911790556100db565b600080546001600160a01b038381166001600160a01b0319831681178455604051919092169283917f8be0079c531659141344cd1fd0a4f28419497f9722a3daafe3b4186f6b6457e09190a35050565b6000602082840312156100be578081fd5b81516001600160a01b03811681146100d4578182fd5b9392505050565b6112be806100ea6000396000f3fe6080604052600436106100dd5760003560e01c80638da5cb5b1161007f578063dcce789711610059578063dcce78971461023d578063dde798a41461025d578063eb8646981461028d578063f2fde38b146102ad57600080fd5b80638da5cb5b146101df578063aad2b723146101fd578063b86bb1cd1461021d57600080fd5b80635136a089116100bb5780635136a0891461014f578063715018a61461016f5780637ecebe0014610184578063839297da146101bf57600080fd5b8063175e1a7d146100e257806319c3fc1d1461011a578063238ac9331461012f575b600080fd5b3480156100ee57600080fd5b506100fd6002604360981b0181565b6040516001600160a01b0390911681526020015b60405180910390f35b61012d6101283660046110ea565b6102cd565b005b34801561013b57600080fd5b506001546100fd906001600160a01b031681565b34801561015b57600080fd5b5061012d61016a366004610fab565b6104ce565b34801561017b57600080fd5b5061012d6105ba565b34801561019057600080fd5b506101b161019f366004610f7d565b60026020526000908152604090205481565b604051908152602001610111565b3480156101cb57600080fd5b5061012d6101da366004610feb565b6105ce565b3480156101eb57600080fd5b506000546001600160a01b03166100fd565b34801561020957600080fd5b5061012d610218366004610f7d565b610731565b34801561022957600080fd5b5061012d610238366004610fab565b610768565b34801561024957600080fd5b5061012d610258366004611054565b61084f565b34801561026957600080fd5b5061027d610278366004610f7d565b61099f565b6040516101119493929190611209565b34801561029957600080fd5b5061012d6102a8366004610f7d565b610a4e565b3480156102b957600080fd5b5061012d6102c8366004610f7d565b610acb565b604080516bffffffffffffffffffffffff193360601b166020828101919091528401356034820152908301356054820152610321906074016040516020818303038152906040528051906020012082610b5b565b6103725760405162461bcd60e51b815260206004820152601c60248201527f476173526566756e643a20696e76616c6964207369676e61747572650000000060448201526064015b60405180910390fd5b33600090815260026020526040908190205490830135146103d55760405162461bcd60e51b815260206004820152601860248201527f476173526566756e643a20696e76616c6964206e6f6e636500000000000000006044820152606401610369565b60405160009033906020850135908381818185875af1925050503d806000811461041b576040519150601f19603f3d011682016040523d82523d6000602084013e610420565b606091505b50509050806104715760405162461bcd60e51b815260206004820152601a60248201527f476173526566756e643a207472616e73666572206661696c65640000000000006044820152606401610369565b33600090815260026020526040812080549161048c8361124b565b9091555050604051602080850135825233917f7084f5476618d8e60b11ef0d7d3f06914655adb8793e28ff7f018d4c76d505d5910160405180910390a2505050565b6104d6610bb4565b60005b818110156105b5576002604360981b0163954fa5ee84848481811061050e57634e487b7160e01b600052603260045260246000fd5b90506020020160208101906105239190610f7d565b6040516001600160e01b031960e084901b1681526001600160a01b039091166004820152306024820152604401602060405180830381600087803b15801561056a57600080fd5b505af115801561057e573d6000803e3d6000fd5b505050506040513d601f19601f820116820180604052508101906105a291906111ae565b50806105ad8161124b565b9150506104d9565b505050565b6105c2610bb4565b6105cc6000610c0e565b565b6105d6610bb4565b82811461064b5760405162461bcd60e51b815260206004820152602660248201527f476173526566756e643a2073686f756c642068617665207468652073616d652060448201527f6c656e67746800000000000000000000000000000000000000000000000000006064820152608401610369565b60005b8381101561072a576002604360981b0163662aa11d86868481811061068357634e487b7160e01b600052603260045260246000fd5b90506020020160208101906106989190610f7d565b6040516001600160e01b031960e084901b1681526001600160a01b039091166004820152306024820152604401602060405180830381600087803b1580156106df57600080fd5b505af11580156106f3573d6000803e3d6000fd5b505050506040513d601f19601f8201168201806040525081019061071791906111ae565b50806107228161124b565b91505061064e565b5050505050565b610739610bb4565b6001805473ffffffffffffffffffffffffffffffffffffffff19166001600160a01b0392909216919091179055565b610770610bb4565b60005b818110156105b5576002604360981b0163662aa11d8484848181106107a857634e487b7160e01b600052603260045260246000fd5b90506020020160208101906107bd9190610f7d565b6040516001600160e01b031960e084901b1681526001600160a01b039091166004820152306024820152604401602060405180830381600087803b15801561080457600080fd5b505af1158015610818573d6000803e3d6000fd5b505050506040513d601f19601f8201168201806040525081019061083c91906111ae565b50806108478161124b565b915050610773565b610857610bb4565b60005b85811015610996576002604360981b0163fafce39e88888481811061088f57634e487b7160e01b600052603260045260246000fd5b90506020020160208101906108a49190610f7d565b308888868181106108c557634e487b7160e01b600052603260045260246000fd5b905060200201358787878181106108ec57634e487b7160e01b600052603260045260246000fd5b6040516001600160e01b031960e089901b1681526001600160a01b039687166004820152959094166024860152506044840191909152602090910201356064820152608401602060405180830381600087803b15801561094b57600080fd5b505af115801561095f573d6000803e3d6000fd5b505050506040513d601f19601f8201168201806040525081019061098391906111ae565b508061098e8161124b565b91505061085a565b50505050505050565b6040517fdde798a40000000000000000000000000000000000000000000000000000000081526001600160a01b03821660048201526000908190819081906002604360981b019063dde798a49060240160806040518083038186803b158015610a0757600080fd5b505afa158015610a1b573d6000803e3d6000fd5b505050506040513d601f19601f82011682018060405250810190610a3f91906111c6565b93509350935093509193509193565b610a56610bb4565b6040517feb8646980000000000000000000000000000000000000000000000000000000081526001600160a01b03821660048201526002604360981b019063eb86469890602401600060405180830381600087803b158015610ab757600080fd5b505af115801561072a573d6000803e3d6000fd5b610ad3610bb4565b6001600160a01b038116610b4f5760405162461bcd60e51b815260206004820152602660248201527f4f776e61626c653a206e6577206f776e657220697320746865207a65726f206160448201527f64647265737300000000000000000000000000000000000000000000000000006064820152608401610369565b610b5881610c0e565b50565b6001547f19457468657265756d205369676e6564204d6573736167653a0a3332000000006000908152601c849052603c812090916001600160a01b031690610ba39084610c6b565b6001600160a01b0316149392505050565b6000546001600160a01b031633146105cc5760405162461bcd60e51b815260206004820181905260248201527f4f776e61626c653a2063616c6c6572206973206e6f7420746865206f776e65726044820152606401610369565b600080546001600160a01b0383811673ffffffffffffffffffffffffffffffffffffffff19831681178455604051919092169283917f8be0079c531659141344cd1fd0a4f28419497f9722a3daafe3b4186f6b6457e09190a35050565b6000806000610c7a8585610c8f565b91509150610c8781610cd5565b509392505050565b600080825160411415610cc65760208301516040840151606085015160001a610cba87828585610e76565b94509450505050610cce565b506000905060025b9250929050565b6000816004811115610cf757634e487b7160e01b600052602160045260246000fd5b1415610d005750565b6001816004811115610d2257634e487b7160e01b600052602160045260246000fd5b1415610d705760405162461bcd60e51b815260206004820152601860248201527f45434453413a20696e76616c6964207369676e617475726500000000000000006044820152606401610369565b6002816004811115610d9257634e487b7160e01b600052602160045260246000fd5b1415610de05760405162461bcd60e51b815260206004820152601f60248201527f45434453413a20696e76616c6964207369676e6174757265206c656e677468006044820152606401610369565b6003816004811115610e0257634e487b7160e01b600052602160045260246000fd5b1415610b585760405162461bcd60e51b815260206004820152602260248201527f45434453413a20696e76616c6964207369676e6174757265202773272076616c60448201527f75650000000000000000000000000000000000000000000000000000000000006064820152608401610369565b6000807f7fffffffffffffffffffffffffffffff5d576e7357a4501ddfe92f46681b20a0831115610ead5750600090506003610f31565b6040805160008082526020820180845289905260ff881692820192909252606081018690526080810185905260019060a0016020604051602081039080840390855afa158015610f01573d6000803e3d6000fd5b5050604051601f1901519150506001600160a01b038116610f2a57600060019250925050610f31565b9150600090505b94509492505050565b60008083601f840112610f4b578081fd5b50813567ffffffffffffffff811115610f62578182fd5b6020830191508360208260051b8501011115610cce57600080fd5b600060208284031215610f8e578081fd5b81356001600160a01b0381168114610fa4578182fd5b9392505050565b60008060208385031215610fbd578081fd5b823567ffffffffffffffff811115610fd3578182fd5b610fdf85828601610f3a565b90969095509350505050565b60008060008060408587031215611000578182fd5b843567ffffffffffffffff80821115611017578384fd5b61102388838901610f3a565b9096509450602087013591508082111561103b578384fd5b5061104887828801610f3a565b95989497509550505050565b6000806000806000806060878903121561106c578182fd5b863567ffffffffffffffff80821115611083578384fd5b61108f8a838b01610f3a565b909850965060208901359150808211156110a7578384fd5b6110b38a838b01610f3a565b909650945060408901359150808211156110cb578384fd5b506110d889828a01610f3a565b979a9699509497509295939492505050565b60008082840360808112156110fd578283fd5b606081121561110a578283fd5b50829150606083013567ffffffffffffffff80821115611128578283fd5b818501915085601f83011261113b578283fd5b81358181111561114d5761114d611272565b604051601f8201601f19908116603f0116810190838211818310171561117557611175611272565b8160405282815288602084870101111561118d578586fd5b82602086016020830137856020848301015280955050505050509250929050565b6000602082840312156111bf578081fd5b5051919050565b600080600080608085870312156111db578384fd5b8451935060208501519250604085015191506060850151600281106111fe578182fd5b939692955090935050565b8481526020810184905260408101839052608081016002831061123c57634e487b7160e01b600052602160045260246000fd5b82606083015295945050505050565b600060001982141561126b57634e487b7160e01b81526011600452602481fd5b5060010190565b634e487b7160e01b600052604160045260246000fdfea2646970667358221220b12269263249aeeff6e31b3818ff652c39b551246cb9293b830d17c6b099517764736f6c63430008040033",
  "linkReferences": {},
  "deployedLinkReferences": {}
}