{
  "_format": "hh-sol-artifact-1",
  "contractName": "UniswapV2Adapter",
  "sourceName": "src/contracts/adapters/UniswapV2Adapter.sol",
  "abi": [
    {
      "inputs": [
        {
          "internalType": "string",
          "name": "_name",
          "type": "string"
        },
        {
          "internalType": "address",
          "name": "_factory",
          "type": "address"
        },
        {
          "internalType": "uint256",
          "name": "_fee",
          "type": "uint256"
        },
        {
          "internalType": "uint256",
          "name": "_swapGasEstimate",
          "type": "uint256"
        }
      ],
      "stateMutability": "nonpayable",
      "type": "constructor"
    },
    {
      "inputs": [],
      "name": "AlreadyInitialized",
      "type": "error"
    },
    {
      "anonymous": false,
      "inputs": [
        {
          "indexed": true,
          "internalType": "address",
          "name": "_asset",
          "type": "address"
        },
        {
          "indexed": false,
          "internalType": "uint256",
          "name": "amount",
          "type": "uint256"
        }
      ],
      "name": "Recovered",
      "type": "event"
    },
    {
      "anonymous": false,
      "inputs": [
        {
          "indexed": true,
          "internalType": "bytes32",
          "name": "role",
          "type": "bytes32"
        },
        {
          "indexed": true,
          "internalType": "bytes32",
          "name": "previousAdminRole",
          "type": "bytes32"
        },
        {
          "indexed": true,
          "internalType": "bytes32",
          "name": "newAdminRole",
          "type": "bytes32"
        }
      ],
      "name": "RoleAdminChanged",
      "type": "event"
    },
    {
      "anonymous": false,
      "inputs": [
        {
          "indexed": true,
          "internalType": "bytes32",
          "name": "role",
          "type": "bytes32"
        },
        {
          "indexed": true,
          "internalType": "address",
          "name": "account",
          "type": "address"
        },
        {
          "indexed": true,
          "internalType": "address",
          "name": "sender",
          "type": "address"
        }
      ],
      "name": "RoleGranted",
      "type": "event"
    },
    {
      "anonymous": false,
      "inputs": [
        {
          "indexed": true,
          "internalType": "bytes32",
          "name": "role",
          "type": "bytes32"
        },
        {
          "indexed": true,
          "internalType": "address",
          "name": "account",
          "type": "address"
        },
        {
          "indexed": true,
          "internalType": "address",
          "name": "sender",
          "type": "address"
        }
      ],
      "name": "RoleRevoked",
      "type": "event"
    },
    {
      "anonymous": false,
      "inputs": [
        {
          "indexed": true,
          "internalType": "address",
          "name": "_tokenFrom",
          "type": "address"
        },
        {
          "indexed": true,
          "internalType": "address",
          "name": "_tokenTo",
          "type": "address"
        },
        {
          "indexed": false,
          "internalType": "uint256",
          "name": "_amountIn",
          "type": "uint256"
        },
        {
          "indexed": false,
          "internalType": "uint256",
          "name": "_amountOut",
          "type": "uint256"
        }
      ],
      "name": "SummitAdapterSwap",
      "type": "event"
    },
    {
      "anonymous": false,
      "inputs": [
        {
          "indexed": true,
          "internalType": "address",
          "name": "_adapter",
          "type": "address"
        },
        {
          "indexed": false,
          "internalType": "uint256",
          "name": "_newEstimate",
          "type": "uint256"
        }
      ],
      "name": "UpdatedGasEstimate",
      "type": "event"
    },
    {
      "inputs": [],
      "name": "DEFAULT_ADMIN_ROLE",
      "outputs": [
        {
          "internalType": "bytes32",
          "name": "",
          "type": "bytes32"
        }
      ],
      "stateMutability": "view",
      "type": "function"
    },
    {
      "inputs": [],
      "name": "MAINTAINER_ROLE",
      "outputs": [
        {
          "internalType": "bytes32",
          "name": "",
          "type": "bytes32"
        }
      ],
      "stateMutability": "view",
      "type": "function"
    },
    {
      "inputs": [
        {
          "internalType": "address",
          "name": "addedMaintainer",
          "type": "address"
        }
      ],
      "name": "addMaintainer",
      "outputs": [],
      "stateMutability": "nonpayable",
      "type": "function"
    },
    {
      "inputs": [],
      "name": "factory",
      "outputs": [
        {
          "internalType": "address",
          "name": "",
          "type": "address"
        }
      ],
      "stateMutability": "view",
      "type": "function"
    },
    {
      "inputs": [],
      "name": "feeCompliment",
      "outputs": [
        {
          "internalType": "uint256",
          "name": "",
          "type": "uint256"
        }
      ],
      "stateMutability": "view",
      "type": "function"
    },
    {
      "inputs": [
        {
          "internalType": "bytes32",
          "name": "role",
          "type": "bytes32"
        }
      ],
      "name": "getRoleAdmin",
      "outputs": [
        {
          "internalType": "bytes32",
          "name": "",
          "type": "bytes32"
        }
      ],
      "stateMutability": "view",
      "type": "function"
    },
    {
      "inputs": [],
      "name": "governor",
      "outputs": [
        {
          "internalType": "address",
          "name": "",
          "type": "address"
        }
      ],
      "stateMutability": "view",
      "type": "function"
    },
    {
      "inputs": [
        {
          "internalType": "bytes32",
          "name": "role",
          "type": "bytes32"
        },
        {
          "internalType": "address",
          "name": "account",
          "type": "address"
        }
      ],
      "name": "grantRole",
      "outputs": [],
      "stateMutability": "nonpayable",
      "type": "function"
    },
    {
      "inputs": [
        {
          "internalType": "bytes32",
          "name": "role",
          "type": "bytes32"
        },
        {
          "internalType": "address",
          "name": "account",
          "type": "address"
        }
      ],
      "name": "hasRole",
      "outputs": [
        {
          "internalType": "bool",
          "name": "",
          "type": "bool"
        }
      ],
      "stateMutability": "view",
      "type": "function"
    },
    {
      "inputs": [
        {
          "internalType": "address",
          "name": "_governor",
          "type": "address"
        }
      ],
      "name": "initialize",
      "outputs": [],
      "stateMutability": "nonpayable",
      "type": "function"
    },
    {
      "inputs": [],
      "name": "initialized",
      "outputs": [
        {
          "internalType": "bool",
          "name": "",
          "type": "bool"
        }
      ],
      "stateMutability": "view",
      "type": "function"
    },
    {
      "inputs": [],
      "name": "name",
      "outputs": [
        {
          "internalType": "string",
          "name": "",
          "type": "string"
        }
      ],
      "stateMutability": "view",
      "type": "function"
    },
    {
      "inputs": [
        {
          "internalType": "uint256",
          "name": "_amountIn",
          "type": "uint256"
        },
        {
          "internalType": "address",
          "name": "_tokenIn",
          "type": "address"
        },
        {
          "internalType": "address",
          "name": "_tokenOut",
          "type": "address"
        }
      ],
      "name": "query",
      "outputs": [
        {
          "internalType": "uint256",
          "name": "",
          "type": "uint256"
        }
      ],
      "stateMutability": "view",
      "type": "function"
    },
    {
      "inputs": [
        {
          "internalType": "uint256",
          "name": "_amount",
          "type": "uint256"
        }
      ],
      "name": "recoverAVAX",
      "outputs": [],
      "stateMutability": "nonpayable",
      "type": "function"
    },
    {
      "inputs": [
        {
          "internalType": "address",
          "name": "_tokenAddress",
          "type": "address"
        },
        {
          "internalType": "uint256",
          "name": "_tokenAmount",
          "type": "uint256"
        }
      ],
      "name": "recoverERC20",
      "outputs": [],
      "stateMutability": "nonpayable",
      "type": "function"
    },
    {
      "inputs": [
        {
          "internalType": "address",
          "name": "removedMaintainer",
          "type": "address"
        }
      ],
      "name": "removeMaintainer",
      "outputs": [],
      "stateMutability": "nonpayable",
      "type": "function"
    },
    {
      "inputs": [
        {
          "internalType": "bytes32",
          "name": "role",
          "type": "bytes32"
        },
        {
          "internalType": "address",
          "name": "account",
          "type": "address"
        }
      ],
      "name": "renounceRole",
      "outputs": [],
      "stateMutability": "nonpayable",
      "type": "function"
    },
    {
      "inputs": [
        {
          "internalType": "bytes32",
          "name": "role",
          "type": "bytes32"
        }
      ],
      "name": "renounceRole",
      "outputs": [],
      "stateMutability": "nonpayable",
      "type": "function"
    },
    {
      "inputs": [
        {
          "internalType": "address",
          "name": "_token",
          "type": "address"
        },
        {
          "internalType": "address",
          "name": "_spender",
          "type": "address"
        }
      ],
      "name": "revokeAllowance",
      "outputs": [],
      "stateMutability": "nonpayable",
      "type": "function"
    },
    {
      "inputs": [
        {
          "internalType": "bytes32",
          "name": "role",
          "type": "bytes32"
        },
        {
          "internalType": "address",
          "name": "account",
          "type": "address"
        }
      ],
      "name": "revokeRole",
      "outputs": [],
      "stateMutability": "nonpayable",
      "type": "function"
    },
    {
      "inputs": [
        {
          "internalType": "uint256",
          "name": "_estimate",
          "type": "uint256"
        }
      ],
      "name": "setSwapGasEstimate",
      "outputs": [],
      "stateMutability": "nonpayable",
      "type": "function"
    },
    {
      "inputs": [
        {
          "internalType": "bytes4",
          "name": "interfaceId",
          "type": "bytes4"
        }
      ],
      "name": "supportsInterface",
      "outputs": [
        {
          "internalType": "bool",
          "name": "",
          "type": "bool"
        }
      ],
      "stateMutability": "view",
      "type": "function"
    },
    {
      "inputs": [
        {
          "internalType": "uint256",
          "name": "_amountIn",
          "type": "uint256"
        },
        {
          "internalType": "uint256",
          "name": "_amountOut",
          "type": "uint256"
        },
        {
          "internalType": "address",
          "name": "_fromToken",
          "type": "address"
        },
        {
          "internalType": "address",
          "name": "_toToken",
          "type": "address"
        },
        {
          "internalType": "address",
          "name": "_to",
          "type": "address"
        }
      ],
      "name": "swap",
      "outputs": [],
      "stateMutability": "nonpayable",
      "type": "function"
    },
    {
      "inputs": [],
      "name": "swapGasEstimate",
      "outputs": [
        {
          "internalType": "uint256",
          "name": "",
          "type": "uint256"
        }
      ],
      "stateMutability": "view",
      "type": "function"
    },
    {
      "inputs": [
        {
          "internalType": "address",
          "name": "newOwner",
          "type": "address"
        }
      ],
      "name": "transferOwnership",
      "outputs": [],
      "stateMutability": "nonpayable",
      "type": "function"
    },
    {
      "stateMutability": "payable",
      "type": "receive"
    }
  ],
  "bytecode": "0x60c06040526003805460ff191690553480156200001b57600080fd5b50604051620024b1380380620024b18339810160408190526200003e91620003b5565b83816200004d600033620000bc565b620000797f339759585899103d2ace64958e37e18ccb0504652c81d4a1b8aa80fe2126ab9533620000bc565b6200008482620000cc565b6200008f8162000135565b50620000a09050826103e8620004b0565b608052505060601b6001600160601b03191660a0525062000527565b620000c8828262000252565b5050565b8051620001205760405162461bcd60e51b815260206004820152601460248201527f496e76616c69642061646170746572206e616d6500000000000000000000000060448201526064015b60405180910390fd5b8051620000c8906002906020840190620002f2565b3360009081527fa54247010af6b3693b80aceddfad12e077c5de3571e6243fada502635f0d7d39602052604090205460ff16620001c65760405162461bcd60e51b815260206004820152602860248201527f4d61696e7461696e61626c653a2043616c6c6572206973206e6f742061206d6160448201526734b73a30b4b732b960c11b606482015260840162000117565b80620002155760405162461bcd60e51b815260206004820152601460248201527f496e76616c6964206761732d657374696d617465000000000000000000000000604482015260640162000117565b600181905560405181815230907ff43f23b7a28e6f8ce6843a21bd7b48bce778aa913b8c8cf459edf7d770e8d38a9060200160405180910390a250565b6000828152602081815260408083206001600160a01b038516845290915290205460ff16620000c8576000828152602081815260408083206001600160a01b03851684529091529020805460ff19166001179055620002ae3390565b6001600160a01b0316816001600160a01b0316837f2f8788117e7eff1d82e926ec794901d17c78024a50270940304540a733656f0d60405160405180910390a45050565b8280546200030090620004d4565b90600052602060002090601f0160209004810192826200032457600085556200036f565b82601f106200033f57805160ff19168380011785556200036f565b828001600101855582156200036f579182015b828111156200036f57825182559160200191906001019062000352565b506200037d92915062000381565b5090565b5b808211156200037d576000815560010162000382565b80516001600160a01b0381168114620003b057600080fd5b919050565b60008060008060808587031215620003cb578384fd5b84516001600160401b0380821115620003e2578586fd5b818701915087601f830112620003f6578586fd5b8151818111156200040b576200040b62000511565b604051601f8201601f19908116603f0116810190838211818310171562000436576200043662000511565b81604052828152602093508a8484870101111562000452578889fd5b8891505b8282101562000475578482018401518183018501529083019062000456565b828211156200048657888484830101525b97506200049891505087820162000398565b60408801516060909801519699909850945050505050565b600082821015620004cf57634e487b7160e01b81526011600452602481fd5b500390565b600181811c90821680620004e957607f821691505b602082108114156200050b57634e487b7160e01b600052602260045260246000fd5b50919050565b634e487b7160e01b600052604160045260246000fd5b60805160a05160601c611f4c62000565600039600081816104490152818161132201526114cc0152600081816102e601526118110152611f4c6000f3fe60806040526004361061019a5760003560e01c806384a33e63116100e1578063c4d66de81161008a578063eab90da611610064578063eab90da6146104cb578063ef99893a146104eb578063f2fde38b1461050b578063f87422541461052b57600080fd5b8063c4d66de81461046b578063d547741f1461048b578063d8baf7cf146104ab57600080fd5b806391d14854116100bb57806391d14854146103de578063a217fddf14610422578063c45a01551461043757600080fd5b806384a33e631461037e5780638980f11f1461039e5780638bb9c5bf146103be57600080fd5b806336568abe1161014357806369cff80d1161011d57806369cff80d146103285780636b453c1f1461033e5780637ae267731461035e57600080fd5b806336568abe146102b45780633b720fca146102d45780634ebb79161461030857600080fd5b8063158ef93e11610174578063158ef93e1461023a578063248a9ca3146102545780632f2ff15d1461029257600080fd5b806301ffc9a7146101a657806306fdde03146101db5780630c340a24146101fd57600080fd5b366101a157005b600080fd5b3480156101b257600080fd5b506101c66101c1366004611bc9565b61055f565b60405190151581526020015b60405180910390f35b3480156101e757600080fd5b506101f06105c8565b6040516101d29190611db4565b34801561020957600080fd5b506003546102229061010090046001600160a01b031681565b6040516001600160a01b0390911681526020016101d2565b34801561024657600080fd5b506003546101c69060ff1681565b34801561026057600080fd5b5061028461026f366004611b8d565b60009081526020819052604090206001015490565b6040519081526020016101d2565b34801561029e57600080fd5b506102b26102ad366004611ba5565b610656565b005b3480156102c057600080fd5b506102b26102cf366004611ba5565b610680565b3480156102e057600080fd5b506102847f000000000000000000000000000000000000000000000000000000000000000081565b34801561031457600080fd5b506102b2610323366004611b8d565b610711565b34801561033457600080fd5b5061028460015481565b34801561034a57600080fd5b506102b2610359366004611ad2565b610862565b34801561036a57600080fd5b506102b2610379366004611b0a565b61088f565b34801561038a57600080fd5b506102b2610399366004611b8d565b610933565b3480156103aa57600080fd5b506102b26103b9366004611b42565b610a46565b3480156103ca57600080fd5b506102b26103d9366004611b8d565b610b8a565b3480156103ea57600080fd5b506101c66103f9366004611ba5565b6000918252602082815260408084206001600160a01b0393909316845291905290205460ff1690565b34801561042e57600080fd5b50610284600081565b34801561044357600080fd5b506102227f000000000000000000000000000000000000000000000000000000000000000081565b34801561047757600080fd5b506102b2610486366004611ad2565b610b94565b34801561049757600080fd5b506102b26104a6366004611ba5565b610da2565b3480156104b757600080fd5b506102b26104c6366004611ad2565b610dc7565b3480156104d757600080fd5b506102b26104e6366004611c8d565b610df1565b3480156104f757600080fd5b50610284610506366004611c57565b610fb6565b34801561051757600080fd5b506102b2610526366004611ad2565b610fcd565b34801561053757600080fd5b506102847f339759585899103d2ace64958e37e18ccb0504652c81d4a1b8aa80fe2126ab9581565b60006001600160e01b031982167f7965db0b0000000000000000000000000000000000000000000000000000000014806105c257507f01ffc9a7000000000000000000000000000000000000000000000000000000006001600160e01b03198316145b92915050565b600280546105d590611eb0565b80601f016020809104026020016040519081016040528092919081815260200182805461060190611eb0565b801561064e5780601f106106235761010080835404028352916020019161064e565b820191906000526020600020905b81548152906001019060200180831161063157829003601f168201915b505050505081565b60008281526020819052604090206001015461067181610fe3565b61067b8383610fed565b505050565b6001600160a01b03811633146107035760405162461bcd60e51b815260206004820152602f60248201527f416363657373436f6e74726f6c3a2063616e206f6e6c792072656e6f756e636560448201527f20726f6c657320666f722073656c66000000000000000000000000000000000060648201526084015b60405180910390fd5b61070d828261108b565b5050565b3360009081527fa54247010af6b3693b80aceddfad12e077c5de3571e6243fada502635f0d7d39602052604090205460ff166107a05760405162461bcd60e51b815260206004820152602860248201527f4d61696e7461696e61626c653a2043616c6c6572206973206e6f742061206d6160448201526734b73a30b4b732b960c11b60648201526084016106fa565b600081116107fa5760405162461bcd60e51b815260206004820152602160248201527f53756d6d6974416461707465723a204e6f7468696e6720746f207265636f76656044820152603960f91b60648201526084016106fa565b604051339082156108fc029083906000818181858888f19350505050158015610827573d6000803e3d6000fd5b506040518181526000907f8c1256b8896378cd5044f80c202f9772b9d77dc85c8a6eb51967210b09bfaa28906020015b60405180910390a250565b61088c7f339759585899103d2ace64958e37e18ccb0504652c81d4a1b8aa80fe2126ab9582610656565b50565b3360009081527fa54247010af6b3693b80aceddfad12e077c5de3571e6243fada502635f0d7d39602052604090205460ff1661091e5760405162461bcd60e51b815260206004820152602860248201527f4d61696e7461696e61626c653a2043616c6c6572206973206e6f742061206d6160448201526734b73a30b4b732b960c11b60648201526084016106fa565b61070d6001600160a01b03831682600061110a565b3360009081527fa54247010af6b3693b80aceddfad12e077c5de3571e6243fada502635f0d7d39602052604090205460ff166109c25760405162461bcd60e51b815260206004820152602860248201527f4d61696e7461696e61626c653a2043616c6c6572206973206e6f742061206d6160448201526734b73a30b4b732b960c11b60648201526084016106fa565b80610a0f5760405162461bcd60e51b815260206004820152601460248201527f496e76616c6964206761732d657374696d61746500000000000000000000000060448201526064016106fa565b600181905560405181815230907ff43f23b7a28e6f8ce6843a21bd7b48bce778aa913b8c8cf459edf7d770e8d38a90602001610857565b3360009081527fa54247010af6b3693b80aceddfad12e077c5de3571e6243fada502635f0d7d39602052604090205460ff16610ad55760405162461bcd60e51b815260206004820152602860248201527f4d61696e7461696e61626c653a2043616c6c6572206973206e6f742061206d6160448201526734b73a30b4b732b960c11b60648201526084016106fa565b60008111610b2f5760405162461bcd60e51b815260206004820152602160248201527f53756d6d6974416461707465723a204e6f7468696e6720746f207265636f76656044820152603960f91b60648201526084016106fa565b610b436001600160a01b03831633836112af565b816001600160a01b03167f8c1256b8896378cd5044f80c202f9772b9d77dc85c8a6eb51967210b09bfaa2882604051610b7e91815260200190565b60405180910390a25050565b61088c8133610680565b3360009081527fa54247010af6b3693b80aceddfad12e077c5de3571e6243fada502635f0d7d39602052604090205460ff16610c235760405162461bcd60e51b815260206004820152602860248201527f4d61696e7461696e61626c653a2043616c6c6572206973206e6f742061206d6160448201526734b73a30b4b732b960c11b60648201526084016106fa565b60035460ff1615610c60576040517f0dc149f000000000000000000000000000000000000000000000000000000000815260040160405180910390fd5b6003805460ff19166001179055604080517f4e606c470000000000000000000000000000000000000000000000000000000081529051734300000000000000000000000000000000000002918291634e606c479160048082019260009290919082900301818387803b158015610cd557600080fd5b505af1158015610ce9573d6000803e3d6000fd5b50506040517feb8646980000000000000000000000000000000000000000000000000000000081526001600160a01b0385811660048301528416925063eb8646989150602401600060405180830381600087803b158015610d4957600080fd5b505af1158015610d5d573d6000803e3d6000fd5b5050600380546001600160a01b03909516610100027fffffffffffffffffffffff0000000000000000000000000000000000000000ff90951694909417909355505050565b600082815260208190526040902060010154610dbd81610fe3565b61067b838361108b565b61088c7f339759585899103d2ace64958e37e18ccb0504652c81d4a1b8aa80fe2126ab9582610da2565b6040516370a0823160e01b81526001600160a01b038281166004830152600091908416906370a082319060240160206040518083038186803b158015610e3657600080fd5b505afa158015610e4a573d6000803e3d6000fd5b505050506040513d601f19601f82011682018060405250810190610e6e9190611c3f565b9050610e7d86868686866112f8565b6040516370a0823160e01b81526001600160a01b03838116600483015260009183918616906370a082319060240160206040518083038186803b158015610ec357600080fd5b505afa158015610ed7573d6000803e3d6000fd5b505050506040513d601f19601f82011682018060405250810190610efb9190611c3f565b610f059190611e56565b905085811015610f575760405162461bcd60e51b815260206004820152601760248201527f496e73756666696369656e7420616d6f756e742d6f757400000000000000000060448201526064016106fa565b836001600160a01b0316856001600160a01b03167f939010b59d536f8f4cc3cdfe2d1e624dfa5ce6282e0f5a42e8f252c538e29c9a8989604051610fa5929190918252602082015260400190565b60405180910390a350505050505050565b6000610fc3848484611475565b90505b9392505050565b610fd8600082610656565b61088c600033610680565b61088c8133611654565b6000828152602081815260408083206001600160a01b038516845290915290205460ff1661070d576000828152602081815260408083206001600160a01b03851684529091529020805460ff191660011790556110473390565b6001600160a01b0316816001600160a01b0316837f2f8788117e7eff1d82e926ec794901d17c78024a50270940304540a733656f0d60405160405180910390a45050565b6000828152602081815260408083206001600160a01b038516845290915290205460ff161561070d576000828152602081815260408083206001600160a01b0385168085529252808320805460ff1916905551339285917ff6391f5c32d9c69d2a47ea670b442974b53935d1edc7fd64eb21e047a839171b9190a45050565b8015806111ac57506040517fdd62ed3e0000000000000000000000000000000000000000000000000000000081523060048201526001600160a01b03838116602483015284169063dd62ed3e9060440160206040518083038186803b15801561117257600080fd5b505afa158015611186573d6000803e3d6000fd5b505050506040513d601f19601f820116820180604052508101906111aa9190611c3f565b155b61121e5760405162461bcd60e51b815260206004820152603660248201527f5361666545524332303a20617070726f76652066726f6d206e6f6e2d7a65726f60448201527f20746f206e6f6e2d7a65726f20616c6c6f77616e63650000000000000000000060648201526084016106fa565b6040516001600160a01b03831660248201526044810182905261067b9084907f095ea7b300000000000000000000000000000000000000000000000000000000906064015b60408051601f198184030181529190526020810180517bffffffffffffffffffffffffffffffffffffffffffffffffffffffff166001600160e01b0319909316929092179091526116c7565b6040516001600160a01b03831660248201526044810182905261067b9084907fa9059cbb0000000000000000000000000000000000000000000000000000000090606401611263565b60405163e6a4390560e01b81526001600160a01b03848116600483015283811660248301526000917f00000000000000000000000000000000000000000000000000000000000000009091169063e6a439059060440160206040518083038186803b15801561136657600080fd5b505afa15801561137a573d6000803e3d6000fd5b505050506040513d601f19601f8201168201806040525081019061139e9190611aee565b9050600080846001600160a01b0316866001600160a01b0316106113c4578660006113c8565b6000875b90925090506113e16001600160a01b038716848a6112af565b604080516000815260208101918290527f022c0d9f000000000000000000000000000000000000000000000000000000009091526001600160a01b0384169063022c0d9f906114399085908590899060248101611dc7565b600060405180830381600087803b15801561145357600080fd5b505af1158015611467573d6000803e3d6000fd5b505050505050505050505050565b6000816001600160a01b0316836001600160a01b03161480611495575083155b156114a257506000610fc6565b60405163e6a4390560e01b81526001600160a01b03848116600483015283811660248301526000917f00000000000000000000000000000000000000000000000000000000000000009091169063e6a439059060440160206040518083038186803b15801561151057600080fd5b505afa158015611524573d6000803e3d6000fd5b505050506040513d601f19601f820116820180604052508101906115489190611aee565b90506001600160a01b038116611562576000915050610fc6565b600080826001600160a01b0316630902f1ac6040518163ffffffff1660e01b815260040160606040518083038186803b15801561159e57600080fd5b505afa1580156115b2573d6000803e3d6000fd5b505050506040513d601f19601f820116820180604052508101906115d69190611bf1565b506dffffffffffffffffffffffffffff1691506dffffffffffffffffffffffffffff169150600080866001600160a01b0316886001600160a01b03161061161e578284611621565b83835b915091506000821180156116355750600081115b1561164857611645898383611809565b95505b50505050509392505050565b6000828152602081815260408083206001600160a01b038516845290915290205460ff1661070d5761168581611876565b611690836020611888565b6040516020016116a1929190611d33565b60408051601f198184030181529082905262461bcd60e51b82526106fa91600401611db4565b600080836001600160a01b0316836040516116e29190611d17565b6000604051808303816000865af19150503d806000811461171f576040519150601f19603f3d011682016040523d82523d6000602084013e611724565b606091505b5091509150816117765760405162461bcd60e51b815260206004820181905260248201527f5361666545524332303a206c6f772d6c6576656c2063616c6c206661696c656460448201526064016106fa565b80511561180357808060200190518101906117919190611b6d565b6118035760405162461bcd60e51b815260206004820152602a60248201527f5361666545524332303a204552433230206f7065726174696f6e20646964206e60448201527f6f7420737563636565640000000000000000000000000000000000000000000060648201526084016106fa565b50505050565b6000806118367f000000000000000000000000000000000000000000000000000000000000000086611e37565b905060006118448483611e37565b90506000826118556103e888611e37565b61185f9190611dff565b905061186b8183611e17565b979650505050505050565b60606105c26001600160a01b03831660145b60606000611897836002611e37565b6118a2906002611dff565b67ffffffffffffffff8111156118c857634e487b7160e01b600052604160045260246000fd5b6040519080825280601f01601f1916602001820160405280156118f2576020820181803683370190505b5090507f30000000000000000000000000000000000000000000000000000000000000008160008151811061193757634e487b7160e01b600052603260045260246000fd5b60200101906001600160f81b031916908160001a9053507f78000000000000000000000000000000000000000000000000000000000000008160018151811061199057634e487b7160e01b600052603260045260246000fd5b60200101906001600160f81b031916908160001a90535060006119b4846002611e37565b6119bf906001611dff565b90505b6001811115611a60577f303132333435363738396162636465660000000000000000000000000000000085600f1660108110611a0e57634e487b7160e01b600052603260045260246000fd5b1a60f81b828281518110611a3257634e487b7160e01b600052603260045260246000fd5b60200101906001600160f81b031916908160001a90535060049490941c93611a5981611e99565b90506119c2565b508315610fc65760405162461bcd60e51b815260206004820181905260248201527f537472696e67733a20686578206c656e67746820696e73756666696369656e7460448201526064016106fa565b80516dffffffffffffffffffffffffffff81168114611acd57600080fd5b919050565b600060208284031215611ae3578081fd5b8135610fc681611f01565b600060208284031215611aff578081fd5b8151610fc681611f01565b60008060408385031215611b1c578081fd5b8235611b2781611f01565b91506020830135611b3781611f01565b809150509250929050565b60008060408385031215611b54578182fd5b8235611b5f81611f01565b946020939093013593505050565b600060208284031215611b7e578081fd5b81518015158114610fc6578182fd5b600060208284031215611b9e578081fd5b5035919050565b60008060408385031215611bb7578182fd5b823591506020830135611b3781611f01565b600060208284031215611bda578081fd5b81356001600160e01b031981168114610fc6578182fd5b600080600060608486031215611c05578081fd5b611c0e84611aaf565b9250611c1c60208501611aaf565b9150604084015163ffffffff81168114611c34578182fd5b809150509250925092565b600060208284031215611c50578081fd5b5051919050565b600080600060608486031215611c6b578283fd5b833592506020840135611c7d81611f01565b91506040840135611c3481611f01565b600080600080600060a08688031215611ca4578081fd5b85359450602086013593506040860135611cbd81611f01565b92506060860135611ccd81611f01565b91506080860135611cdd81611f01565b809150509295509295909350565b60008151808452611d03816020860160208601611e6d565b601f01601f19169290920160200192915050565b60008251611d29818460208701611e6d565b9190910192915050565b7f416363657373436f6e74726f6c3a206163636f756e7420000000000000000000815260008351611d6b816017850160208801611e6d565b7f206973206d697373696e6720726f6c65200000000000000000000000000000006017918401918201528351611da8816028840160208801611e6d565b01602801949350505050565b602081526000610fc66020830184611ceb565b8481528360208201526001600160a01b0383166040820152608060608201526000611df56080830184611ceb565b9695505050505050565b60008219821115611e1257611e12611eeb565b500190565b600082611e3257634e487b7160e01b81526012600452602481fd5b500490565b6000816000190483118215151615611e5157611e51611eeb565b500290565b600082821015611e6857611e68611eeb565b500390565b60005b83811015611e88578181015183820152602001611e70565b838111156118035750506000910152565b600081611ea857611ea8611eeb565b506000190190565b600181811c90821680611ec457607f821691505b60208210811415611ee557634e487b7160e01b600052602260045260246000fd5b50919050565b634e487b7160e01b600052601160045260246000fd5b6001600160a01b038116811461088c57600080fdfea264697066735822122081797e3d5ec5eb5bfaf16c58df14a53d1f427d82a54c716ca17a8e19f538311664736f6c63430008040033",
  "linkReferences": {},
  "deployedLinkReferences": {}
}