{
  "_format": "hh-sol-artifact-1",
  "contractName": "SummitVolumeAdapterV1",
  "sourceName": "src/contracts/SummitVolumeAdapterV1.sol",
  "abi": [
    {
      "inputs": [],
      "name": "AlreadyInitialized",
      "type": "error"
    },
    {
      "inputs": [],
      "name": "OnlyRouter",
      "type": "error"
    },
    {
      "anonymous": false,
      "inputs": [
        {
          "indexed": true,
          "internalType": "address",
          "name": "_asset",
          "type": "address"
        },
        {
          "indexed": false,
          "internalType": "uint256",
          "name": "amount",
          "type": "uint256"
        }
      ],
      "name": "Recovered",
      "type": "event"
    },
    {
      "anonymous": false,
      "inputs": [
        {
          "indexed": true,
          "internalType": "bytes32",
          "name": "role",
          "type": "bytes32"
        },
        {
          "indexed": true,
          "internalType": "bytes32",
          "name": "previousAdminRole",
          "type": "bytes32"
        },
        {
          "indexed": true,
          "internalType": "bytes32",
          "name": "newAdminRole",
          "type": "bytes32"
        }
      ],
      "name": "RoleAdminChanged",
      "type": "event"
    },
    {
      "anonymous": false,
      "inputs": [
        {
          "indexed": true,
          "internalType": "bytes32",
          "name": "role",
          "type": "bytes32"
        },
        {
          "indexed": true,
          "internalType": "address",
          "name": "account",
          "type": "address"
        },
        {
          "indexed": true,
          "internalType": "address",
          "name": "sender",
          "type": "address"
        }
      ],
      "name": "RoleGranted",
      "type": "event"
    },
    {
      "anonymous": false,
      "inputs": [
        {
          "indexed": true,
          "internalType": "bytes32",
          "name": "role",
          "type": "bytes32"
        },
        {
          "indexed": true,
          "internalType": "address",
          "name": "account",
          "type": "address"
        },
        {
          "indexed": true,
          "internalType": "address",
          "name": "sender",
          "type": "address"
        }
      ],
      "name": "RoleRevoked",
      "type": "event"
    },
    {
      "anonymous": false,
      "inputs": [
        {
          "indexed": true,
          "internalType": "address",
          "name": "_pointsContract",
          "type": "address"
        }
      ],
      "name": "UpdatedPointsContract",
      "type": "event"
    },
    {
      "anonymous": false,
      "inputs": [
        {
          "indexed": true,
          "internalType": "address",
          "name": "_router",
          "type": "address"
        }
      ],
      "name": "UpdatedRouter",
      "type": "event"
    },
    {
      "inputs": [],
      "name": "DEFAULT_ADMIN_ROLE",
      "outputs": [
        {
          "internalType": "bytes32",
          "name": "",
          "type": "bytes32"
        }
      ],
      "stateMutability": "view",
      "type": "function"
    },
    {
      "inputs": [],
      "name": "MAINTAINER_ROLE",
      "outputs": [
        {
          "internalType": "bytes32",
          "name": "",
          "type": "bytes32"
        }
      ],
      "stateMutability": "view",
      "type": "function"
    },
    {
      "inputs": [],
      "name": "POINTS_CONTRACT",
      "outputs": [
        {
          "internalType": "address",
          "name": "",
          "type": "address"
        }
      ],
      "stateMutability": "view",
      "type": "function"
    },
    {
      "inputs": [],
      "name": "ROUTER",
      "outputs": [
        {
          "internalType": "address",
          "name": "",
          "type": "address"
        }
      ],
      "stateMutability": "view",
      "type": "function"
    },
    {
      "inputs": [
        {
          "internalType": "address",
          "name": "_add",
          "type": "address"
        },
        {
          "internalType": "uint256",
          "name": "_volume",
          "type": "uint256"
        }
      ],
      "name": "addAdapterVolume",
      "outputs": [],
      "stateMutability": "nonpayable",
      "type": "function"
    },
    {
      "inputs": [
        {
          "internalType": "address",
          "name": "addedMaintainer",
          "type": "address"
        }
      ],
      "name": "addMaintainer",
      "outputs": [],
      "stateMutability": "nonpayable",
      "type": "function"
    },
    {
      "inputs": [
        {
          "internalType": "address",
          "name": "_add",
          "type": "address"
        },
        {
          "internalType": "uint256",
          "name": "_volume",
          "type": "uint256"
        }
      ],
      "name": "addVolume",
      "outputs": [],
      "stateMutability": "nonpayable",
      "type": "function"
    },
    {
      "inputs": [
        {
          "internalType": "bytes32",
          "name": "role",
          "type": "bytes32"
        }
      ],
      "name": "getRoleAdmin",
      "outputs": [
        {
          "internalType": "bytes32",
          "name": "",
          "type": "bytes32"
        }
      ],
      "stateMutability": "view",
      "type": "function"
    },
    {
      "inputs": [],
      "name": "governor",
      "outputs": [
        {
          "internalType": "address",
          "name": "",
          "type": "address"
        }
      ],
      "stateMutability": "view",
      "type": "function"
    },
    {
      "inputs": [
        {
          "internalType": "bytes32",
          "name": "role",
          "type": "bytes32"
        },
        {
          "internalType": "address",
          "name": "account",
          "type": "address"
        }
      ],
      "name": "grantRole",
      "outputs": [],
      "stateMutability": "nonpayable",
      "type": "function"
    },
    {
      "inputs": [
        {
          "internalType": "bytes32",
          "name": "role",
          "type": "bytes32"
        },
        {
          "internalType": "address",
          "name": "account",
          "type": "address"
        }
      ],
      "name": "hasRole",
      "outputs": [
        {
          "internalType": "bool",
          "name": "",
          "type": "bool"
        }
      ],
      "stateMutability": "view",
      "type": "function"
    },
    {
      "inputs": [
        {
          "internalType": "address",
          "name": "_governor",
          "type": "address"
        }
      ],
      "name": "initialize",
      "outputs": [],
      "stateMutability": "nonpayable",
      "type": "function"
    },
    {
      "inputs": [],
      "name": "initialized",
      "outputs": [
        {
          "internalType": "bool",
          "name": "",
          "type": "bool"
        }
      ],
      "stateMutability": "view",
      "type": "function"
    },
    {
      "inputs": [
        {
          "internalType": "address",
          "name": "_tokenAddress",
          "type": "address"
        },
        {
          "internalType": "uint256",
          "name": "_tokenAmount",
          "type": "uint256"
        }
      ],
      "name": "recoverERC20",
      "outputs": [],
      "stateMutability": "nonpayable",
      "type": "function"
    },
    {
      "inputs": [
        {
          "internalType": "uint256",
          "name": "_amount",
          "type": "uint256"
        }
      ],
      "name": "recoverNATIVE",
      "outputs": [],
      "stateMutability": "nonpayable",
      "type": "function"
    },
    {
      "inputs": [
        {
          "internalType": "address",
          "name": "removedMaintainer",
          "type": "address"
        }
      ],
      "name": "removeMaintainer",
      "outputs": [],
      "stateMutability": "nonpayable",
      "type": "function"
    },
    {
      "inputs": [
        {
          "internalType": "bytes32",
          "name": "role",
          "type": "bytes32"
        },
        {
          "internalType": "address",
          "name": "account",
          "type": "address"
        }
      ],
      "name": "renounceRole",
      "outputs": [],
      "stateMutability": "nonpayable",
      "type": "function"
    },
    {
      "inputs": [
        {
          "internalType": "bytes32",
          "name": "role",
          "type": "bytes32"
        }
      ],
      "name": "renounceRole",
      "outputs": [],
      "stateMutability": "nonpayable",
      "type": "function"
    },
    {
      "inputs": [
        {
          "internalType": "bytes32",
          "name": "role",
          "type": "bytes32"
        },
        {
          "internalType": "address",
          "name": "account",
          "type": "address"
        }
      ],
      "name": "revokeRole",
      "outputs": [],
      "stateMutability": "nonpayable",
      "type": "function"
    },
    {
      "inputs": [
        {
          "internalType": "address",
          "name": "_pointsContract",
          "type": "address"
        }
      ],
      "name": "setPointsContract",
      "outputs": [],
      "stateMutability": "nonpayable",
      "type": "function"
    },
    {
      "inputs": [
        {
          "internalType": "address",
          "name": "_router",
          "type": "address"
        }
      ],
      "name": "setRouter",
      "outputs": [],
      "stateMutability": "nonpayable",
      "type": "function"
    },
    {
      "inputs": [
        {
          "internalType": "bytes4",
          "name": "interfaceId",
          "type": "bytes4"
        }
      ],
      "name": "supportsInterface",
      "outputs": [
        {
          "internalType": "bool",
          "name": "",
          "type": "bool"
        }
      ],
      "stateMutability": "view",
      "type": "function"
    },
    {
      "inputs": [
        {
          "internalType": "address",
          "name": "newOwner",
          "type": "address"
        }
      ],
      "name": "transferOwnership",
      "outputs": [],
      "stateMutability": "nonpayable",
      "type": "function"
    }
  ],
  "bytecode": "0x60806040526002805460ff60a01b1916905534801561001d57600080fd5b50610029600033610058565b6100537f339759585899103d2ace64958e37e18ccb0504652c81d4a1b8aa80fe2126ab9533610058565b610104565b6100628282610066565b5050565b6000828152602081815260408083206001600160a01b038516845290915290205460ff16610062576000828152602081815260408083206001600160a01b03851684529091529020805460ff191660011790556100c03390565b6001600160a01b0316816001600160a01b0316837f2f8788117e7eff1d82e926ec794901d17c78024a50270940304540a733656f0d60405160405180910390a45050565b6115c480620001146000396000f3fe608060405234801561001057600080fd5b506004361061018d5760003560e01c80638bb9c5bf116100e3578063c4d66de81161008c578063d8baf7cf11610066578063d8baf7cf14610375578063f2fde38b14610388578063f87422541461039b57600080fd5b8063c4d66de81461033c578063c9d0529b1461034f578063d547741f1461036257600080fd5b8063a217fddf116100bd578063a217fddf1461030e578063c0d7865514610316578063c2c528201461032957600080fd5b80638bb9c5bf146102b157806391d14854146102c457806395754abb146102fb57600080fd5b80632f2ff15d1161014557806336568abe1161011f57806336568abe146102785780636b453c1f1461028b5780638980f11f1461029e57600080fd5b80632f2ff15d1461023d57806332102e3b1461025257806332fe7b261461026557600080fd5b8063158ef93e11610176578063158ef93e146101e5578063248a9ca3146101f95780632d4c2f931461022a57600080fd5b806301ffc9a7146101925780630c340a24146101ba575b600080fd5b6101a56101a03660046113ee565b6103c2565b60405190151581526020015b60405180910390f35b6003546101cd906001600160a01b031681565b6040516001600160a01b0390911681526020016101b1565b6002546101a590600160a01b900460ff1681565b61021c6102073660046113ab565b60009081526020819052604090206001015490565b6040519081526020016101b1565b6002546101cd906001600160a01b031681565b61025061024b3660046113c3565b61045b565b005b610250610260366004611362565b610485565b6001546101cd906001600160a01b031681565b6102506102863660046113c3565b610548565b610250610299366004611348565b6105d9565b6102506102ac366004611362565b610606565b6102506102bf3660046113ab565b610740565b6101a56102d23660046113c3565b6000918252602082815260408084206001600160a01b0393909316845291905290205460ff1690565b610250610309366004611348565b61074a565b61021c600081565b610250610324366004611348565b61083c565b6102506103373660046113ab565b61092e565b61025061034a366004611348565b610a74565b61025061035d366004611362565b610c9a565b6102506103703660046113c3565b610d2b565b610250610383366004611348565b610d50565b610250610396366004611348565b610d7a565b61021c7f339759585899103d2ace64958e37e18ccb0504652c81d4a1b8aa80fe2126ab9581565b60007fffffffff0000000000000000000000000000000000000000000000000000000082167f7965db0b00000000000000000000000000000000000000000000000000000000148061045557507f01ffc9a7000000000000000000000000000000000000000000000000000000007fffffffff000000000000000000000000000000000000000000000000000000008316145b92915050565b60008281526020819052604090206001015461047681610d90565b6104808383610d9a565b505050565b6001546001600160a01b031633146104b057604051639e41bdd760e01b815260040160405180910390fd5b6002546001600160a01b03166104c4575050565b6002546040517f32102e3b0000000000000000000000000000000000000000000000000000000081526001600160a01b03848116600483015260248201849052909116906332102e3b906044015b600060405180830381600087803b15801561052c57600080fd5b505af1158015610540573d6000803e3d6000fd5b505050505050565b6001600160a01b03811633146105cb5760405162461bcd60e51b815260206004820152602f60248201527f416363657373436f6e74726f6c3a2063616e206f6e6c792072656e6f756e636560448201527f20726f6c657320666f722073656c66000000000000000000000000000000000060648201526084015b60405180910390fd5b6105d58282610e38565b5050565b6106037f339759585899103d2ace64958e37e18ccb0504652c81d4a1b8aa80fe2126ab958261045b565b50565b3360009081527fa54247010af6b3693b80aceddfad12e077c5de3571e6243fada502635f0d7d39602052604090205460ff166106955760405162461bcd60e51b815260206004820152602860248201527f4d61696e7461696e61626c653a2043616c6c6572206973206e6f742061206d6160448201526734b73a30b4b732b960c11b60648201526084016105c2565b600081116106e55760405162461bcd60e51b815260206004820152601260248201527f4e6f7468696e6720746f207265636f766572000000000000000000000000000060448201526064016105c2565b6106f96001600160a01b0383163383610eb7565b816001600160a01b03167f8c1256b8896378cd5044f80c202f9772b9d77dc85c8a6eb51967210b09bfaa288260405161073491815260200190565b60405180910390a25050565b6106038133610548565b3360009081527fa54247010af6b3693b80aceddfad12e077c5de3571e6243fada502635f0d7d39602052604090205460ff166107d95760405162461bcd60e51b815260206004820152602860248201527f4d61696e7461696e61626c653a2043616c6c6572206973206e6f742061206d6160448201526734b73a30b4b732b960c11b60648201526084016105c2565b6040516001600160a01b038216907fc44f7b4fe9d29c078d207864fd556e8b68e1759e3ac4ee9cece99d2ec03c27c690600090a26002805473ffffffffffffffffffffffffffffffffffffffff19166001600160a01b0392909216919091179055565b3360009081527fa54247010af6b3693b80aceddfad12e077c5de3571e6243fada502635f0d7d39602052604090205460ff166108cb5760405162461bcd60e51b815260206004820152602860248201527f4d61696e7461696e61626c653a2043616c6c6572206973206e6f742061206d6160448201526734b73a30b4b732b960c11b60648201526084016105c2565b6040516001600160a01b038216907f66fc0187dfabf79860e1b18e6c175c92baf9ed88c8a01d0bfdb97d1f0450f7f790600090a26001805473ffffffffffffffffffffffffffffffffffffffff19166001600160a01b0392909216919091179055565b3360009081527fa54247010af6b3693b80aceddfad12e077c5de3571e6243fada502635f0d7d39602052604090205460ff166109bd5760405162461bcd60e51b815260206004820152602860248201527f4d61696e7461696e61626c653a2043616c6c6572206973206e6f742061206d6160448201526734b73a30b4b732b960c11b60648201526084016105c2565b60008111610a0d5760405162461bcd60e51b815260206004820152601260248201527f4e6f7468696e6720746f207265636f766572000000000000000000000000000060448201526064016105c2565b604051339082156108fc029083906000818181858888f19350505050158015610a3a573d6000803e3d6000fd5b506040518181526000907f8c1256b8896378cd5044f80c202f9772b9d77dc85c8a6eb51967210b09bfaa289060200160405180910390a250565b3360009081527fa54247010af6b3693b80aceddfad12e077c5de3571e6243fada502635f0d7d39602052604090205460ff16610b035760405162461bcd60e51b815260206004820152602860248201527f4d61696e7461696e61626c653a2043616c6c6572206973206e6f742061206d6160448201526734b73a30b4b732b960c11b60648201526084016105c2565b600254600160a01b900460ff1615610b47576040517f0dc149f000000000000000000000000000000000000000000000000000000000815260040160405180910390fd5b600280547fffffffffffffffffffffff00ffffffffffffffffffffffffffffffffffffffff16600160a01b179055604080517f4e606c470000000000000000000000000000000000000000000000000000000081529051734300000000000000000000000000000000000002918291634e606c479160048082019260009290919082900301818387803b158015610bdd57600080fd5b505af1158015610bf1573d6000803e3d6000fd5b50506040517feb8646980000000000000000000000000000000000000000000000000000000081526001600160a01b0385811660048301528416925063eb8646989150602401600060405180830381600087803b158015610c5157600080fd5b505af1158015610c65573d6000803e3d6000fd5b50506003805473ffffffffffffffffffffffffffffffffffffffff19166001600160a01b039590951694909417909355505050565b6001546001600160a01b03163314610cc557604051639e41bdd760e01b815260040160405180910390fd5b6002546001600160a01b0316610cd9575050565b6002546040517fc9d0529b0000000000000000000000000000000000000000000000000000000081526001600160a01b038481166004830152602482018490529091169063c9d0529b90604401610512565b600082815260208190526040902060010154610d4681610d90565b6104808383610e38565b6106037f339759585899103d2ace64958e37e18ccb0504652c81d4a1b8aa80fe2126ab9582610d2b565b610d8560008261045b565b610603600033610548565b6106038133610f37565b6000828152602081815260408083206001600160a01b038516845290915290205460ff166105d5576000828152602081815260408083206001600160a01b03851684529091529020805460ff19166001179055610df43390565b6001600160a01b0316816001600160a01b0316837f2f8788117e7eff1d82e926ec794901d17c78024a50270940304540a733656f0d60405160405180910390a45050565b6000828152602081815260408083206001600160a01b038516845290915290205460ff16156105d5576000828152602081815260408083206001600160a01b0385168085529252808320805460ff1916905551339285917ff6391f5c32d9c69d2a47ea670b442974b53935d1edc7fd64eb21e047a839171b9190a45050565b604080516001600160a01b038416602482015260448082018490528251808303909101815260649091019091526020810180517bffffffffffffffffffffffffffffffffffffffffffffffffffffffff167fa9059cbb00000000000000000000000000000000000000000000000000000000179052610480908490610faa565b6000828152602081815260408083206001600160a01b038516845290915290205460ff166105d557610f68816110ec565b610f738360206110fe565b604051602001610f8492919061144a565b60408051601f198184030181529082905262461bcd60e51b82526105c2916004016114cb565b600080836001600160a01b031683604051610fc5919061142e565b6000604051808303816000865af19150503d8060008114611002576040519150601f19603f3d011682016040523d82523d6000602084013e611007565b606091505b5091509150816110595760405162461bcd60e51b815260206004820181905260248201527f5361666545524332303a206c6f772d6c6576656c2063616c6c206661696c656460448201526064016105c2565b8051156110e65780806020019051810190611074919061138b565b6110e65760405162461bcd60e51b815260206004820152602a60248201527f5361666545524332303a204552433230206f7065726174696f6e20646964206e60448201527f6f7420737563636565640000000000000000000000000000000000000000000060648201526084016105c2565b50505050565b60606104556001600160a01b03831660145b6060600061110d836002611516565b6111189060026114fe565b67ffffffffffffffff81111561113e57634e487b7160e01b600052604160045260246000fd5b6040519080825280601f01601f191660200182016040528015611168576020820181803683370190505b5090507f3000000000000000000000000000000000000000000000000000000000000000816000815181106111ad57634e487b7160e01b600052603260045260246000fd5b60200101906001600160f81b031916908160001a9053507f78000000000000000000000000000000000000000000000000000000000000008160018151811061120657634e487b7160e01b600052603260045260246000fd5b60200101906001600160f81b031916908160001a905350600061122a846002611516565b6112359060016114fe565b90505b60018111156112d6577f303132333435363738396162636465660000000000000000000000000000000085600f166010811061128457634e487b7160e01b600052603260045260246000fd5b1a60f81b8282815181106112a857634e487b7160e01b600052603260045260246000fd5b60200101906001600160f81b031916908160001a90535060049490941c936112cf81611561565b9050611238565b5083156113255760405162461bcd60e51b815260206004820181905260248201527f537472696e67733a20686578206c656e67746820696e73756666696369656e7460448201526064016105c2565b9392505050565b80356001600160a01b038116811461134357600080fd5b919050565b600060208284031215611359578081fd5b6113258261132c565b60008060408385031215611374578081fd5b61137d8361132c565b946020939093013593505050565b60006020828403121561139c578081fd5b81518015158114611325578182fd5b6000602082840312156113bc578081fd5b5035919050565b600080604083850312156113d5578182fd5b823591506113e56020840161132c565b90509250929050565b6000602082840312156113ff578081fd5b81357fffffffff0000000000000000000000000000000000000000000000000000000081168114611325578182fd5b60008251611440818460208701611535565b9190910192915050565b7f416363657373436f6e74726f6c3a206163636f756e7420000000000000000000815260008351611482816017850160208801611535565b7f206973206d697373696e6720726f6c652000000000000000000000000000000060179184019182015283516114bf816028840160208801611535565b01602801949350505050565b60208152600082518060208401526114ea816040850160208701611535565b601f01601f19169190910160400192915050565b6000821982111561151157611511611578565b500190565b600081600019048311821515161561153057611530611578565b500290565b60005b83811015611550578181015183820152602001611538565b838111156110e65750506000910152565b60008161157057611570611578565b506000190190565b634e487b7160e01b600052601160045260246000fdfea26469706673582212204a24d7a705a768c1c1f44bfa3978205563b4bad58d8498115da6a327ab990caa64736f6c63430008040033",
  "linkReferences": {},
  "deployedLinkReferences": {}
}