{
  "_format": "hh-sol-artifact-1",
  "contractName": "SummitAdmin",
  "sourceName": "src/contracts/SummitAdmin.sol",
  "abi": [
    {
      "inputs": [
        {
          "internalType": "address",
          "name": "_router",
          "type": "address"
        },
        {
          "internalType": "address",
          "name": "_referrals",
          "type": "address"
        },
        {
          "internalType": "address",
          "name": "_points",
          "type": "address"
        }
      ],
      "stateMutability": "nonpayable",
      "type": "constructor"
    },
    {
      "inputs": [],
      "name": "AlreadyInitialized",
      "type": "error"
    },
    {
      "anonymous": false,
      "inputs": [
        {
          "indexed": true,
          "internalType": "bytes32",
          "name": "role",
          "type": "bytes32"
        },
        {
          "indexed": true,
          "internalType": "bytes32",
          "name": "previousAdminRole",
          "type": "bytes32"
        },
        {
          "indexed": true,
          "internalType": "bytes32",
          "name": "newAdminRole",
          "type": "bytes32"
        }
      ],
      "name": "RoleAdminChanged",
      "type": "event"
    },
    {
      "anonymous": false,
      "inputs": [
        {
          "indexed": true,
          "internalType": "bytes32",
          "name": "role",
          "type": "bytes32"
        },
        {
          "indexed": true,
          "internalType": "address",
          "name": "account",
          "type": "address"
        },
        {
          "indexed": true,
          "internalType": "address",
          "name": "sender",
          "type": "address"
        }
      ],
      "name": "RoleGranted",
      "type": "event"
    },
    {
      "anonymous": false,
      "inputs": [
        {
          "indexed": true,
          "internalType": "bytes32",
          "name": "role",
          "type": "bytes32"
        },
        {
          "indexed": true,
          "internalType": "address",
          "name": "account",
          "type": "address"
        },
        {
          "indexed": true,
          "internalType": "address",
          "name": "sender",
          "type": "address"
        }
      ],
      "name": "RoleRevoked",
      "type": "event"
    },
    {
      "inputs": [],
      "name": "DEFAULT_ADMIN_ROLE",
      "outputs": [
        {
          "internalType": "bytes32",
          "name": "",
          "type": "bytes32"
        }
      ],
      "stateMutability": "view",
      "type": "function"
    },
    {
      "inputs": [],
      "name": "MAINTAINER_ROLE",
      "outputs": [
        {
          "internalType": "bytes32",
          "name": "",
          "type": "bytes32"
        }
      ],
      "stateMutability": "view",
      "type": "function"
    },
    {
      "inputs": [
        {
          "internalType": "address",
          "name": "addedMaintainer",
          "type": "address"
        }
      ],
      "name": "addMaintainer",
      "outputs": [],
      "stateMutability": "nonpayable",
      "type": "function"
    },
    {
      "inputs": [
        {
          "internalType": "bytes32",
          "name": "role",
          "type": "bytes32"
        }
      ],
      "name": "getRoleAdmin",
      "outputs": [
        {
          "internalType": "bytes32",
          "name": "",
          "type": "bytes32"
        }
      ],
      "stateMutability": "view",
      "type": "function"
    },
    {
      "inputs": [],
      "name": "governor",
      "outputs": [
        {
          "internalType": "address",
          "name": "",
          "type": "address"
        }
      ],
      "stateMutability": "view",
      "type": "function"
    },
    {
      "inputs": [
        {
          "internalType": "bytes32",
          "name": "role",
          "type": "bytes32"
        },
        {
          "internalType": "address",
          "name": "account",
          "type": "address"
        }
      ],
      "name": "grantRole",
      "outputs": [],
      "stateMutability": "nonpayable",
      "type": "function"
    },
    {
      "inputs": [
        {
          "internalType": "bytes32",
          "name": "role",
          "type": "bytes32"
        },
        {
          "internalType": "address",
          "name": "account",
          "type": "address"
        }
      ],
      "name": "hasRole",
      "outputs": [
        {
          "internalType": "bool",
          "name": "",
          "type": "bool"
        }
      ],
      "stateMutability": "view",
      "type": "function"
    },
    {
      "inputs": [
        {
          "internalType": "address",
          "name": "_governor",
          "type": "address"
        }
      ],
      "name": "initialize",
      "outputs": [],
      "stateMutability": "nonpayable",
      "type": "function"
    },
    {
      "inputs": [],
      "name": "initialized",
      "outputs": [
        {
          "internalType": "bool",
          "name": "",
          "type": "bool"
        }
      ],
      "stateMutability": "view",
      "type": "function"
    },
    {
      "inputs": [],
      "name": "points",
      "outputs": [
        {
          "internalType": "contract ISummitPoints",
          "name": "",
          "type": "address"
        }
      ],
      "stateMutability": "view",
      "type": "function"
    },
    {
      "inputs": [
        {
          "internalType": "address",
          "name": "_add",
          "type": "address"
        },
        {
          "internalType": "uint256",
          "name": "_points",
          "type": "uint256"
        }
      ],
      "name": "points_addAdapterVolume",
      "outputs": [],
      "stateMutability": "nonpayable",
      "type": "function"
    },
    {
      "inputs": [
        {
          "internalType": "address",
          "name": "_add",
          "type": "address"
        },
        {
          "internalType": "uint256",
          "name": "_points",
          "type": "uint256"
        }
      ],
      "name": "points_addVolume",
      "outputs": [],
      "stateMutability": "nonpayable",
      "type": "function"
    },
    {
      "inputs": [
        {
          "internalType": "address",
          "name": "_add",
          "type": "address"
        },
        {
          "internalType": "bool",
          "name": "_blacklisted",
          "type": "bool"
        }
      ],
      "name": "points_setBlacklisted",
      "outputs": [],
      "stateMutability": "nonpayable",
      "type": "function"
    },
    {
      "inputs": [
        {
          "internalType": "uint256",
          "name": "_boost",
          "type": "uint256"
        }
      ],
      "name": "points_setGlobalBoost",
      "outputs": [],
      "stateMutability": "nonpayable",
      "type": "function"
    },
    {
      "inputs": [
        {
          "internalType": "address",
          "name": "_add",
          "type": "address"
        },
        {
          "internalType": "uint256",
          "name": "_points",
          "type": "uint256"
        }
      ],
      "name": "points_summitTeamGivePoints",
      "outputs": [],
      "stateMutability": "nonpayable",
      "type": "function"
    },
    {
      "inputs": [],
      "name": "referrals",
      "outputs": [
        {
          "internalType": "contract ISummitReferrals",
          "name": "",
          "type": "address"
        }
      ],
      "stateMutability": "view",
      "type": "function"
    },
    {
      "inputs": [
        {
          "internalType": "address",
          "name": "_referrer",
          "type": "address"
        },
        {
          "internalType": "uint8",
          "name": "_boostLevel",
          "type": "uint8"
        }
      ],
      "name": "referrals_boostReferrer",
      "outputs": [],
      "stateMutability": "nonpayable",
      "type": "function"
    },
    {
      "inputs": [
        {
          "internalType": "address",
          "name": "_add",
          "type": "address"
        },
        {
          "internalType": "string",
          "name": "_code",
          "type": "string"
        }
      ],
      "name": "referrals_overrideReferralCode",
      "outputs": [],
      "stateMutability": "nonpayable",
      "type": "function"
    },
    {
      "inputs": [
        {
          "internalType": "address",
          "name": "removedMaintainer",
          "type": "address"
        }
      ],
      "name": "removeMaintainer",
      "outputs": [],
      "stateMutability": "nonpayable",
      "type": "function"
    },
    {
      "inputs": [
        {
          "internalType": "bytes32",
          "name": "role",
          "type": "bytes32"
        },
        {
          "internalType": "address",
          "name": "account",
          "type": "address"
        }
      ],
      "name": "renounceRole",
      "outputs": [],
      "stateMutability": "nonpayable",
      "type": "function"
    },
    {
      "inputs": [
        {
          "internalType": "bytes32",
          "name": "role",
          "type": "bytes32"
        }
      ],
      "name": "renounceRole",
      "outputs": [],
      "stateMutability": "nonpayable",
      "type": "function"
    },
    {
      "inputs": [
        {
          "internalType": "bytes32",
          "name": "role",
          "type": "bytes32"
        },
        {
          "internalType": "address",
          "name": "account",
          "type": "address"
        }
      ],
      "name": "revokeRole",
      "outputs": [],
      "stateMutability": "nonpayable",
      "type": "function"
    },
    {
      "inputs": [],
      "name": "router",
      "outputs": [
        {
          "internalType": "contract ISummitRouterExt",
          "name": "",
          "type": "address"
        }
      ],
      "stateMutability": "view",
      "type": "function"
    },
    {
      "inputs": [
        {
          "internalType": "address[]",
          "name": "_tokens",
          "type": "address[]"
        },
        {
          "internalType": "uint256[]",
          "name": "_mults",
          "type": "uint256[]"
        }
      ],
      "name": "router_setTokenBonusMultipliers",
      "outputs": [],
      "stateMutability": "nonpayable",
      "type": "function"
    },
    {
      "inputs": [
        {
          "internalType": "address[]",
          "name": "_tokens",
          "type": "address[]"
        },
        {
          "internalType": "uint256[]",
          "name": "_mults",
          "type": "uint256[]"
        }
      ],
      "name": "router_setTokenVolumeMultipliers",
      "outputs": [],
      "stateMutability": "nonpayable",
      "type": "function"
    },
    {
      "inputs": [
        {
          "internalType": "bytes4",
          "name": "interfaceId",
          "type": "bytes4"
        }
      ],
      "name": "supportsInterface",
      "outputs": [
        {
          "internalType": "bool",
          "name": "",
          "type": "bool"
        }
      ],
      "stateMutability": "view",
      "type": "function"
    },
    {
      "inputs": [
        {
          "internalType": "address",
          "name": "newOwner",
          "type": "address"
        }
      ],
      "name": "transferOwnership",
      "outputs": [],
      "stateMutability": "nonpayable",
      "type": "function"
    }
  ],
  "bytecode": "0x60806040526003805460ff60a01b191690553480156200001e57600080fd5b5060405162001bfa38038062001bfa83398101604081905262000041916200018a565b6200004e600033620000bd565b6200007a7f339759585899103d2ace64958e37e18ccb0504652c81d4a1b8aa80fe2126ab9533620000bd565b600180546001600160a01b039485166001600160a01b031991821617909155600280549385169382169390931790925560038054919093169116179055620001d3565b620000c98282620000cd565b5050565b6000828152602081815260408083206001600160a01b038516845290915290205460ff16620000c9576000828152602081815260408083206001600160a01b03851684529091529020805460ff19166001179055620001293390565b6001600160a01b0316816001600160a01b0316837f2f8788117e7eff1d82e926ec794901d17c78024a50270940304540a733656f0d60405160405180910390a45050565b80516001600160a01b03811681146200018557600080fd5b919050565b6000806000606084860312156200019f578283fd5b620001aa846200016d565b9250620001ba602085016200016d565b9150620001ca604085016200016d565b90509250925092565b611a1780620001e36000396000f3fe608060405234801561001057600080fd5b50600436106101b95760003560e01c806398aa74e7116100f9578063d8baf7cf11610097578063f874225411610071578063f8742254146103da578063f887ea4014610401578063f89c10ac14610414578063fd82e1f21461042757600080fd5b8063d8baf7cf146103a1578063e48a68a1146103b4578063f2fde38b146103c757600080fd5b8063a7575297116100d3578063a757529714610355578063c4d66de814610368578063d3dc75391461037b578063d547741f1461038e57600080fd5b806398aa74e71461032757806399a9ae641461033a578063a217fddf1461034d57600080fd5b806334684a1e116101665780636b453c1f116101405780636b453c1f146102b757806376a692c8146102ca5780638bb9c5bf146102dd57806391d14854146102f057600080fd5b806334684a1e1461027e57806336568abe1461029157806367cf3163146102a457600080fd5b80631be6dd64116101975780631be6dd6414610225578063248a9ca3146102385780632f2ff15d1461026957600080fd5b806301ffc9a7146101be5780630c340a24146101e6578063158ef93e14610211575b600080fd5b6101d16101cc366004611742565b61043a565b60405190151581526020015b60405180910390f35b6004546101f9906001600160a01b031681565b6040516001600160a01b0390911681526020016101dd565b6003546101d190600160a01b900460ff1681565b6003546101f9906001600160a01b031681565b61025b6102463660046116ff565b60009081526020819052604090206001015490565b6040519081526020016101dd565b61027c610277366004611717565b6104d3565b005b61027c61028c3660046115e5565b6104fd565b61027c61029f366004611717565b610615565b61027c6102b236600461160e565b6106a1565b61027c6102c53660046114f1565b610784565b61027c6102d836600461150b565b6107b1565b61027c6102eb3660046116ff565b610893565b6101d16102fe366004611717565b6000918252602082815260408084206001600160a01b0393909316845291905290205460ff1690565b61027c6103353660046115e5565b61089d565b61027c61034836600461163e565b61097e565b61025b600081565b61027c61036336600461163e565b610a58565b61027c6103763660046114f1565b610b32565b6002546101f9906001600160a01b031681565b61027c61039c366004611717565b610d63565b61027c6103af3660046114f1565b610d88565b61027c6103c2366004611545565b610db2565b61027c6103d53660046114f1565b610e8c565b61025b7f339759585899103d2ace64958e37e18ccb0504652c81d4a1b8aa80fe2126ab9581565b6001546101f9906001600160a01b031681565b61027c6104223660046115e5565b610ea2565b61027c6104353660046116ff565b610f83565b60007fffffffff0000000000000000000000000000000000000000000000000000000082167f7965db0b0000000000000000000000000000000000000000000000000000000014806104cd57507f01ffc9a7000000000000000000000000000000000000000000000000000000007fffffffff000000000000000000000000000000000000000000000000000000008316145b92915050565b6000828152602081905260409020600101546104ee8161108c565b6104f88383611096565b505050565b3360009081527fa54247010af6b3693b80aceddfad12e077c5de3571e6243fada502635f0d7d39602052604090205460ff166105915760405162461bcd60e51b815260206004820152602860248201527f4d61696e7461696e61626c653a2043616c6c6572206973206e6f742061206d6160448201526734b73a30b4b732b960c11b60648201526084015b60405180910390fd5b6003546040517fc9d0529b0000000000000000000000000000000000000000000000000000000081526001600160a01b038481166004830152602482018490529091169063c9d0529b906044015b600060405180830381600087803b1580156105f957600080fd5b505af115801561060d573d6000803e3d6000fd5b505050505050565b6001600160a01b03811633146106935760405162461bcd60e51b815260206004820152602f60248201527f416363657373436f6e74726f6c3a2063616e206f6e6c792072656e6f756e636560448201527f20726f6c657320666f722073656c6600000000000000000000000000000000006064820152608401610588565b61069d8282611134565b5050565b3360009081527fa54247010af6b3693b80aceddfad12e077c5de3571e6243fada502635f0d7d39602052604090205460ff166107305760405162461bcd60e51b815260206004820152602860248201527f4d61696e7461696e61626c653a2043616c6c6572206973206e6f742061206d6160448201526734b73a30b4b732b960c11b6064820152608401610588565b6002546040517f4c10fb250000000000000000000000000000000000000000000000000000000081526001600160a01b03848116600483015260ff8416602483015290911690634c10fb25906044016105df565b6107ae7f339759585899103d2ace64958e37e18ccb0504652c81d4a1b8aa80fe2126ab95826104d3565b50565b3360009081527fa54247010af6b3693b80aceddfad12e077c5de3571e6243fada502635f0d7d39602052604090205460ff166108405760405162461bcd60e51b815260206004820152602860248201527f4d61696e7461696e61626c653a2043616c6c6572206973206e6f742061206d6160448201526734b73a30b4b732b960c11b6064820152608401610588565b6003546040517fd01dd6d20000000000000000000000000000000000000000000000000000000081526001600160a01b03848116600483015283151560248301529091169063d01dd6d2906044016105df565b6107ae8133610615565b3360009081527fa54247010af6b3693b80aceddfad12e077c5de3571e6243fada502635f0d7d39602052604090205460ff1661092c5760405162461bcd60e51b815260206004820152602860248201527f4d61696e7461696e61626c653a2043616c6c6572206973206e6f742061206d6160448201526734b73a30b4b732b960c11b6064820152608401610588565b6003546040517f557b18640000000000000000000000000000000000000000000000000000000081526001600160a01b038481166004830152602482018490529091169063557b1864906044016105df565b3360009081527fa54247010af6b3693b80aceddfad12e077c5de3571e6243fada502635f0d7d39602052604090205460ff16610a0d5760405162461bcd60e51b815260206004820152602860248201527f4d61696e7461696e61626c653a2043616c6c6572206973206e6f742061206d6160448201526734b73a30b4b732b960c11b6064820152608401610588565b6001546040517feadb18ff0000000000000000000000000000000000000000000000000000000081526001600160a01b039091169063eadb18ff906105df9085908590600401611859565b3360009081527fa54247010af6b3693b80aceddfad12e077c5de3571e6243fada502635f0d7d39602052604090205460ff16610ae75760405162461bcd60e51b815260206004820152602860248201527f4d61696e7461696e61626c653a2043616c6c6572206973206e6f742061206d6160448201526734b73a30b4b732b960c11b6064820152608401610588565b6001546040517f8d2195ad0000000000000000000000000000000000000000000000000000000081526001600160a01b0390911690638d2195ad906105df9085908590600401611859565b3360009081527fa54247010af6b3693b80aceddfad12e077c5de3571e6243fada502635f0d7d39602052604090205460ff16610bc15760405162461bcd60e51b815260206004820152602860248201527f4d61696e7461696e61626c653a2043616c6c6572206973206e6f742061206d6160448201526734b73a30b4b732b960c11b6064820152608401610588565b600354600160a01b900460ff1615610c05576040517f0dc149f000000000000000000000000000000000000000000000000000000000815260040160405180910390fd5b600380547fffffffffffffffffffffff00ffffffffffffffffffffffffffffffffffffffff16600160a01b179055604080517f4e606c470000000000000000000000000000000000000000000000000000000081529051734300000000000000000000000000000000000002918291634e606c479160048082019260009290919082900301818387803b158015610c9b57600080fd5b505af1158015610caf573d6000803e3d6000fd5b50506040517feb8646980000000000000000000000000000000000000000000000000000000081526001600160a01b0385811660048301528416925063eb8646989150602401600060405180830381600087803b158015610d0f57600080fd5b505af1158015610d23573d6000803e3d6000fd5b5050600480547fffffffffffffffffffffffff0000000000000000000000000000000000000000166001600160a01b039590951694909417909355505050565b600082815260208190526040902060010154610d7e8161108c565b6104f88383611134565b6107ae7f339759585899103d2ace64958e37e18ccb0504652c81d4a1b8aa80fe2126ab9582610d63565b3360009081527fa54247010af6b3693b80aceddfad12e077c5de3571e6243fada502635f0d7d39602052604090205460ff16610e415760405162461bcd60e51b815260206004820152602860248201527f4d61696e7461696e61626c653a2043616c6c6572206973206e6f742061206d6160448201526734b73a30b4b732b960c11b6064820152608401610588565b6002546040517fba32aa150000000000000000000000000000000000000000000000000000000081526001600160a01b039091169063ba32aa15906105df908590859060040161182f565b610e976000826104d3565b6107ae600033610615565b3360009081527fa54247010af6b3693b80aceddfad12e077c5de3571e6243fada502635f0d7d39602052604090205460ff16610f315760405162461bcd60e51b815260206004820152602860248201527f4d61696e7461696e61626c653a2043616c6c6572206973206e6f742061206d6160448201526734b73a30b4b732b960c11b6064820152608401610588565b6003546040517f32102e3b0000000000000000000000000000000000000000000000000000000081526001600160a01b03848116600483015260248201849052909116906332102e3b906044016105df565b3360009081527fa54247010af6b3693b80aceddfad12e077c5de3571e6243fada502635f0d7d39602052604090205460ff166110125760405162461bcd60e51b815260206004820152602860248201527f4d61696e7461696e61626c653a2043616c6c6572206973206e6f742061206d6160448201526734b73a30b4b732b960c11b6064820152608401610588565b6003546040517f50d935c4000000000000000000000000000000000000000000000000000000008152600481018390526001600160a01b03909116906350d935c490602401600060405180830381600087803b15801561107157600080fd5b505af1158015611085573d6000803e3d6000fd5b5050505050565b6107ae81336111b3565b6000828152602081815260408083206001600160a01b038516845290915290205460ff1661069d576000828152602081815260408083206001600160a01b03851684529091529020805460ff191660011790556110f03390565b6001600160a01b0316816001600160a01b0316837f2f8788117e7eff1d82e926ec794901d17c78024a50270940304540a733656f0d60405160405180910390a45050565b6000828152602081815260408083206001600160a01b038516845290915290205460ff161561069d576000828152602081815260408083206001600160a01b0385168085529252808320805460ff1916905551339285917ff6391f5c32d9c69d2a47ea670b442974b53935d1edc7fd64eb21e047a839171b9190a45050565b6000828152602081815260408083206001600160a01b038516845290915290205460ff1661069d576111e481611226565b6111ef836020611238565b6040516020016112009291906117ae565b60408051601f198184030181529082905262461bcd60e51b8252610588916004016118cf565b60606104cd6001600160a01b03831660145b6060600061124783600261194f565b611252906002611937565b67ffffffffffffffff81111561127857634e487b7160e01b600052604160045260246000fd5b6040519080825280601f01601f1916602001820160405280156112a2576020820181803683370190505b5090507f3000000000000000000000000000000000000000000000000000000000000000816000815181106112e757634e487b7160e01b600052603260045260246000fd5b60200101906001600160f81b031916908160001a9053507f78000000000000000000000000000000000000000000000000000000000000008160018151811061134057634e487b7160e01b600052603260045260246000fd5b60200101906001600160f81b031916908160001a905350600061136484600261194f565b61136f906001611937565b90505b6001811115611410577f303132333435363738396162636465660000000000000000000000000000000085600f16601081106113be57634e487b7160e01b600052603260045260246000fd5b1a60f81b8282815181106113e257634e487b7160e01b600052603260045260246000fd5b60200101906001600160f81b031916908160001a90535060049490941c936114098161199e565b9050611372565b50831561145f5760405162461bcd60e51b815260206004820181905260248201527f537472696e67733a20686578206c656e67746820696e73756666696369656e746044820152606401610588565b9392505050565b80356001600160a01b038116811461147d57600080fd5b919050565b600082601f830112611492578081fd5b813560206114a76114a283611913565b6118e2565b80838252828201915082860187848660051b89010111156114c6578586fd5b855b858110156114e4578135845292840192908401906001016114c8565b5090979650505050505050565b600060208284031215611502578081fd5b61145f82611466565b6000806040838503121561151d578081fd5b61152683611466565b91506020830135801515811461153a578182fd5b809150509250929050565b60008060408385031215611557578182fd5b61156083611466565b915060208084013567ffffffffffffffff8082111561157d578384fd5b818601915086601f830112611590578384fd5b8135818111156115a2576115a26119cb565b6115b4601f8201601f191685016118e2565b915080825287848285010111156115c9578485fd5b8084840185840137810190920192909252919491935090915050565b600080604083850312156115f7578182fd5b61160083611466565b946020939093013593505050565b60008060408385031215611620578182fd5b61162983611466565b9150602083013560ff8116811461153a578182fd5b60008060408385031215611650578182fd5b823567ffffffffffffffff80821115611667578384fd5b818501915085601f83011261167a578384fd5b8135602061168a6114a283611913565b8083825282820191508286018a848660051b89010111156116a9578889fd5b8896505b848710156116d2576116be81611466565b8352600196909601959183019183016116ad565b50965050860135925050808211156116e8578283fd5b506116f585828601611482565b9150509250929050565b600060208284031215611710578081fd5b5035919050565b60008060408385031215611729578182fd5b8235915061173960208401611466565b90509250929050565b600060208284031215611753578081fd5b81357fffffffff000000000000000000000000000000000000000000000000000000008116811461145f578182fd5b6000815180845261179a81602086016020860161196e565b601f01601f19169290920160200192915050565b7f416363657373436f6e74726f6c3a206163636f756e74200000000000000000008152600083516117e681601785016020880161196e565b7f206973206d697373696e6720726f6c6520000000000000000000000000000000601791840191820152835161182381602884016020880161196e565b01602801949350505050565b6001600160a01b03831681526040602082015260006118516040830184611782565b949350505050565b604080825283519082018190526000906020906060840190828701845b8281101561189b5781516001600160a01b031684529284019290840190600101611876565b50505083810382850152845180825285830191830190845b818110156114e4578351835292840192918401916001016118b3565b60208152600061145f6020830184611782565b604051601f8201601f1916810167ffffffffffffffff8111828210171561190b5761190b6119cb565b604052919050565b600067ffffffffffffffff82111561192d5761192d6119cb565b5060051b60200190565b6000821982111561194a5761194a6119b5565b500190565b6000816000190483118215151615611969576119696119b5565b500290565b60005b83811015611989578181015183820152602001611971565b83811115611998576000848401525b50505050565b6000816119ad576119ad6119b5565b506000190190565b634e487b7160e01b600052601160045260246000fd5b634e487b7160e01b600052604160045260246000fdfea2646970667358221220065cc5a6c9d426a9ecd59581471e14c9c658f9d57988603340e2238a79059f9564736f6c63430008040033",
  "linkReferences": {},
  "deployedLinkReferences": {}
}