{
	"_format": "hh-sol-artifact-1",
	"contractName": "SummitOracleV2",
	"sourceName": "src/contracts/SummitOracleV2.sol",
	"abi": [
		{
			"inputs": [
				{
					"internalType": "address",
					"name": "_router",
					"type": "address"
				},
				{
					"internalType": "address",
					"name": "_stable",
					"type": "address"
				},
				{
					"internalType": "address",
					"name": "_wNative",
					"type": "address"
				}
			],
			"stateMutability": "nonpayable",
			"type": "constructor"
		},
		{
			"anonymous": false,
			"inputs": [
				{
					"indexed": true,
					"internalType": "address",
					"name": "_asset",
					"type": "address"
				},
				{
					"indexed": false,
					"internalType": "uint256",
					"name": "amount",
					"type": "uint256"
				}
			],
			"name": "Recovered",
			"type": "event"
		},
		{
			"anonymous": false,
			"inputs": [
				{
					"indexed": true,
					"internalType": "bytes32",
					"name": "role",
					"type": "bytes32"
				},
				{
					"indexed": true,
					"internalType": "bytes32",
					"name": "previousAdminRole",
					"type": "bytes32"
				},
				{
					"indexed": true,
					"internalType": "bytes32",
					"name": "newAdminRole",
					"type": "bytes32"
				}
			],
			"name": "RoleAdminChanged",
			"type": "event"
		},
		{
			"anonymous": false,
			"inputs": [
				{
					"indexed": true,
					"internalType": "bytes32",
					"name": "role",
					"type": "bytes32"
				},
				{
					"indexed": true,
					"internalType": "address",
					"name": "account",
					"type": "address"
				},
				{
					"indexed": true,
					"internalType": "address",
					"name": "sender",
					"type": "address"
				}
			],
			"name": "RoleGranted",
			"type": "event"
		},
		{
			"anonymous": false,
			"inputs": [
				{
					"indexed": true,
					"internalType": "bytes32",
					"name": "role",
					"type": "bytes32"
				},
				{
					"indexed": true,
					"internalType": "address",
					"name": "account",
					"type": "address"
				},
				{
					"indexed": true,
					"internalType": "address",
					"name": "sender",
					"type": "address"
				}
			],
			"name": "RoleRevoked",
			"type": "event"
		},
		{
			"inputs": [],
			"name": "DEFAULT_ADMIN_ROLE",
			"outputs": [
				{
					"internalType": "bytes32",
					"name": "",
					"type": "bytes32"
				}
			],
			"stateMutability": "view",
			"type": "function"
		},
		{
			"inputs": [],
			"name": "MAINTAINER_ROLE",
			"outputs": [
				{
					"internalType": "bytes32",
					"name": "",
					"type": "bytes32"
				}
			],
			"stateMutability": "view",
			"type": "function"
		},
		{
			"inputs": [],
			"name": "ROUTER",
			"outputs": [
				{
					"internalType": "contract ISummitRouter",
					"name": "",
					"type": "address"
				}
			],
			"stateMutability": "view",
			"type": "function"
		},
		{
			"inputs": [],
			"name": "STABLE",
			"outputs": [
				{
					"internalType": "contract IERC20",
					"name": "",
					"type": "address"
				}
			],
			"stateMutability": "view",
			"type": "function"
		},
		{
			"inputs": [],
			"name": "WNATIVE",
			"outputs": [
				{
					"internalType": "contract IERC20",
					"name": "",
					"type": "address"
				}
			],
			"stateMutability": "view",
			"type": "function"
		},
		{
			"inputs": [
				{
					"internalType": "address",
					"name": "addedMaintainer",
					"type": "address"
				}
			],
			"name": "addMaintainer",
			"outputs": [],
			"stateMutability": "nonpayable",
			"type": "function"
		},
		{
			"inputs": [
				{
					"internalType": "address",
					"name": "_token",
					"type": "address"
				}
			],
			"name": "getPrice10Stable",
			"outputs": [
				{
					"internalType": "uint256",
					"name": "",
					"type": "uint256"
				}
			],
			"stateMutability": "view",
			"type": "function"
		},
		{
			"inputs": [
				{
					"internalType": "address",
					"name": "_token",
					"type": "address"
				},
				{
					"internalType": "uint256",
					"name": "_nWnative",
					"type": "uint256"
				}
			],
			"name": "getPriceNwNative",
			"outputs": [
				{
					"internalType": "uint256",
					"name": "",
					"type": "uint256"
				}
			],
			"stateMutability": "view",
			"type": "function"
		},
		{
			"inputs": [
				{
					"internalType": "bytes32",
					"name": "role",
					"type": "bytes32"
				}
			],
			"name": "getRoleAdmin",
			"outputs": [
				{
					"internalType": "bytes32",
					"name": "",
					"type": "bytes32"
				}
			],
			"stateMutability": "view",
			"type": "function"
		},
		{
			"inputs": [
				{
					"internalType": "address",
					"name": "_user",
					"type": "address"
				},
				{
					"internalType": "uint256",
					"name": "_amountIn",
					"type": "uint256"
				},
				{
					"internalType": "address",
					"name": "_tokenIn",
					"type": "address"
				},
				{
					"internalType": "address",
					"name": "_tokenOut",
					"type": "address"
				},
				{
					"internalType": "uint256",
					"name": "_maxSteps",
					"type": "uint256"
				},
				{
					"internalType": "uint256",
					"name": "_gasPrice",
					"type": "uint256"
				}
			],
			"name": "getSwapData",
			"outputs": [
				{
					"components": [
						{
							"internalType": "uint256[]",
							"name": "amounts",
							"type": "uint256[]"
						},
						{
							"internalType": "address[]",
							"name": "adapters",
							"type": "address[]"
						},
						{
							"internalType": "address[]",
							"name": "path",
							"type": "address[]"
						},
						{
							"internalType": "uint256",
							"name": "gasEstimate",
							"type": "uint256"
						}
					],
					"internalType": "struct FormattedOffer",
					"name": "offer",
					"type": "tuple"
				},
				{
					"internalType": "uint256",
					"name": "tokenInAllowance",
					"type": "uint256"
				}
			],
			"stateMutability": "view",
			"type": "function"
		},
		{
			"inputs": [
				{
					"internalType": "address",
					"name": "_user",
					"type": "address"
				},
				{
					"internalType": "address",
					"name": "_token",
					"type": "address"
				},
				{
					"internalType": "uint256",
					"name": "_nWnative",
					"type": "uint256"
				}
			],
			"name": "getTokenData",
			"outputs": [
				{
					"components": [
						{
							"internalType": "address",
							"name": "tokenAddress",
							"type": "address"
						},
						{
							"internalType": "string",
							"name": "symbol",
							"type": "string"
						},
						{
							"internalType": "string",
							"name": "name",
							"type": "string"
						},
						{
							"internalType": "uint256",
							"name": "decimals",
							"type": "uint256"
						},
						{
							"internalType": "uint256",
							"name": "bonus",
							"type": "uint256"
						},
						{
							"internalType": "uint256",
							"name": "userBalance",
							"type": "uint256"
						},
						{
							"internalType": "uint256",
							"name": "price",
							"type": "uint256"
						}
					],
					"internalType": "struct SummitOracleV2.TokenData",
					"name": "token",
					"type": "tuple"
				}
			],
			"stateMutability": "view",
			"type": "function"
		},
		{
			"inputs": [
				{
					"internalType": "bytes32",
					"name": "role",
					"type": "bytes32"
				},
				{
					"internalType": "address",
					"name": "account",
					"type": "address"
				}
			],
			"name": "grantRole",
			"outputs": [],
			"stateMutability": "nonpayable",
			"type": "function"
		},
		{
			"inputs": [
				{
					"internalType": "bytes32",
					"name": "role",
					"type": "bytes32"
				},
				{
					"internalType": "address",
					"name": "account",
					"type": "address"
				}
			],
			"name": "hasRole",
			"outputs": [
				{
					"internalType": "bool",
					"name": "",
					"type": "bool"
				}
			],
			"stateMutability": "view",
			"type": "function"
		},
		{
			"inputs": [
				{
					"internalType": "address",
					"name": "_tokenAddress",
					"type": "address"
				},
				{
					"internalType": "uint256",
					"name": "_tokenAmount",
					"type": "uint256"
				}
			],
			"name": "recoverERC20",
			"outputs": [],
			"stateMutability": "nonpayable",
			"type": "function"
		},
		{
			"inputs": [
				{
					"internalType": "uint256",
					"name": "_amount",
					"type": "uint256"
				}
			],
			"name": "recoverNATIVE",
			"outputs": [],
			"stateMutability": "nonpayable",
			"type": "function"
		},
		{
			"inputs": [
				{
					"internalType": "address",
					"name": "removedMaintainer",
					"type": "address"
				}
			],
			"name": "removeMaintainer",
			"outputs": [],
			"stateMutability": "nonpayable",
			"type": "function"
		},
		{
			"inputs": [
				{
					"internalType": "bytes32",
					"name": "role",
					"type": "bytes32"
				},
				{
					"internalType": "address",
					"name": "account",
					"type": "address"
				}
			],
			"name": "renounceRole",
			"outputs": [],
			"stateMutability": "nonpayable",
			"type": "function"
		},
		{
			"inputs": [
				{
					"internalType": "bytes32",
					"name": "role",
					"type": "bytes32"
				}
			],
			"name": "renounceRole",
			"outputs": [],
			"stateMutability": "nonpayable",
			"type": "function"
		},
		{
			"inputs": [
				{
					"internalType": "bytes32",
					"name": "role",
					"type": "bytes32"
				},
				{
					"internalType": "address",
					"name": "account",
					"type": "address"
				}
			],
			"name": "revokeRole",
			"outputs": [],
			"stateMutability": "nonpayable",
			"type": "function"
		},
		{
			"inputs": [
				{
					"internalType": "address",
					"name": "_router",
					"type": "address"
				}
			],
			"name": "setRouter",
			"outputs": [],
			"stateMutability": "nonpayable",
			"type": "function"
		},
		{
			"inputs": [
				{
					"internalType": "address",
					"name": "_stable",
					"type": "address"
				}
			],
			"name": "setStable",
			"outputs": [],
			"stateMutability": "nonpayable",
			"type": "function"
		},
		{
			"inputs": [
				{
					"internalType": "address",
					"name": "_wNative",
					"type": "address"
				}
			],
			"name": "setWNative",
			"outputs": [],
			"stateMutability": "nonpayable",
			"type": "function"
		},
		{
			"inputs": [
				{
					"internalType": "bytes4",
					"name": "interfaceId",
					"type": "bytes4"
				}
			],
			"name": "supportsInterface",
			"outputs": [
				{
					"internalType": "bool",
					"name": "",
					"type": "bool"
				}
			],
			"stateMutability": "view",
			"type": "function"
		},
		{
			"inputs": [
				{
					"internalType": "address",
					"name": "newOwner",
					"type": "address"
				}
			],
			"name": "transferOwnership",
			"outputs": [],
			"stateMutability": "nonpayable",
			"type": "function"
		}
	],
	"bytecode": "0x60806040523480156200001157600080fd5b50604051620023583803806200235883398101604081905262000034916200017d565b62000041600033620000b0565b6200006d7f339759585899103d2ace64958e37e18ccb0504652c81d4a1b8aa80fe2126ab9533620000b0565b600180546001600160a01b039485166001600160a01b031991821617909155600280549385169382169390931790925560038054919093169116179055620001c6565b620000bc8282620000c0565b5050565b6000828152602081815260408083206001600160a01b038516845290915290205460ff16620000bc576000828152602081815260408083206001600160a01b03851684529091529020805460ff191660011790556200011c3390565b6001600160a01b0316816001600160a01b0316837f2f8788117e7eff1d82e926ec794901d17c78024a50270940304540a733656f0d60405160405180910390a45050565b80516001600160a01b03811681146200017857600080fd5b919050565b60008060006060848603121562000192578283fd5b6200019d8462000160565b9250620001ad6020850162000160565b9150620001bd6040850162000160565b90509250925092565b61218280620001d66000396000f3fe608060405234801561001057600080fd5b50600436106101985760003560e01c80639ed9a06d116100e3578063c2c528201161008c578063dba7137611610066578063dba71376146103ad578063f2fde38b146103c0578063f8742254146103d357600080fd5b8063c2c5282014610374578063d547741f14610387578063d8baf7cf1461039a57600080fd5b8063b087ad5a116100bd578063b087ad5a1461033b578063b381cf401461034e578063c0d786551461036157600080fd5b80639ed9a06d146102ff578063a217fddf14610312578063a54bbbb01461031a57600080fd5b806354d9f653116101455780638bb9c5bf1161011f5780638bb9c5bf146102a257806391d14854146102b557806395490c0b146102ec57600080fd5b806354d9f653146102695780636b453c1f1461027c5780638980f11f1461028f57600080fd5b80632f2ff15d116101765780632f2ff15d1461021657806332fe7b261461022b57806336568abe1461025657600080fd5b806301ffc9a71461019d5780630f935b3e146101c5578063248a9ca3146101e5575b600080fd5b6101b06101ab366004611b24565b6103fa565b60405190151581526020015b60405180910390f35b6101d86101d33660046119ee565b610463565b6040516101bc9190611e8c565b6102086101f3366004611add565b60009081526020819052604090206001015490565b6040519081526020016101bc565b610229610224366004611af5565b610533565b005b60015461023e906001600160a01b031681565b6040516001600160a01b0390911681526020016101bc565b610229610264366004611af5565b61055d565b60025461023e906001600160a01b031681565b61022961028a3660046119d2565b6105ee565b61022961029d366004611a2e565b61061b565b6102296102b0366004611add565b610755565b6101b06102c3366004611af5565b6000918252602082815260408084206001600160a01b0393909316845291905290205460ff1690565b6102296102fa3660046119d2565b61075f565b61020861030d366004611a2e565b61081d565b610208600081565b61032d610328366004611a59565b610919565b6040516101bc929190611df0565b6102086103493660046119d2565b610a88565b60035461023e906001600160a01b031681565b61022961036f3660046119d2565b610c06565b610229610382366004611add565b610cc4565b610229610395366004611af5565b610e0a565b6102296103a83660046119d2565b610e2f565b6102296103bb3660046119d2565b610e59565b6102296103ce3660046119d2565b610f17565b6102087f339759585899103d2ace64958e37e18ccb0504652c81d4a1b8aa80fe2126ab9581565b60006001600160e01b031982167f7965db0b00000000000000000000000000000000000000000000000000000000148061045d57507f01ffc9a7000000000000000000000000000000000000000000000000000000006001600160e01b03198316145b92915050565b6104ac6040518060e0016040528060006001600160a01b031681526020016060815260200160608152602001600081526020016000815260200160008152602001600081525090565b6040518060e00160405280846001600160a01b031681526020016104cf85610f2d565b81526020016104dd85610fd7565b81526020016104eb85611034565b60ff1681526020016104fc856110c1565b815260200161050b868661116f565b81526020016000841161051f576000610529565b610529858561081d565b9052949350505050565b60008281526020819052604090206001015461054e81611238565b6105588383611242565b505050565b6001600160a01b03811633146105e05760405162461bcd60e51b815260206004820152602f60248201527f416363657373436f6e74726f6c3a2063616e206f6e6c792072656e6f756e636560448201527f20726f6c657320666f722073656c66000000000000000000000000000000000060648201526084015b60405180910390fd5b6105ea82826112e0565b5050565b6106187f339759585899103d2ace64958e37e18ccb0504652c81d4a1b8aa80fe2126ab9582610533565b50565b3360009081527fa54247010af6b3693b80aceddfad12e077c5de3571e6243fada502635f0d7d39602052604090205460ff166106aa5760405162461bcd60e51b815260206004820152602860248201527f4d61696e7461696e61626c653a2043616c6c6572206973206e6f742061206d6160448201526734b73a30b4b732b960c11b60648201526084016105d7565b600081116106fa5760405162461bcd60e51b815260206004820152601260248201527f4e6f7468696e6720746f207265636f766572000000000000000000000000000060448201526064016105d7565b61070e6001600160a01b038316338361135f565b816001600160a01b03167f8c1256b8896378cd5044f80c202f9772b9d77dc85c8a6eb51967210b09bfaa288260405161074991815260200190565b60405180910390a25050565b610618813361055d565b3360009081527fa54247010af6b3693b80aceddfad12e077c5de3571e6243fada502635f0d7d39602052604090205460ff166107ee5760405162461bcd60e51b815260206004820152602860248201527f4d61696e7461696e61626c653a2043616c6c6572206973206e6f742061206d6160448201526734b73a30b4b732b960c11b60648201526084016105d7565b6003805473ffffffffffffffffffffffffffffffffffffffff19166001600160a01b0392909216919091179055565b60006001600160a01b038316158061084257506003546001600160a01b038481169116145b1561084e57508061045d565b600154600380546040517f4c09cf4e000000000000000000000000000000000000000000000000000000008152600481018690526001600160a01b0391821660248201528682166044820152606481019290925290911690634c09cf4e9060840160006040518083038186803b1580156108c757600080fd5b505afa9250505080156108fc57506040513d6000823e601f3d908101601f191682016040526108f99190810190611bdc565b60015b6109085750600061045d565b610911816113df565b91505061045d565b6109446040518060800160405280606081526020016060815260200160608152602001600081525090565b6001546000906001600160a01b039081169063061b15e790899089161561096b5788610978565b6003546001600160a01b03165b6001600160a01b0389161561098d578861099a565b6003546001600160a01b03165b6040516001600160e01b031960e086901b16815260048101939093526001600160a01b039182166024840152166044820152606481018790526084810186905260a40160006040518083038186803b1580156109f557600080fd5b505afa158015610a09573d6000803e3d6000fd5b505050506040513d6000823e601f3d908101601f19168201604052610a319190810190611bdc565b6020810151519092506000915015610a7d57610a7a88878460200151600081518110610a6d57634e487b7160e01b600052603260045260246000fd5b6020026020010151611420565b90505b965096945050505050565b600154600254604080517f313ce56700000000000000000000000000000000000000000000000000000000815290516000936001600160a01b0390811693634c09cf4e9391169163313ce56791600480820192602092909190829003018186803b158015610af557600080fd5b505afa158015610b09573d6000803e3d6000fd5b505050506040513d601f19601f82011682018060405250810190610b2d9190611cb0565b610b3890600a611fe7565b6002546001600160a01b0390811690861615610b545785610b61565b6003546001600160a01b03165b6040516001600160e01b031960e086901b16815260048101939093526001600160a01b0391821660248401521660448201526003606482015260840160006040518083038186803b158015610bb557600080fd5b505afa925050508015610bea57506040513d6000823e601f3d908101601f19168201604052610be79190810190611bdc565b60015b610bf657506000919050565b610bff816113df565b9392505050565b3360009081527fa54247010af6b3693b80aceddfad12e077c5de3571e6243fada502635f0d7d39602052604090205460ff16610c955760405162461bcd60e51b815260206004820152602860248201527f4d61696e7461696e61626c653a2043616c6c6572206973206e6f742061206d6160448201526734b73a30b4b732b960c11b60648201526084016105d7565b6001805473ffffffffffffffffffffffffffffffffffffffff19166001600160a01b0392909216919091179055565b3360009081527fa54247010af6b3693b80aceddfad12e077c5de3571e6243fada502635f0d7d39602052604090205460ff16610d535760405162461bcd60e51b815260206004820152602860248201527f4d61696e7461696e61626c653a2043616c6c6572206973206e6f742061206d6160448201526734b73a30b4b732b960c11b60648201526084016105d7565b60008111610da35760405162461bcd60e51b815260206004820152601260248201527f4e6f7468696e6720746f207265636f766572000000000000000000000000000060448201526064016105d7565b604051339082156108fc029083906000818181858888f19350505050158015610dd0573d6000803e3d6000fd5b506040518181526000907f8c1256b8896378cd5044f80c202f9772b9d77dc85c8a6eb51967210b09bfaa289060200160405180910390a250565b600082815260208190526040902060010154610e2581611238565b61055883836112e0565b6106187f339759585899103d2ace64958e37e18ccb0504652c81d4a1b8aa80fe2126ab9582610e0a565b3360009081527fa54247010af6b3693b80aceddfad12e077c5de3571e6243fada502635f0d7d39602052604090205460ff16610ee85760405162461bcd60e51b815260206004820152602860248201527f4d61696e7461696e61626c653a2043616c6c6572206973206e6f742061206d6160448201526734b73a30b4b732b960c11b60648201526084016105d7565b6002805473ffffffffffffffffffffffffffffffffffffffff19166001600160a01b0392909216919091179055565b610f22600082610533565b61061860003361055d565b60606001600160a01b038216610f5157505060408051602081019091526000815290565b816001600160a01b03166395d89b416040518163ffffffff1660e01b815260040160006040518083038186803b158015610f8a57600080fd5b505afa925050508015610fbf57506040513d6000823e601f3d908101601f19168201604052610fbc9190810190611b4c565b60015b61045d57505060408051602081019091526000815290565b60606001600160a01b038216610ffb57505060408051602081019091526000815290565b816001600160a01b03166306fdde036040518163ffffffff1660e01b815260040160006040518083038186803b158015610f8a57600080fd5b60006001600160a01b03821661104c57506012919050565b816001600160a01b031663313ce5676040518163ffffffff1660e01b815260040160206040518083038186803b15801561108557600080fd5b505afa9250505080156110b5575060408051601f3d908101601f191682019092526110b291810190611cb0565b60015b61045d57506012919050565b60006001600160a01b0382166110d957506000919050565b6001546040517f9217a8aa0000000000000000000000000000000000000000000000000000000081526001600160a01b03848116600483015290911690639217a8aa9060240160206040518083038186803b15801561113757600080fd5b505afa15801561114b573d6000803e3d6000fd5b505050506040513d601f19601f8201168201806040525081019061045d9190611c98565b60006001600160a01b0383166111875750600061045d565b6001600160a01b0382166111a657506001600160a01b0382163161045d565b6040517f70a082310000000000000000000000000000000000000000000000000000000081526001600160a01b0384811660048301528316906370a082319060240160206040518083038186803b15801561120057600080fd5b505afa158015611214573d6000803e3d6000fd5b505050506040513d601f19601f82011682018060405250810190610bff9190611c98565b610618813361150f565b6000828152602081815260408083206001600160a01b038516845290915290205460ff166105ea576000828152602081815260408083206001600160a01b03851684529091529020805460ff1916600117905561129c3390565b6001600160a01b0316816001600160a01b0316837f2f8788117e7eff1d82e926ec794901d17c78024a50270940304540a733656f0d60405160405180910390a45050565b6000828152602081815260408083206001600160a01b038516845290915290205460ff16156105ea576000828152602081815260408083206001600160a01b0385168085529252808320805460ff1916905551339285917ff6391f5c32d9c69d2a47ea670b442974b53935d1edc7fd64eb21e047a839171b9190a45050565b604080516001600160a01b038416602482015260448082018490528251808303909101815260649091019091526020810180517bffffffffffffffffffffffffffffffffffffffffffffffffffffffff167fa9059cbb00000000000000000000000000000000000000000000000000000000179052610558908490611582565b80518051600091906113f3906001906120b1565b8151811061141157634e487b7160e01b600052603260045260246000fd5b60200260200101519050919050565b60006001600160a01b03841661143857506000610bff565b6001600160a01b03831661145757506001600160a01b03831631610bff565b6001600160a01b03821661146d57506000610bff565b6040517fdd62ed3e0000000000000000000000000000000000000000000000000000000081526001600160a01b038581166004830152838116602483015284169063dd62ed3e9060440160206040518083038186803b1580156114cf57600080fd5b505afa1580156114e3573d6000803e3d6000fd5b505050506040513d601f19601f820116820180604052508101906115079190611c98565b949350505050565b6000828152602081815260408083206001600160a01b038516845290915290205460ff166105ea57611540816116c4565b61154b8360206116d6565b60405160200161155c929190611d5c565b60408051601f198184030181529082905262461bcd60e51b82526105d791600401611ddd565b600080836001600160a01b03168360405161159d9190611d40565b6000604051808303816000865af19150503d80600081146115da576040519150601f19603f3d011682016040523d82523d6000602084013e6115df565b606091505b5091509150816116315760405162461bcd60e51b815260206004820181905260248201527f5361666545524332303a206c6f772d6c6576656c2063616c6c206661696c656460448201526064016105d7565b8051156116be578080602001905181019061164c9190611abd565b6116be5760405162461bcd60e51b815260206004820152602a60248201527f5361666545524332303a204552433230206f7065726174696f6e20646964206e60448201527f6f7420737563636565640000000000000000000000000000000000000000000060648201526084016105d7565b50505050565b606061045d6001600160a01b03831660145b606060006116e5836002612092565b6116f0906002611f8c565b67ffffffffffffffff81111561171657634e487b7160e01b600052604160045260246000fd5b6040519080825280601f01601f191660200182016040528015611740576020820181803683370190505b5090507f30000000000000000000000000000000000000000000000000000000000000008160008151811061178557634e487b7160e01b600052603260045260246000fd5b60200101906001600160f81b031916908160001a9053507f7800000000000000000000000000000000000000000000000000000000000000816001815181106117de57634e487b7160e01b600052603260045260246000fd5b60200101906001600160f81b031916908160001a9053506000611802846002612092565b61180d906001611f8c565b90505b60018111156118ae577f303132333435363738396162636465660000000000000000000000000000000085600f166010811061185c57634e487b7160e01b600052603260045260246000fd5b1a60f81b82828151811061188057634e487b7160e01b600052603260045260246000fd5b60200101906001600160f81b031916908160001a90535060049490941c936118a7816120f4565b9050611810565b508315610bff5760405162461bcd60e51b815260206004820181905260248201527f537472696e67733a20686578206c656e67746820696e73756666696369656e7460448201526064016105d7565b600082601f83011261190d578081fd5b8151602061192261191d83611f68565b611f37565b80838252828201915082860187848660051b8901011115611941578586fd5b855b8581101561196857815161195681612137565b84529284019290840190600101611943565b5090979650505050505050565b600082601f830112611985578081fd5b8151602061199561191d83611f68565b80838252828201915082860187848660051b89010111156119b4578586fd5b855b85811015611968578151845292840192908401906001016119b6565b6000602082840312156119e3578081fd5b8135610bff81612137565b600080600060608486031215611a02578182fd5b8335611a0d81612137565b92506020840135611a1d81612137565b929592945050506040919091013590565b60008060408385031215611a40578182fd5b8235611a4b81612137565b946020939093013593505050565b60008060008060008060c08789031215611a71578182fd5b8635611a7c81612137565b9550602087013594506040870135611a9381612137565b93506060870135611aa381612137565b9598949750929560808101359460a0909101359350915050565b600060208284031215611ace578081fd5b81518015158114610bff578182fd5b600060208284031215611aee578081fd5b5035919050565b60008060408385031215611b07578182fd5b823591506020830135611b1981612137565b809150509250929050565b600060208284031215611b35578081fd5b81356001600160e01b031981168114610bff578182fd5b600060208284031215611b5d578081fd5b815167ffffffffffffffff80821115611b74578283fd5b818401915084601f830112611b87578283fd5b815181811115611b9957611b99612121565b611bac601f8201601f1916602001611f37565b9150808252856020828501011115611bc2578384fd5b611bd38160208401602086016120c8565b50949350505050565b600060208284031215611bed578081fd5b815167ffffffffffffffff80821115611c04578283fd5b9083019060808286031215611c17578283fd5b611c1f611f0e565b825182811115611c2d578485fd5b611c3987828601611975565b825250602083015182811115611c4d578485fd5b611c59878286016118fd565b602083015250604083015182811115611c70578485fd5b611c7c878286016118fd565b6040830152506060830151606082015280935050505092915050565b600060208284031215611ca9578081fd5b5051919050565b600060208284031215611cc1578081fd5b815160ff81168114610bff578182fd5b6000815180845260208085019450808401835b83811015611d095781516001600160a01b031687529582019590820190600101611ce4565b509495945050505050565b60008151808452611d2c8160208601602086016120c8565b601f01601f19169290920160200192915050565b60008251611d528184602087016120c8565b9190910192915050565b7f416363657373436f6e74726f6c3a206163636f756e7420000000000000000000815260008351611d948160178501602088016120c8565b7f206973206d697373696e6720726f6c65200000000000000000000000000000006017918401918201528351611dd18160288401602088016120c8565b01602801949350505050565b602081526000610bff6020830184611d14565b60408152600060c0820184516080604085015281815180845260e086019150602093508383019250845b81811015611e3657835183529284019291840191600101611e1a565b5050828701519150603f1980868303016060870152611e558284611cd1565b9250604088015191508086840301608087015250611e738282611cd1565b6060979097015160a08601525050909101919091525090565b602081526001600160a01b0382511660208201526000602083015160e06040840152611ebc610100840182611d14565b90506040840151601f19848303016060850152611ed98282611d14565b91505060608401516080840152608084015160a084015260a084015160c084015260c084015160e08401528091505092915050565b6040516080810167ffffffffffffffff81118282101715611f3157611f31612121565b60405290565b604051601f8201601f1916810167ffffffffffffffff81118282101715611f6057611f60612121565b604052919050565b600067ffffffffffffffff821115611f8257611f82612121565b5060051b60200190565b60008219821115611f9f57611f9f61210b565b500190565b600181815b80851115611fdf578160001904821115611fc557611fc561210b565b80851615611fd257918102915b93841c9390800290611fa9565b509250929050565b6000610bff60ff8416836000826120005750600161045d565b8161200d5750600061045d565b8160018114612023576002811461202d57612049565b600191505061045d565b60ff84111561203e5761203e61210b565b50506001821b61045d565b5060208310610133831016604e8410600b841016171561206c575081810a61045d565b6120768383611fa4565b806000190482111561208a5761208a61210b565b029392505050565b60008160001904831182151516156120ac576120ac61210b565b500290565b6000828210156120c3576120c361210b565b500390565b60005b838110156120e35781810151838201526020016120cb565b838111156116be5750506000910152565b6000816121035761210361210b565b506000190190565b634e487b7160e01b600052601160045260246000fd5b634e487b7160e01b600052604160045260246000fd5b6001600160a01b038116811461061857600080fdfea264697066735822122030787f80e6e317087f3573a52a168897f77b8db1dd9fe58b54381b922a20c1f364736f6c63430008040033",
	"linkReferences": {},
	"deployedLinkReferences": {}
}