{
  "_format": "hh-sol-artifact-1",
  "contractName": "UniswapV3Adapter",
  "sourceName": "src/contracts/adapters/UniswapV3Adapter.sol",
  "abi": [
    {
      "inputs": [
        {
          "internalType": "string",
          "name": "_name",
          "type": "string"
        },
        {
          "internalType": "uint256",
          "name": "_swapGasEstimate",
          "type": "uint256"
        },
        {
          "internalType": "uint256",
          "name": "_quoterGasLimit",
          "type": "uint256"
        },
        {
          "internalType": "address",
          "name": "_quoter",
          "type": "address"
        },
        {
          "internalType": "address",
          "name": "_factory",
          "type": "address"
        },
        {
          "internalType": "uint24[]",
          "name": "_defaultFees",
          "type": "uint24[]"
        }
      ],
      "stateMutability": "nonpayable",
      "type": "constructor"
    },
    {
      "inputs": [],
      "name": "AlreadyInitialized",
      "type": "error"
    },
    {
      "anonymous": false,
      "inputs": [
        {
          "indexed": true,
          "internalType": "address",
          "name": "_asset",
          "type": "address"
        },
        {
          "indexed": false,
          "internalType": "uint256",
          "name": "amount",
          "type": "uint256"
        }
      ],
      "name": "Recovered",
      "type": "event"
    },
    {
      "anonymous": false,
      "inputs": [
        {
          "indexed": true,
          "internalType": "bytes32",
          "name": "role",
          "type": "bytes32"
        },
        {
          "indexed": true,
          "internalType": "bytes32",
          "name": "previousAdminRole",
          "type": "bytes32"
        },
        {
          "indexed": true,
          "internalType": "bytes32",
          "name": "newAdminRole",
          "type": "bytes32"
        }
      ],
      "name": "RoleAdminChanged",
      "type": "event"
    },
    {
      "anonymous": false,
      "inputs": [
        {
          "indexed": true,
          "internalType": "bytes32",
          "name": "role",
          "type": "bytes32"
        },
        {
          "indexed": true,
          "internalType": "address",
          "name": "account",
          "type": "address"
        },
        {
          "indexed": true,
          "internalType": "address",
          "name": "sender",
          "type": "address"
        }
      ],
      "name": "RoleGranted",
      "type": "event"
    },
    {
      "anonymous": false,
      "inputs": [
        {
          "indexed": true,
          "internalType": "bytes32",
          "name": "role",
          "type": "bytes32"
        },
        {
          "indexed": true,
          "internalType": "address",
          "name": "account",
          "type": "address"
        },
        {
          "indexed": true,
          "internalType": "address",
          "name": "sender",
          "type": "address"
        }
      ],
      "name": "RoleRevoked",
      "type": "event"
    },
    {
      "anonymous": false,
      "inputs": [
        {
          "indexed": true,
          "internalType": "address",
          "name": "_tokenFrom",
          "type": "address"
        },
        {
          "indexed": true,
          "internalType": "address",
          "name": "_tokenTo",
          "type": "address"
        },
        {
          "indexed": false,
          "internalType": "uint256",
          "name": "_amountIn",
          "type": "uint256"
        },
        {
          "indexed": false,
          "internalType": "uint256",
          "name": "_amountOut",
          "type": "uint256"
        }
      ],
      "name": "SummitAdapterSwap",
      "type": "event"
    },
    {
      "anonymous": false,
      "inputs": [
        {
          "indexed": true,
          "internalType": "address",
          "name": "_adapter",
          "type": "address"
        },
        {
          "indexed": false,
          "internalType": "uint256",
          "name": "_newEstimate",
          "type": "uint256"
        }
      ],
      "name": "UpdatedGasEstimate",
      "type": "event"
    },
    {
      "inputs": [],
      "name": "DEFAULT_ADMIN_ROLE",
      "outputs": [
        {
          "internalType": "bytes32",
          "name": "",
          "type": "bytes32"
        }
      ],
      "stateMutability": "view",
      "type": "function"
    },
    {
      "inputs": [],
      "name": "MAINTAINER_ROLE",
      "outputs": [
        {
          "internalType": "bytes32",
          "name": "",
          "type": "bytes32"
        }
      ],
      "stateMutability": "view",
      "type": "function"
    },
    {
      "inputs": [
        {
          "internalType": "address",
          "name": "addedMaintainer",
          "type": "address"
        }
      ],
      "name": "addMaintainer",
      "outputs": [],
      "stateMutability": "nonpayable",
      "type": "function"
    },
    {
      "inputs": [
        {
          "internalType": "uint24[]",
          "name": "_amounts",
          "type": "uint24[]"
        }
      ],
      "name": "enableFeeAmounts",
      "outputs": [],
      "stateMutability": "nonpayable",
      "type": "function"
    },
    {
      "inputs": [
        {
          "internalType": "uint256",
          "name": "",
          "type": "uint256"
        }
      ],
      "name": "feeAmounts",
      "outputs": [
        {
          "internalType": "uint24",
          "name": "",
          "type": "uint24"
        }
      ],
      "stateMutability": "view",
      "type": "function"
    },
    {
      "inputs": [
        {
          "internalType": "address",
          "name": "pool",
          "type": "address"
        },
        {
          "internalType": "int256",
          "name": "amountIn",
          "type": "int256"
        },
        {
          "internalType": "address",
          "name": "tokenIn",
          "type": "address"
        },
        {
          "internalType": "address",
          "name": "tokenOut",
          "type": "address"
        }
      ],
      "name": "getQuoteForPool",
      "outputs": [
        {
          "internalType": "uint256",
          "name": "",
          "type": "uint256"
        }
      ],
      "stateMutability": "view",
      "type": "function"
    },
    {
      "inputs": [
        {
          "internalType": "bytes32",
          "name": "role",
          "type": "bytes32"
        }
      ],
      "name": "getRoleAdmin",
      "outputs": [
        {
          "internalType": "bytes32",
          "name": "",
          "type": "bytes32"
        }
      ],
      "stateMutability": "view",
      "type": "function"
    },
    {
      "inputs": [],
      "name": "governor",
      "outputs": [
        {
          "internalType": "address",
          "name": "",
          "type": "address"
        }
      ],
      "stateMutability": "view",
      "type": "function"
    },
    {
      "inputs": [
        {
          "internalType": "bytes32",
          "name": "role",
          "type": "bytes32"
        },
        {
          "internalType": "address",
          "name": "account",
          "type": "address"
        }
      ],
      "name": "grantRole",
      "outputs": [],
      "stateMutability": "nonpayable",
      "type": "function"
    },
    {
      "inputs": [
        {
          "internalType": "bytes32",
          "name": "role",
          "type": "bytes32"
        },
        {
          "internalType": "address",
          "name": "account",
          "type": "address"
        }
      ],
      "name": "hasRole",
      "outputs": [
        {
          "internalType": "bool",
          "name": "",
          "type": "bool"
        }
      ],
      "stateMutability": "view",
      "type": "function"
    },
    {
      "inputs": [
        {
          "internalType": "address",
          "name": "_governor",
          "type": "address"
        }
      ],
      "name": "initialize",
      "outputs": [],
      "stateMutability": "nonpayable",
      "type": "function"
    },
    {
      "inputs": [],
      "name": "initialized",
      "outputs": [
        {
          "internalType": "bool",
          "name": "",
          "type": "bool"
        }
      ],
      "stateMutability": "view",
      "type": "function"
    },
    {
      "inputs": [
        {
          "internalType": "uint24",
          "name": "",
          "type": "uint24"
        }
      ],
      "name": "isFeeAmountEnabled",
      "outputs": [
        {
          "internalType": "bool",
          "name": "",
          "type": "bool"
        }
      ],
      "stateMutability": "view",
      "type": "function"
    },
    {
      "inputs": [],
      "name": "name",
      "outputs": [
        {
          "internalType": "string",
          "name": "",
          "type": "string"
        }
      ],
      "stateMutability": "view",
      "type": "function"
    },
    {
      "inputs": [
        {
          "internalType": "uint256",
          "name": "_amountIn",
          "type": "uint256"
        },
        {
          "internalType": "address",
          "name": "_tokenIn",
          "type": "address"
        },
        {
          "internalType": "address",
          "name": "_tokenOut",
          "type": "address"
        }
      ],
      "name": "query",
      "outputs": [
        {
          "internalType": "uint256",
          "name": "",
          "type": "uint256"
        }
      ],
      "stateMutability": "view",
      "type": "function"
    },
    {
      "inputs": [],
      "name": "quoter",
      "outputs": [
        {
          "internalType": "address",
          "name": "",
          "type": "address"
        }
      ],
      "stateMutability": "view",
      "type": "function"
    },
    {
      "inputs": [],
      "name": "quoterGasLimit",
      "outputs": [
        {
          "internalType": "uint256",
          "name": "",
          "type": "uint256"
        }
      ],
      "stateMutability": "view",
      "type": "function"
    },
    {
      "inputs": [
        {
          "internalType": "uint256",
          "name": "_amount",
          "type": "uint256"
        }
      ],
      "name": "recoverAVAX",
      "outputs": [],
      "stateMutability": "nonpayable",
      "type": "function"
    },
    {
      "inputs": [
        {
          "internalType": "address",
          "name": "_tokenAddress",
          "type": "address"
        },
        {
          "internalType": "uint256",
          "name": "_tokenAmount",
          "type": "uint256"
        }
      ],
      "name": "recoverERC20",
      "outputs": [],
      "stateMutability": "nonpayable",
      "type": "function"
    },
    {
      "inputs": [
        {
          "internalType": "address",
          "name": "removedMaintainer",
          "type": "address"
        }
      ],
      "name": "removeMaintainer",
      "outputs": [],
      "stateMutability": "nonpayable",
      "type": "function"
    },
    {
      "inputs": [
        {
          "internalType": "bytes32",
          "name": "role",
          "type": "bytes32"
        },
        {
          "internalType": "address",
          "name": "account",
          "type": "address"
        }
      ],
      "name": "renounceRole",
      "outputs": [],
      "stateMutability": "nonpayable",
      "type": "function"
    },
    {
      "inputs": [
        {
          "internalType": "bytes32",
          "name": "role",
          "type": "bytes32"
        }
      ],
      "name": "renounceRole",
      "outputs": [],
      "stateMutability": "nonpayable",
      "type": "function"
    },
    {
      "inputs": [
        {
          "internalType": "address",
          "name": "_token",
          "type": "address"
        },
        {
          "internalType": "address",
          "name": "_spender",
          "type": "address"
        }
      ],
      "name": "revokeAllowance",
      "outputs": [],
      "stateMutability": "nonpayable",
      "type": "function"
    },
    {
      "inputs": [
        {
          "internalType": "bytes32",
          "name": "role",
          "type": "bytes32"
        },
        {
          "internalType": "address",
          "name": "account",
          "type": "address"
        }
      ],
      "name": "revokeRole",
      "outputs": [],
      "stateMutability": "nonpayable",
      "type": "function"
    },
    {
      "inputs": [
        {
          "internalType": "address",
          "name": "newQuoter",
          "type": "address"
        }
      ],
      "name": "setQuoter",
      "outputs": [],
      "stateMutability": "nonpayable",
      "type": "function"
    },
    {
      "inputs": [
        {
          "internalType": "uint256",
          "name": "newLimit",
          "type": "uint256"
        }
      ],
      "name": "setQuoterGasLimit",
      "outputs": [],
      "stateMutability": "nonpayable",
      "type": "function"
    },
    {
      "inputs": [
        {
          "internalType": "uint256",
          "name": "_estimate",
          "type": "uint256"
        }
      ],
      "name": "setSwapGasEstimate",
      "outputs": [],
      "stateMutability": "nonpayable",
      "type": "function"
    },
    {
      "inputs": [
        {
          "internalType": "bytes4",
          "name": "interfaceId",
          "type": "bytes4"
        }
      ],
      "name": "supportsInterface",
      "outputs": [
        {
          "internalType": "bool",
          "name": "",
          "type": "bool"
        }
      ],
      "stateMutability": "view",
      "type": "function"
    },
    {
      "inputs": [
        {
          "internalType": "uint256",
          "name": "_amountIn",
          "type": "uint256"
        },
        {
          "internalType": "uint256",
          "name": "_amountOut",
          "type": "uint256"
        },
        {
          "internalType": "address",
          "name": "_fromToken",
          "type": "address"
        },
        {
          "internalType": "address",
          "name": "_toToken",
          "type": "address"
        },
        {
          "internalType": "address",
          "name": "_to",
          "type": "address"
        }
      ],
      "name": "swap",
      "outputs": [],
      "stateMutability": "nonpayable",
      "type": "function"
    },
    {
      "inputs": [],
      "name": "swapGasEstimate",
      "outputs": [
        {
          "internalType": "uint256",
          "name": "",
          "type": "uint256"
        }
      ],
      "stateMutability": "view",
      "type": "function"
    },
    {
      "inputs": [
        {
          "internalType": "address",
          "name": "newOwner",
          "type": "address"
        }
      ],
      "name": "transferOwnership",
      "outputs": [],
      "stateMutability": "nonpayable",
      "type": "function"
    },
    {
      "inputs": [
        {
          "internalType": "int256",
          "name": "amount0Delta",
          "type": "int256"
        },
        {
          "internalType": "int256",
          "name": "amount1Delta",
          "type": "int256"
        },
        {
          "internalType": "bytes",
          "name": "",
          "type": "bytes"
        }
      ],
      "name": "uniswapV3SwapCallback",
      "outputs": [],
      "stateMutability": "nonpayable",
      "type": "function"
    },
    {
      "stateMutability": "payable",
      "type": "receive"
    }
  ],
  "bytecode": "0x60a06040526003805460ff191690553480156200001b57600080fd5b5060405162003434380380620034348339810160408190526200003e9162000671565b8585858585858585848683836200005760003362000136565b620000837f339759585899103d2ace64958e37e18ccb0504652c81d4a1b8aa80fe2126ab953362000136565b6200008e8262000146565b6200009981620001af565b50620000a7905081620002aa565b620000b2826200036d565b5050506001600160601b0319606084901b166080525060005b815181101562000123576200010e828281518110620000fa57634e487b7160e01b600052603260045260246000fd5b6020026020010151620003fe60201b60201c565b806200011a81620007f7565b915050620000cb565b5050505050505050505050505062000835565b62000142828262000472565b5050565b80516200019a5760405162461bcd60e51b815260206004820152601460248201527f496e76616c69642061646170746572206e616d6500000000000000000000000060448201526064015b60405180910390fd5b80516200014290600290602084019062000512565b336000908152600080516020620033f4833981519152602052604090205460ff166200021e5760405162461bcd60e51b815260206004820152602860248201526000805160206200341483398151915260448201526734b73a30b4b732b960c11b606482015260840162000191565b806200026d5760405162461bcd60e51b815260206004820152601460248201527f496e76616c6964206761732d657374696d617465000000000000000000000000604482015260640162000191565b600181905560405181815230907ff43f23b7a28e6f8ce6843a21bd7b48bce778aa913b8c8cf459edf7d770e8d38a9060200160405180910390a250565b336000908152600080516020620033f4833981519152602052604090205460ff16620003195760405162461bcd60e51b815260206004820152602860248201526000805160206200341483398151915260448201526734b73a30b4b732b960c11b606482015260840162000191565b80620003685760405162461bcd60e51b815260206004820152601b60248201527f71756572794761734c696d69742063616e2774206265207a65726f0000000000604482015260640162000191565b600455565b336000908152600080516020620033f4833981519152602052604090205460ff16620003dc5760405162461bcd60e51b815260206004820152602860248201526000805160206200341483398151915260448201526734b73a30b4b732b960c11b606482015260840162000191565b600580546001600160a01b0319166001600160a01b0392909216919091179055565b62ffffff9081166000818152600660205260408120805460ff19166001908117909155600780549182018155909152600a8082047fa66cc928b5edb82af9bd49922954155ab7b0942694bea4ce44661d9a8736c688018054600392909306919091026101000a928302929093021916179055565b6000828152602081815260408083206001600160a01b038516845290915290205460ff1662000142576000828152602081815260408083206001600160a01b03851684529091529020805460ff19166001179055620004ce3390565b6001600160a01b0316816001600160a01b0316837f2f8788117e7eff1d82e926ec794901d17c78024a50270940304540a733656f0d60405160405180910390a45050565b8280546200052090620007ba565b90600052602060002090601f0160209004810192826200054457600085556200058f565b82601f106200055f57805160ff19168380011785556200058f565b828001600101855582156200058f579182015b828111156200058f57825182559160200191906001019062000572565b506200059d929150620005a1565b5090565b5b808211156200059d5760008155600101620005a2565b80516001600160a01b0381168114620005d057600080fd5b919050565b600082601f830112620005e6578081fd5b815160206001600160401b038211156200060457620006046200081f565b8160051b6200061582820162000787565b83815282810190868401838801850189101562000630578687fd5b8693505b858410156200066557805162ffffff8116811462000650578788fd5b83526001939093019291840191840162000634565b50979650505050505050565b60008060008060008060c087890312156200068a578182fd5b86516001600160401b0380821115620006a1578384fd5b818901915089601f830112620006b5578384fd5b815181811115620006ca57620006ca6200081f565b6020620006e0601f8301601f1916820162000787565b8281528c82848701011115620006f4578687fd5b865b8381101562000713578581018301518282018401528201620006f6565b838111156200072457878385840101525b50908b015160408c0151919a509850965062000745905060608a01620005b8565b94506200075560808a01620005b8565b935060a08901519150808211156200076b578283fd5b506200077a89828a01620005d5565b9150509295509295509295565b604051601f8201601f191681016001600160401b0381118282101715620007b257620007b26200081f565b604052919050565b600181811c90821680620007cf57607f821691505b60208210811415620007f157634e487b7160e01b600052602260045260246000fd5b50919050565b60006000198214156200081857634e487b7160e01b81526011600452602481fd5b5060010190565b634e487b7160e01b600052604160045260246000fd5b60805160601c612b996200085b60003960008181611820015261233c0152612b996000f3fe6080604052600436106101e75760003560e01c80638bb9c5bf11610102578063d8baf7cf11610095578063f35c4d4511610064578063f35c4d45146105ea578063f87422541461060a578063f912c64b1461063e578063fa461e331461065e57600080fd5b8063d8baf7cf1461056a578063eab90da61461058a578063ef99893a146105aa578063f2fde38b146105ca57600080fd5b8063c4d66de8116100d1578063c4d66de8146104da578063c6bbd5a7146104fa578063ce62f6c41461051a578063d547741f1461054a57600080fd5b80638bb9c5bf1461042d57806391d148541461044d578063a217fddf14610491578063a2e64137146104a657600080fd5b806336568abe1161017a57806373ec15661161014957806373ec1566146103ad5780637ae26773146103cd57806384a33e63146103ed5780638980f11f1461040d57600080fd5b806336568abe146103375780634ebb79161461035757806369cff80d146103775780636b453c1f1461038d57600080fd5b8063158ef93e116101b6578063158ef93e146102b5578063248a9ca3146102cf5780632bc857a0146102ff5780632f2ff15d1461031557600080fd5b806301ffc9a7146101f357806305e3f4dc1461022857806306fdde03146102565780630c340a241461027857600080fd5b366101ee57005b600080fd5b3480156101ff57600080fd5b5061021361020e3660046126c7565b61067e565b60405190151581526020015b60405180910390f35b34801561023457600080fd5b5061024861024336600461257e565b6106e7565b60405190815260200161021f565b34801561026257600080fd5b5061026b610728565b60405161021f91906129bb565b34801561028457600080fd5b5060035461029d9061010090046001600160a01b031681565b6040516001600160a01b03909116815260200161021f565b3480156102c157600080fd5b506003546102139060ff1681565b3480156102db57600080fd5b506102486102ea36600461268b565b60009081526020819052604090206001015490565b34801561030b57600080fd5b5061024860045481565b34801561032157600080fd5b506103356103303660046126a3565b6107b6565b005b34801561034357600080fd5b506103356103523660046126a3565b6107e0565b34801561036357600080fd5b5061033561037236600461268b565b610871565b34801561038357600080fd5b5061024860015481565b34801561039957600080fd5b506103356103a836600461250e565b6109c2565b3480156103b957600080fd5b506103356103c83660046125fb565b6109ef565b3480156103d957600080fd5b506103356103e8366004612546565b610ad6565b3480156103f957600080fd5b5061033561040836600461268b565b610b7a565b34801561041957600080fd5b506103356104283660046125d0565b610c8d565b34801561043957600080fd5b5061033561044836600461268b565b610dd1565b34801561045957600080fd5b506102136104683660046126a3565b6000918252602082815260408084206001600160a01b0393909316845291905290205460ff1690565b34801561049d57600080fd5b50610248600081565b3480156104b257600080fd5b506104c66104c136600461268b565b610ddb565b60405162ffffff909116815260200161021f565b3480156104e657600080fd5b506103356104f536600461250e565b610e14565b34801561050657600080fd5b5060055461029d906001600160a01b031681565b34801561052657600080fd5b506102136105353660046127de565b60066020526000908152604090205460ff1681565b34801561055657600080fd5b506103356105653660046126a3565b611022565b34801561057657600080fd5b5061033561058536600461250e565b611047565b34801561059657600080fd5b506103356105a536600461285a565b611071565b3480156105b657600080fd5b506102486105c5366004612819565b611236565b3480156105d657600080fd5b506103356105e536600461250e565b61124b565b3480156105f657600080fd5b5061033561060536600461268b565b611261565b34801561061657600080fd5b506102487f339759585899103d2ace64958e37e18ccb0504652c81d4a1b8aa80fe2126ab9581565b34801561064a57600080fd5b5061033561065936600461250e565b611342565b34801561066a57600080fd5b50610335610679366004612733565b61140b565b60006001600160e01b031982167f7965db0b0000000000000000000000000000000000000000000000000000000014806106e157507f01ffc9a7000000000000000000000000000000000000000000000000000000006001600160e01b03198316145b92915050565b604080516080810182526000606082018190529181018590526001600160a01b0384811682528316602082015261071e8682611608565b9695505050505050565b6002805461073590612ab2565b80601f016020809104026020016040519081016040528092919081815260200182805461076190612ab2565b80156107ae5780601f10610783576101008083540402835291602001916107ae565b820191906000526020600020905b81548152906001019060200180831161079157829003601f168201915b505050505081565b6000828152602081905260409020600101546107d181611661565b6107db838361166b565b505050565b6001600160a01b03811633146108635760405162461bcd60e51b815260206004820152602f60248201527f416363657373436f6e74726f6c3a2063616e206f6e6c792072656e6f756e636560448201527f20726f6c657320666f722073656c66000000000000000000000000000000000060648201526084015b60405180910390fd5b61086d8282611709565b5050565b3360009081527fa54247010af6b3693b80aceddfad12e077c5de3571e6243fada502635f0d7d39602052604090205460ff166109005760405162461bcd60e51b815260206004820152602860248201527f4d61696e7461696e61626c653a2043616c6c6572206973206e6f742061206d6160448201526734b73a30b4b732b960c11b606482015260840161085a565b6000811161095a5760405162461bcd60e51b815260206004820152602160248201527f53756d6d6974416461707465723a204e6f7468696e6720746f207265636f76656044820152603960f91b606482015260840161085a565b604051339082156108fc029083906000818181858888f19350505050158015610987573d6000803e3d6000fd5b506040518181526000907f8c1256b8896378cd5044f80c202f9772b9d77dc85c8a6eb51967210b09bfaa28906020015b60405180910390a250565b6109ec7f339759585899103d2ace64958e37e18ccb0504652c81d4a1b8aa80fe2126ab95826107b6565b50565b3360009081527fa54247010af6b3693b80aceddfad12e077c5de3571e6243fada502635f0d7d39602052604090205460ff16610a7e5760405162461bcd60e51b815260206004820152602860248201527f4d61696e7461696e61626c653a2043616c6c6572206973206e6f742061206d6160448201526734b73a30b4b732b960c11b606482015260840161085a565b60005b818110156107db57610ac6838383818110610aac57634e487b7160e01b600052603260045260246000fd5b9050602002016020810190610ac191906127de565b611788565b610acf81612ae7565b9050610a81565b3360009081527fa54247010af6b3693b80aceddfad12e077c5de3571e6243fada502635f0d7d39602052604090205460ff16610b655760405162461bcd60e51b815260206004820152602860248201527f4d61696e7461696e61626c653a2043616c6c6572206973206e6f742061206d6160448201526734b73a30b4b732b960c11b606482015260840161085a565b61086d6001600160a01b038316826000611969565b3360009081527fa54247010af6b3693b80aceddfad12e077c5de3571e6243fada502635f0d7d39602052604090205460ff16610c095760405162461bcd60e51b815260206004820152602860248201527f4d61696e7461696e61626c653a2043616c6c6572206973206e6f742061206d6160448201526734b73a30b4b732b960c11b606482015260840161085a565b80610c565760405162461bcd60e51b815260206004820152601460248201527f496e76616c6964206761732d657374696d617465000000000000000000000000604482015260640161085a565b600181905560405181815230907ff43f23b7a28e6f8ce6843a21bd7b48bce778aa913b8c8cf459edf7d770e8d38a906020016109b7565b3360009081527fa54247010af6b3693b80aceddfad12e077c5de3571e6243fada502635f0d7d39602052604090205460ff16610d1c5760405162461bcd60e51b815260206004820152602860248201527f4d61696e7461696e61626c653a2043616c6c6572206973206e6f742061206d6160448201526734b73a30b4b732b960c11b606482015260840161085a565b60008111610d765760405162461bcd60e51b815260206004820152602160248201527f53756d6d6974416461707465723a204e6f7468696e6720746f207265636f76656044820152603960f91b606482015260840161085a565b610d8a6001600160a01b0383163383611b0e565b816001600160a01b03167f8c1256b8896378cd5044f80c202f9772b9d77dc85c8a6eb51967210b09bfaa2882604051610dc591815260200190565b60405180910390a25050565b6109ec81336107e0565b60078181548110610deb57600080fd5b90600052602060002090600a9182820401919006600302915054906101000a900462ffffff1681565b3360009081527fa54247010af6b3693b80aceddfad12e077c5de3571e6243fada502635f0d7d39602052604090205460ff16610ea35760405162461bcd60e51b815260206004820152602860248201527f4d61696e7461696e61626c653a2043616c6c6572206973206e6f742061206d6160448201526734b73a30b4b732b960c11b606482015260840161085a565b60035460ff1615610ee0576040517f0dc149f000000000000000000000000000000000000000000000000000000000815260040160405180910390fd5b6003805460ff19166001179055604080517f4e606c470000000000000000000000000000000000000000000000000000000081529051734300000000000000000000000000000000000002918291634e606c479160048082019260009290919082900301818387803b158015610f5557600080fd5b505af1158015610f69573d6000803e3d6000fd5b50506040517feb8646980000000000000000000000000000000000000000000000000000000081526001600160a01b0385811660048301528416925063eb8646989150602401600060405180830381600087803b158015610fc957600080fd5b505af1158015610fdd573d6000803e3d6000fd5b5050600380546001600160a01b03909516610100027fffffffffffffffffffffff0000000000000000000000000000000000000000ff90951694909417909355505050565b60008281526020819052604090206001015461103d81611661565b6107db8383611709565b6109ec7f339759585899103d2ace64958e37e18ccb0504652c81d4a1b8aa80fe2126ab9582611022565b6040516370a0823160e01b81526001600160a01b038281166004830152600091908416906370a082319060240160206040518083038186803b1580156110b657600080fd5b505afa1580156110ca573d6000803e3d6000fd5b505050506040513d601f19601f820116820180604052508101906110ee9190612801565b90506110fd8686868686611b3e565b6040516370a0823160e01b81526001600160a01b03838116600483015260009183918616906370a082319060240160206040518083038186803b15801561114357600080fd5b505afa158015611157573d6000803e3d6000fd5b505050506040513d601f19601f8201168201806040525081019061117b9190612801565b6111859190612a58565b9050858110156111d75760405162461bcd60e51b815260206004820152601760248201527f496e73756666696369656e7420616d6f756e742d6f7574000000000000000000604482015260640161085a565b836001600160a01b0316856001600160a01b03167f939010b59d536f8f4cc3cdfe2d1e624dfa5ce6282e0f5a42e8f252c538e29c9a8989604051611225929190918252602082015260400190565b60405180910390a350505050505050565b6000611243848484611c08565b949350505050565b6112566000826107b6565b6109ec6000336107e0565b3360009081527fa54247010af6b3693b80aceddfad12e077c5de3571e6243fada502635f0d7d39602052604090205460ff166112f05760405162461bcd60e51b815260206004820152602860248201527f4d61696e7461696e61626c653a2043616c6c6572206973206e6f742061206d6160448201526734b73a30b4b732b960c11b606482015260840161085a565b8061133d5760405162461bcd60e51b815260206004820152601b60248201527f71756572794761734c696d69742063616e2774206265207a65726f0000000000604482015260640161085a565b600455565b3360009081527fa54247010af6b3693b80aceddfad12e077c5de3571e6243fada502635f0d7d39602052604090205460ff166113d15760405162461bcd60e51b815260206004820152602860248201527f4d61696e7461696e61626c653a2043616c6c6572206973206e6f742061206d6160448201526734b73a30b4b732b960c11b606482015260840161085a565b600580547fffffffffffffffffffffffff0000000000000000000000000000000000000000166001600160a01b0392909216919091179055565b600084131561150d57336001600160a01b0316630dfe16816040518163ffffffff1660e01b815260040160206040518083038186803b15801561144d57600080fd5b505afa158015611461573d6000803e3d6000fd5b505050506040513d601f19601f82011682018060405250810190611485919061252a565b60405163a9059cbb60e01b8152336004820152602481018690526001600160a01b03919091169063a9059cbb90604401602060405180830381600087803b1580156114cf57600080fd5b505af11580156114e3573d6000803e3d6000fd5b505050506040513d601f19601f82011682018060405250810190611507919061266b565b50611602565b336001600160a01b031663d21220a76040518163ffffffff1660e01b815260040160206040518083038186803b15801561154657600080fd5b505afa15801561155a573d6000803e3d6000fd5b505050506040513d601f19601f8201168201806040525081019061157e919061252a565b60405163a9059cbb60e01b8152336004820152602481018590526001600160a01b03919091169063a9059cbb90604401602060405180830381600087803b1580156115c857600080fd5b505af11580156115dc573d6000803e3d6000fd5b505050506040513d601f19601f82011682018060405250810190611600919061266b565b505b50505050565b600080600061161f84600001518560200151611c66565b915091506000806116368785886040015186611cb9565b915091508361164d5761164882612b02565b611656565b61165681612b02565b979650505050505050565b6109ec8133611d82565b6000828152602081815260408083206001600160a01b038516845290915290205460ff1661086d576000828152602081815260408083206001600160a01b03851684529091529020805460ff191660011790556116c53390565b6001600160a01b0316816001600160a01b0316837f2f8788117e7eff1d82e926ec794901d17c78024a50270940304540a733656f0d60405160405180910390a45050565b6000828152602081815260408083206001600160a01b038516845290915290205460ff161561086d576000828152602081815260408083206001600160a01b0385168085529252808320805460ff1916905551339285917ff6391f5c32d9c69d2a47ea670b442974b53935d1edc7fd64eb21e047a839171b9190a45050565b62ffffff811660009081526006602052604090205460ff16156117ed5760405162461bcd60e51b815260206004820152601360248201527f46656520616c726561647920656e61626c656400000000000000000000000000604482015260640161085a565b6040517f22afcccb00000000000000000000000000000000000000000000000000000000815262ffffff821660048201527f00000000000000000000000000000000000000000000000000000000000000006001600160a01b0316906322afcccb9060240160206040518083038186803b15801561186a57600080fd5b505afa15801561187e573d6000803e3d6000fd5b505050506040513d601f19601f820116820180604052508101906118a291906126ef565b60020b6118f15760405162461bcd60e51b815260206004820152601b60248201527f466163746f727920646f65736e277420737570706f7274206665650000000000604482015260640161085a565b6109ec8162ffffff9081166000818152600660205260408120805460ff19166001908117909155600780549182018155909152600a8082047fa66cc928b5edb82af9bd49922954155ab7b0942694bea4ce44661d9a8736c688018054600392909306919091026101000a928302929093021916179055565b801580611a0b57506040517fdd62ed3e0000000000000000000000000000000000000000000000000000000081523060048201526001600160a01b03838116602483015284169063dd62ed3e9060440160206040518083038186803b1580156119d157600080fd5b505afa1580156119e5573d6000803e3d6000fd5b505050506040513d601f19601f82011682018060405250810190611a099190612801565b155b611a7d5760405162461bcd60e51b815260206004820152603660248201527f5361666545524332303a20617070726f76652066726f6d206e6f6e2d7a65726f60448201527f20746f206e6f6e2d7a65726f20616c6c6f77616e636500000000000000000000606482015260840161085a565b6040516001600160a01b0383166024820152604481018290526107db9084907f095ea7b300000000000000000000000000000000000000000000000000000000906064015b60408051601f198184030181529190526020810180517bffffffffffffffffffffffffffffffffffffffffffffffffffffffff166001600160e01b031990931692909217909152611df5565b6040516001600160a01b0383166024820152604481018290526107db90849063a9059cbb60e01b90606401611ac2565b6040805160808082018352600080835260208084018290528385018290526060938401829052845192830185526001600160a01b0388811684528716838201528285018a905292820181905283518181529283019093529190611ba2908390611f31565b905085811015611bf45760405162461bcd60e51b815260206004820152601660248201527f496e73756666696369656e7420616d6f756e744f757400000000000000000000604482015260640161085a565b611bff848285612019565b50505050505050565b6040805160808082018352600080835260208084018290528385018290526060938401829052845192830185526001600160a01b038088168452861690830152928101869052908101829052611c5d8161203d565b95945050505050565b6001600160a01b0380821690831610600081611ca057611c9b600173fffd8963efd1fc6a506488495d951d5263988d26612a30565b611cb0565b611cb06401000276a360016129ce565b90509250929050565b6040516001600160a01b038086166024830152841515604483015260648201849052821660848201526000908190819060a40160408051601f198184030181529190526020810180517bffffffffffffffffffffffffffffffffffffffffffffffffffffffff167f90405d36000000000000000000000000000000000000000000000000000000001790529050600080611d5283612076565b915091508115611d765780806020019051810190611d709190612710565b90955093505b50505094509492505050565b6000828152602081815260408083206001600160a01b038516845290915290205460ff1661086d57611db3816120e8565b611dbe8360206120fa565b604051602001611dcf929190612900565b60408051601f198184030181529082905262461bcd60e51b825261085a916004016129bb565b600080836001600160a01b031683604051611e1091906128e4565b6000604051808303816000865af19150503d8060008114611e4d576040519150601f19603f3d011682016040523d82523d6000602084013e611e52565b606091505b509150915081611ea45760405162461bcd60e51b815260206004820181905260248201527f5361666545524332303a206c6f772d6c6576656c2063616c6c206661696c6564604482015260640161085a565b8051156116025780806020019051810190611ebf919061266b565b6116025760405162461bcd60e51b815260206004820152602a60248201527f5361666545524332303a204552433230206f7065726174696f6e20646964206e60448201527f6f74207375636365656400000000000000000000000000000000000000000000606482015260840161085a565b600080611f4684600001518560200151612328565b9050600080611f5d86600001518760200151611c66565b91509150600080846001600160a01b031663128acb0830868b60400151878c6040518663ffffffff1660e01b8152600401611f9c959493929190612981565b6040805180830381600087803b158015611fb557600080fd5b505af1158015611fc9573d6000803e3d6000fd5b505050506040513d601f19601f82011682018060405250810190611fed9190612710565b915091508361200457611fff82612b02565b61200d565b61200d81612b02565b98975050505050505050565b306001600160a01b038216146107db576107db6001600160a01b0384168284611b0e565b60008061205283600001518460200151612328565b90506001600160a01b038116156120705761206d8184611608565b91505b50919050565b6005546004546040516000926060926001600160a01b039091169161209c9086906128e4565b6000604051808303818686fa925050503d80600081146120d8576040519150601f19603f3d011682016040523d82523d6000602084013e6120dd565b606091505b509094909350915050565b60606106e16001600160a01b03831660145b60606000612109836002612a11565b6121149060026129f9565b67ffffffffffffffff81111561213a57634e487b7160e01b600052604160045260246000fd5b6040519080825280601f01601f191660200182016040528015612164576020820181803683370190505b5090507f3000000000000000000000000000000000000000000000000000000000000000816000815181106121a957634e487b7160e01b600052603260045260246000fd5b60200101906001600160f81b031916908160001a9053507f78000000000000000000000000000000000000000000000000000000000000008160018151811061220257634e487b7160e01b600052603260045260246000fd5b60200101906001600160f81b031916908160001a9053506000612226846002612a11565b6122319060016129f9565b90505b60018111156122d2577f303132333435363738396162636465660000000000000000000000000000000085600f166010811061228057634e487b7160e01b600052603260045260246000fd5b1a60f81b8282815181106122a457634e487b7160e01b600052603260045260246000fd5b60200101906001600160f81b031916908160001a90535060049490941c936122cb81612a9b565b9050612234565b5083156123215760405162461bcd60e51b815260206004820181905260248201527f537472696e67733a20686578206c656e67746820696e73756666696369656e74604482015260640161085a565b9392505050565b60008060005b6007548110156125065760007f00000000000000000000000000000000000000000000000000000000000000006001600160a01b0316631698ee8287876007868154811061238c57634e487b7160e01b600052603260045260246000fd5b60009182526020909120600a8083049091015460405160e087901b6001600160e01b03191681526001600160a01b03958616600482015293909416602484015290066003026101000a90910462ffffff16604482015260640160206040518083038186803b1580156123fd57600080fd5b505afa158015612411573d6000803e3d6000fd5b505050506040513d601f19601f82011682018060405250810190612435919061252a565b90506001600160a01b03811661244b57506124f6565b6000816001600160a01b0316631a6865026040518163ffffffff1660e01b815260040160206040518083038186803b15801561248657600080fd5b505afa15801561249a573d6000803e3d6000fd5b505050506040513d601f19601f820116820180604052508101906124be91906127ae565b9050836fffffffffffffffffffffffffffffffff16816fffffffffffffffffffffffffffffffff1611156124f3578093508194505b50505b6124ff81612ae7565b905061232e565b505092915050565b60006020828403121561251f578081fd5b813561232181612b4e565b60006020828403121561253b578081fd5b815161232181612b4e565b60008060408385031215612558578081fd5b823561256381612b4e565b9150602083013561257381612b4e565b809150509250929050565b60008060008060808587031215612593578182fd5b843561259e81612b4e565b93506020850135925060408501356125b581612b4e565b915060608501356125c581612b4e565b939692955090935050565b600080604083850312156125e2578182fd5b82356125ed81612b4e565b946020939093013593505050565b6000806020838503121561260d578182fd5b823567ffffffffffffffff80821115612624578384fd5b818501915085601f830112612637578384fd5b813581811115612645578485fd5b8660208260051b8501011115612659578485fd5b60209290920196919550909350505050565b60006020828403121561267c578081fd5b81518015158114612321578182fd5b60006020828403121561269c578081fd5b5035919050565b600080604083850312156126b5578182fd5b82359150602083013561257381612b4e565b6000602082840312156126d8578081fd5b81356001600160e01b031981168114612321578182fd5b600060208284031215612700578081fd5b81518060020b8114612321578182fd5b60008060408385031215612722578182fd5b505080516020909101519092909150565b60008060008060608587031215612748578182fd5b8435935060208501359250604085013567ffffffffffffffff8082111561276d578384fd5b818701915087601f830112612780578384fd5b81358181111561278e578485fd5b88602082850101111561279f578485fd5b95989497505060200194505050565b6000602082840312156127bf578081fd5b81516fffffffffffffffffffffffffffffffff81168114612321578182fd5b6000602082840312156127ef578081fd5b813562ffffff81168114612321578182fd5b600060208284031215612812578081fd5b5051919050565b60008060006060848603121561282d578081fd5b83359250602084013561283f81612b4e565b9150604084013561284f81612b4e565b809150509250925092565b600080600080600060a08688031215612871578283fd5b8535945060208601359350604086013561288a81612b4e565b9250606086013561289a81612b4e565b915060808601356128aa81612b4e565b809150509295509295909350565b600081518084526128d0816020860160208601612a6f565b601f01601f19169290920160200192915050565b600082516128f6818460208701612a6f565b9190910192915050565b7f416363657373436f6e74726f6c3a206163636f756e7420000000000000000000815260008351612938816017850160208801612a6f565b7f206973206d697373696e6720726f6c65200000000000000000000000000000006017918401918201528351612975816028840160208801612a6f565b01602801949350505050565b60006001600160a01b038088168352861515602084015285604084015280851660608401525060a0608083015261165660a08301846128b8565b60208152600061232160208301846128b8565b60006001600160a01b038083168185168083038211156129f0576129f0612b38565b01949350505050565b60008219821115612a0c57612a0c612b38565b500190565b6000816000190483118215151615612a2b57612a2b612b38565b500290565b60006001600160a01b0383811690831681811015612a5057612a50612b38565b039392505050565b600082821015612a6a57612a6a612b38565b500390565b60005b83811015612a8a578181015183820152602001612a72565b838111156116025750506000910152565b600081612aaa57612aaa612b38565b506000190190565b600181811c90821680612ac657607f821691505b6020821081141561207057634e487b7160e01b600052602260045260246000fd5b6000600019821415612afb57612afb612b38565b5060010190565b60007f8000000000000000000000000000000000000000000000000000000000000000821415612b3457612b34612b38565b0390565b634e487b7160e01b600052601160045260246000fd5b6001600160a01b03811681146109ec57600080fdfea2646970667358221220032c394c4923f42e54cae2a54d2e35394fa53779e95f9d78878da96b6ff9111e64736f6c63430008040033a54247010af6b3693b80aceddfad12e077c5de3571e6243fada502635f0d7d394d61696e7461696e61626c653a2043616c6c6572206973206e6f742061206d61",
  "linkReferences": {},
  "deployedLinkReferences": {}
}