{
  "_format": "hh-sol-artifact-1",
  "contractName": "SummitOracle",
  "sourceName": "src/contracts/SummitOracle.sol",
  "abi": [
    {
      "inputs": [
        {
          "internalType": "address",
          "name": "_router",
          "type": "address"
        },
        {
          "internalType": "address",
          "name": "_stable",
          "type": "address"
        },
        {
          "internalType": "address",
          "name": "_wNative",
          "type": "address"
        }
      ],
      "stateMutability": "nonpayable",
      "type": "constructor"
    },
    {
      "anonymous": false,
      "inputs": [
        {
          "indexed": true,
          "internalType": "address",
          "name": "_asset",
          "type": "address"
        },
        {
          "indexed": false,
          "internalType": "uint256",
          "name": "amount",
          "type": "uint256"
        }
      ],
      "name": "Recovered",
      "type": "event"
    },
    {
      "anonymous": false,
      "inputs": [
        {
          "indexed": true,
          "internalType": "bytes32",
          "name": "role",
          "type": "bytes32"
        },
        {
          "indexed": true,
          "internalType": "bytes32",
          "name": "previousAdminRole",
          "type": "bytes32"
        },
        {
          "indexed": true,
          "internalType": "bytes32",
          "name": "newAdminRole",
          "type": "bytes32"
        }
      ],
      "name": "RoleAdminChanged",
      "type": "event"
    },
    {
      "anonymous": false,
      "inputs": [
        {
          "indexed": true,
          "internalType": "bytes32",
          "name": "role",
          "type": "bytes32"
        },
        {
          "indexed": true,
          "internalType": "address",
          "name": "account",
          "type": "address"
        },
        {
          "indexed": true,
          "internalType": "address",
          "name": "sender",
          "type": "address"
        }
      ],
      "name": "RoleGranted",
      "type": "event"
    },
    {
      "anonymous": false,
      "inputs": [
        {
          "indexed": true,
          "internalType": "bytes32",
          "name": "role",
          "type": "bytes32"
        },
        {
          "indexed": true,
          "internalType": "address",
          "name": "account",
          "type": "address"
        },
        {
          "indexed": true,
          "internalType": "address",
          "name": "sender",
          "type": "address"
        }
      ],
      "name": "RoleRevoked",
      "type": "event"
    },
    {
      "inputs": [],
      "name": "DEFAULT_ADMIN_ROLE",
      "outputs": [
        {
          "internalType": "bytes32",
          "name": "",
          "type": "bytes32"
        }
      ],
      "stateMutability": "view",
      "type": "function"
    },
    {
      "inputs": [],
      "name": "MAINTAINER_ROLE",
      "outputs": [
        {
          "internalType": "bytes32",
          "name": "",
          "type": "bytes32"
        }
      ],
      "stateMutability": "view",
      "type": "function"
    },
    {
      "inputs": [],
      "name": "ROUTER",
      "outputs": [
        {
          "internalType": "contract ISummitRouter",
          "name": "",
          "type": "address"
        }
      ],
      "stateMutability": "view",
      "type": "function"
    },
    {
      "inputs": [],
      "name": "STABLE",
      "outputs": [
        {
          "internalType": "contract IERC20",
          "name": "",
          "type": "address"
        }
      ],
      "stateMutability": "view",
      "type": "function"
    },
    {
      "inputs": [],
      "name": "WNATIVE",
      "outputs": [
        {
          "internalType": "contract IERC20",
          "name": "",
          "type": "address"
        }
      ],
      "stateMutability": "view",
      "type": "function"
    },
    {
      "inputs": [
        {
          "internalType": "address",
          "name": "addedMaintainer",
          "type": "address"
        }
      ],
      "name": "addMaintainer",
      "outputs": [],
      "stateMutability": "nonpayable",
      "type": "function"
    },
    {
      "inputs": [
        {
          "internalType": "address",
          "name": "_token",
          "type": "address"
        }
      ],
      "name": "getPrice10Stable",
      "outputs": [
        {
          "internalType": "uint256",
          "name": "",
          "type": "uint256"
        }
      ],
      "stateMutability": "view",
      "type": "function"
    },
    {
      "inputs": [
        {
          "internalType": "address",
          "name": "_token",
          "type": "address"
        },
        {
          "internalType": "uint256",
          "name": "_nWnative",
          "type": "uint256"
        }
      ],
      "name": "getPriceNwNative",
      "outputs": [
        {
          "internalType": "uint256",
          "name": "",
          "type": "uint256"
        }
      ],
      "stateMutability": "view",
      "type": "function"
    },
    {
      "inputs": [
        {
          "internalType": "bytes32",
          "name": "role",
          "type": "bytes32"
        }
      ],
      "name": "getRoleAdmin",
      "outputs": [
        {
          "internalType": "bytes32",
          "name": "",
          "type": "bytes32"
        }
      ],
      "stateMutability": "view",
      "type": "function"
    },
    {
      "inputs": [
        {
          "internalType": "uint256",
          "name": "_amountIn",
          "type": "uint256"
        },
        {
          "internalType": "address",
          "name": "_tokenIn",
          "type": "address"
        },
        {
          "internalType": "address",
          "name": "_tokenOut",
          "type": "address"
        },
        {
          "internalType": "uint256",
          "name": "_maxSteps",
          "type": "uint256"
        }
      ],
      "name": "getSwapData",
      "outputs": [
        {
          "components": [
            {
              "internalType": "uint256[]",
              "name": "amounts",
              "type": "uint256[]"
            },
            {
              "internalType": "address[]",
              "name": "adapters",
              "type": "address[]"
            },
            {
              "internalType": "address[]",
              "name": "path",
              "type": "address[]"
            },
            {
              "internalType": "uint256",
              "name": "gasEstimate",
              "type": "uint256"
            }
          ],
          "internalType": "struct FormattedOffer",
          "name": "offer",
          "type": "tuple"
        }
      ],
      "stateMutability": "view",
      "type": "function"
    },
    {
      "inputs": [
        {
          "internalType": "address",
          "name": "_user",
          "type": "address"
        },
        {
          "internalType": "address",
          "name": "_token",
          "type": "address"
        },
        {
          "internalType": "uint256",
          "name": "_nWnative",
          "type": "uint256"
        }
      ],
      "name": "getTokenData",
      "outputs": [
        {
          "components": [
            {
              "internalType": "address",
              "name": "tokenAddress",
              "type": "address"
            },
            {
              "internalType": "string",
              "name": "symbol",
              "type": "string"
            },
            {
              "internalType": "uint256",
              "name": "decimals",
              "type": "uint256"
            },
            {
              "internalType": "uint256",
              "name": "bonus",
              "type": "uint256"
            },
            {
              "internalType": "uint256",
              "name": "userAllowance",
              "type": "uint256"
            },
            {
              "internalType": "uint256",
              "name": "userBalance",
              "type": "uint256"
            },
            {
              "internalType": "uint256",
              "name": "price",
              "type": "uint256"
            }
          ],
          "internalType": "struct SummitOracle.TokenData",
          "name": "token",
          "type": "tuple"
        }
      ],
      "stateMutability": "view",
      "type": "function"
    },
    {
      "inputs": [
        {
          "internalType": "bytes32",
          "name": "role",
          "type": "bytes32"
        },
        {
          "internalType": "address",
          "name": "account",
          "type": "address"
        }
      ],
      "name": "grantRole",
      "outputs": [],
      "stateMutability": "nonpayable",
      "type": "function"
    },
    {
      "inputs": [
        {
          "internalType": "bytes32",
          "name": "role",
          "type": "bytes32"
        },
        {
          "internalType": "address",
          "name": "account",
          "type": "address"
        }
      ],
      "name": "hasRole",
      "outputs": [
        {
          "internalType": "bool",
          "name": "",
          "type": "bool"
        }
      ],
      "stateMutability": "view",
      "type": "function"
    },
    {
      "inputs": [
        {
          "internalType": "address",
          "name": "_tokenAddress",
          "type": "address"
        },
        {
          "internalType": "uint256",
          "name": "_tokenAmount",
          "type": "uint256"
        }
      ],
      "name": "recoverERC20",
      "outputs": [],
      "stateMutability": "nonpayable",
      "type": "function"
    },
    {
      "inputs": [
        {
          "internalType": "uint256",
          "name": "_amount",
          "type": "uint256"
        }
      ],
      "name": "recoverNATIVE",
      "outputs": [],
      "stateMutability": "nonpayable",
      "type": "function"
    },
    {
      "inputs": [
        {
          "internalType": "address",
          "name": "removedMaintainer",
          "type": "address"
        }
      ],
      "name": "removeMaintainer",
      "outputs": [],
      "stateMutability": "nonpayable",
      "type": "function"
    },
    {
      "inputs": [
        {
          "internalType": "bytes32",
          "name": "role",
          "type": "bytes32"
        },
        {
          "internalType": "address",
          "name": "account",
          "type": "address"
        }
      ],
      "name": "renounceRole",
      "outputs": [],
      "stateMutability": "nonpayable",
      "type": "function"
    },
    {
      "inputs": [
        {
          "internalType": "bytes32",
          "name": "role",
          "type": "bytes32"
        }
      ],
      "name": "renounceRole",
      "outputs": [],
      "stateMutability": "nonpayable",
      "type": "function"
    },
    {
      "inputs": [
        {
          "internalType": "bytes32",
          "name": "role",
          "type": "bytes32"
        },
        {
          "internalType": "address",
          "name": "account",
          "type": "address"
        }
      ],
      "name": "revokeRole",
      "outputs": [],
      "stateMutability": "nonpayable",
      "type": "function"
    },
    {
      "inputs": [
        {
          "internalType": "address",
          "name": "_router",
          "type": "address"
        }
      ],
      "name": "setRouter",
      "outputs": [],
      "stateMutability": "nonpayable",
      "type": "function"
    },
    {
      "inputs": [
        {
          "internalType": "address",
          "name": "_stable",
          "type": "address"
        }
      ],
      "name": "setStable",
      "outputs": [],
      "stateMutability": "nonpayable",
      "type": "function"
    },
    {
      "inputs": [
        {
          "internalType": "address",
          "name": "_wNative",
          "type": "address"
        }
      ],
      "name": "setWNative",
      "outputs": [],
      "stateMutability": "nonpayable",
      "type": "function"
    },
    {
      "inputs": [
        {
          "internalType": "bytes4",
          "name": "interfaceId",
          "type": "bytes4"
        }
      ],
      "name": "supportsInterface",
      "outputs": [
        {
          "internalType": "bool",
          "name": "",
          "type": "bool"
        }
      ],
      "stateMutability": "view",
      "type": "function"
    },
    {
      "inputs": [
        {
          "internalType": "address",
          "name": "newOwner",
          "type": "address"
        }
      ],
      "name": "transferOwnership",
      "outputs": [],
      "stateMutability": "nonpayable",
      "type": "function"
    }
  ],
  "bytecode": "0x60806040523480156200001157600080fd5b506040516200220c3803806200220c83398101604081905262000034916200017d565b62000041600033620000b0565b6200006d7f339759585899103d2ace64958e37e18ccb0504652c81d4a1b8aa80fe2126ab9533620000b0565b600180546001600160a01b039485166001600160a01b031991821617909155600280549385169382169390931790925560038054919093169116179055620001c6565b620000bc8282620000c0565b5050565b6000828152602081815260408083206001600160a01b038516845290915290205460ff16620000bc576000828152602081815260408083206001600160a01b03851684529091529020805460ff191660011790556200011c3390565b6001600160a01b0316816001600160a01b0316837f2f8788117e7eff1d82e926ec794901d17c78024a50270940304540a733656f0d60405160405180910390a45050565b80516001600160a01b03811681146200017857600080fd5b919050565b60008060006060848603121562000192578283fd5b6200019d8462000160565b9250620001ad6020850162000160565b9150620001bd6040850162000160565b90509250925092565b61203680620001d66000396000f3fe608060405234801561001057600080fd5b50600436106101985760003560e01c806395490c0b116100e3578063c2c528201161008c578063dba7137611610066578063dba71376146103ac578063f2fde38b146103bf578063f8742254146103d257600080fd5b8063c2c5282014610373578063d547741f14610386578063d8baf7cf1461039957600080fd5b8063b087ad5a116100bd578063b087ad5a1461033a578063b381cf401461034d578063c0d786551461036057600080fd5b806395490c0b1461030c5780639ed9a06d1461031f578063a217fddf1461033257600080fd5b806354d9f653116101455780638980f11f1161011f5780638980f11f146102af5780638bb9c5bf146102c257806391d14854146102d557600080fd5b806354d9f653146102695780636b453c1f1461027c5780637449f8661461028f57600080fd5b80632f2ff15d116101765780632f2ff15d1461021657806332fe7b261461022b57806336568abe1461025657600080fd5b806301ffc9a71461019d5780630f935b3e146101c5578063248a9ca3146101e5575b600080fd5b6101b06101ab3660046119a7565b6103f9565b60405190151581526020015b60405180910390f35b6101d86101d33660046118d5565b610462565b6040516101bc9190611d54565b6102086101f3366004611960565b60009081526020819052604090206001015490565b6040519081526020016101bc565b610229610224366004611978565b610533565b005b60015461023e906001600160a01b031681565b6040516001600160a01b0390911681526020016101bc565b610229610264366004611978565b61055d565b60025461023e906001600160a01b031681565b61022961028a3660046118b9565b6105ee565b6102a261029d366004611b33565b61061b565b6040516101bc9190611cba565b6102296102bd366004611915565b610732565b6102296102d0366004611960565b61086c565b6101b06102e3366004611978565b6000918252602082815260408084206001600160a01b0393909316845291905290205460ff1690565b61022961031a3660046118b9565b610876565b61020861032d366004611915565b610934565b610208600081565b6102086103483660046118b9565b610a30565b60035461023e906001600160a01b031681565b61022961036e3660046118b9565b610bae565b610229610381366004611960565b610c6c565b610229610394366004611978565b610db2565b6102296103a73660046118b9565b610dd7565b6102296103ba3660046118b9565b610e01565b6102296103cd3660046118b9565b610ebf565b6102087f339759585899103d2ace64958e37e18ccb0504652c81d4a1b8aa80fe2126ab9581565b60006001600160e01b031982167f7965db0b00000000000000000000000000000000000000000000000000000000148061045c57507f01ffc9a7000000000000000000000000000000000000000000000000000000006001600160e01b03198316145b92915050565b6104ab6040518060e0016040528060006001600160a01b031681526020016060815260200160008152602001600081526020016000815260200160008152602001600081525090565b6040518060e00160405280846001600160a01b031681526020016104ce85610ed5565b81526020016104dc85610f7f565b60ff1681526020016104ed8561100c565b81526020016104fc86866110ba565b815260200161050b8686611190565b81526020016000841161051f576000610529565b6105298585610934565b9052949350505050565b60008281526020819052604090206001015461054e8161120e565b6105588383611218565b505050565b6001600160a01b03811633146105e05760405162461bcd60e51b815260206004820152602f60248201527f416363657373436f6e74726f6c3a2063616e206f6e6c792072656e6f756e636560448201527f20726f6c657320666f722073656c66000000000000000000000000000000000060648201526084015b60405180910390fd5b6105ea82826112b6565b5050565b6106187f339759585899103d2ace64958e37e18ccb0504652c81d4a1b8aa80fe2126ab9582610533565b50565b6106466040518060800160405280606081526020016060815260200160608152602001600081525090565b6001546001600160a01b0390811690634c09cf4e90879087161561066a5786610677565b6003546001600160a01b03165b6001600160a01b0387161561068c5786610699565b6003546001600160a01b03165b6040516001600160e01b031960e086901b16815260048101939093526001600160a01b0391821660248401521660448201526064810185905260840160006040518083038186803b1580156106ed57600080fd5b505afa158015610701573d6000803e3d6000fd5b505050506040513d6000823e601f3d908101601f191682016040526107299190810190611a5f565b95945050505050565b3360009081527fa54247010af6b3693b80aceddfad12e077c5de3571e6243fada502635f0d7d39602052604090205460ff166107c15760405162461bcd60e51b815260206004820152602860248201527f4d61696e7461696e61626c653a2043616c6c6572206973206e6f742061206d6160448201526734b73a30b4b732b960c11b60648201526084016105d7565b600081116108115760405162461bcd60e51b815260206004820152601260248201527f4e6f7468696e6720746f207265636f766572000000000000000000000000000060448201526064016105d7565b6108256001600160a01b0383163383611335565b816001600160a01b03167f8c1256b8896378cd5044f80c202f9772b9d77dc85c8a6eb51967210b09bfaa288260405161086091815260200190565b60405180910390a25050565b610618813361055d565b3360009081527fa54247010af6b3693b80aceddfad12e077c5de3571e6243fada502635f0d7d39602052604090205460ff166109055760405162461bcd60e51b815260206004820152602860248201527f4d61696e7461696e61626c653a2043616c6c6572206973206e6f742061206d6160448201526734b73a30b4b732b960c11b60648201526084016105d7565b6003805473ffffffffffffffffffffffffffffffffffffffff19166001600160a01b0392909216919091179055565b60006001600160a01b038316158061095957506003546001600160a01b038481169116145b1561096557508061045c565b600154600380546040517f4c09cf4e000000000000000000000000000000000000000000000000000000008152600481018690526001600160a01b0391821660248201528682166044820152606481019290925290911690634c09cf4e9060840160006040518083038186803b1580156109de57600080fd5b505afa925050508015610a1357506040513d6000823e601f3d908101601f19168201604052610a109190810190611a5f565b60015b610a1f5750600061045c565b610a28816113b5565b91505061045c565b600154600254604080517f313ce56700000000000000000000000000000000000000000000000000000000815290516000936001600160a01b0390811693634c09cf4e9391169163313ce56791600480820192602092909190829003018186803b158015610a9d57600080fd5b505afa158015610ab1573d6000803e3d6000fd5b505050506040513d601f19601f82011682018060405250810190610ad59190611b7a565b610ae090600a611e9b565b6002546001600160a01b0390811690861615610afc5785610b09565b6003546001600160a01b03165b6040516001600160e01b031960e086901b16815260048101939093526001600160a01b0391821660248401521660448201526003606482015260840160006040518083038186803b158015610b5d57600080fd5b505afa925050508015610b9257506040513d6000823e601f3d908101601f19168201604052610b8f9190810190611a5f565b60015b610b9e57506000919050565b610ba7816113b5565b9392505050565b3360009081527fa54247010af6b3693b80aceddfad12e077c5de3571e6243fada502635f0d7d39602052604090205460ff16610c3d5760405162461bcd60e51b815260206004820152602860248201527f4d61696e7461696e61626c653a2043616c6c6572206973206e6f742061206d6160448201526734b73a30b4b732b960c11b60648201526084016105d7565b6001805473ffffffffffffffffffffffffffffffffffffffff19166001600160a01b0392909216919091179055565b3360009081527fa54247010af6b3693b80aceddfad12e077c5de3571e6243fada502635f0d7d39602052604090205460ff16610cfb5760405162461bcd60e51b815260206004820152602860248201527f4d61696e7461696e61626c653a2043616c6c6572206973206e6f742061206d6160448201526734b73a30b4b732b960c11b60648201526084016105d7565b60008111610d4b5760405162461bcd60e51b815260206004820152601260248201527f4e6f7468696e6720746f207265636f766572000000000000000000000000000060448201526064016105d7565b604051339082156108fc029083906000818181858888f19350505050158015610d78573d6000803e3d6000fd5b506040518181526000907f8c1256b8896378cd5044f80c202f9772b9d77dc85c8a6eb51967210b09bfaa289060200160405180910390a250565b600082815260208190526040902060010154610dcd8161120e565b61055883836112b6565b6106187f339759585899103d2ace64958e37e18ccb0504652c81d4a1b8aa80fe2126ab9582610db2565b3360009081527fa54247010af6b3693b80aceddfad12e077c5de3571e6243fada502635f0d7d39602052604090205460ff16610e905760405162461bcd60e51b815260206004820152602860248201527f4d61696e7461696e61626c653a2043616c6c6572206973206e6f742061206d6160448201526734b73a30b4b732b960c11b60648201526084016105d7565b6002805473ffffffffffffffffffffffffffffffffffffffff19166001600160a01b0392909216919091179055565b610eca600082610533565b61061860003361055d565b60606001600160a01b038216610ef957505060408051602081019091526000815290565b816001600160a01b03166395d89b416040518163ffffffff1660e01b815260040160006040518083038186803b158015610f3257600080fd5b505afa925050508015610f6757506040513d6000823e601f3d908101601f19168201604052610f6491908101906119cf565b60015b61045c57505060408051602081019091526000815290565b60006001600160a01b038216610f9757506012919050565b816001600160a01b031663313ce5676040518163ffffffff1660e01b815260040160206040518083038186803b158015610fd057600080fd5b505afa925050508015611000575060408051601f3d908101601f19168201909252610ffd91810190611b7a565b60015b61045c57506012919050565b60006001600160a01b03821661102457506000919050565b6001546040517f9217a8aa0000000000000000000000000000000000000000000000000000000081526001600160a01b03848116600483015290911690639217a8aa9060240160206040518083038186803b15801561108257600080fd5b505afa158015611096573d6000803e3d6000fd5b505050506040513d601f19601f8201168201806040525081019061045c9190611b1b565b60006001600160a01b0383166110d25750600061045c565b6001600160a01b0382166110f157506001600160a01b0382163161045c565b6001546040517fdd62ed3e0000000000000000000000000000000000000000000000000000000081526001600160a01b03858116600483015291821660248201529083169063dd62ed3e906044015b60206040518083038186803b15801561115857600080fd5b505afa15801561116c573d6000803e3d6000fd5b505050506040513d601f19601f82011682018060405250810190610ba79190611b1b565b60006001600160a01b0383166111a85750600061045c565b6001600160a01b0382166111c757506001600160a01b0382163161045c565b6040517f70a082310000000000000000000000000000000000000000000000000000000081526001600160a01b0384811660048301528316906370a0823190602401611140565b61061881336113f6565b6000828152602081815260408083206001600160a01b038516845290915290205460ff166105ea576000828152602081815260408083206001600160a01b03851684529091529020805460ff191660011790556112723390565b6001600160a01b0316816001600160a01b0316837f2f8788117e7eff1d82e926ec794901d17c78024a50270940304540a733656f0d60405160405180910390a45050565b6000828152602081815260408083206001600160a01b038516845290915290205460ff16156105ea576000828152602081815260408083206001600160a01b0385168085529252808320805460ff1916905551339285917ff6391f5c32d9c69d2a47ea670b442974b53935d1edc7fd64eb21e047a839171b9190a45050565b604080516001600160a01b038416602482015260448082018490528251808303909101815260649091019091526020810180517bffffffffffffffffffffffffffffffffffffffffffffffffffffffff167fa9059cbb00000000000000000000000000000000000000000000000000000000179052610558908490611469565b80518051600091906113c990600190611f65565b815181106113e757634e487b7160e01b600052603260045260246000fd5b60200260200101519050919050565b6000828152602081815260408083206001600160a01b038516845290915290205460ff166105ea57611427816115ab565b6114328360206115bd565b604051602001611443929190611c26565b60408051601f198184030181529082905262461bcd60e51b82526105d791600401611ca7565b600080836001600160a01b0316836040516114849190611c0a565b6000604051808303816000865af19150503d80600081146114c1576040519150601f19603f3d011682016040523d82523d6000602084013e6114c6565b606091505b5091509150816115185760405162461bcd60e51b815260206004820181905260248201527f5361666545524332303a206c6f772d6c6576656c2063616c6c206661696c656460448201526064016105d7565b8051156115a557808060200190518101906115339190611940565b6115a55760405162461bcd60e51b815260206004820152602a60248201527f5361666545524332303a204552433230206f7065726174696f6e20646964206e60448201527f6f7420737563636565640000000000000000000000000000000000000000000060648201526084016105d7565b50505050565b606061045c6001600160a01b03831660145b606060006115cc836002611f46565b6115d7906002611e40565b67ffffffffffffffff8111156115fd57634e487b7160e01b600052604160045260246000fd5b6040519080825280601f01601f191660200182016040528015611627576020820181803683370190505b5090507f30000000000000000000000000000000000000000000000000000000000000008160008151811061166c57634e487b7160e01b600052603260045260246000fd5b60200101906001600160f81b031916908160001a9053507f7800000000000000000000000000000000000000000000000000000000000000816001815181106116c557634e487b7160e01b600052603260045260246000fd5b60200101906001600160f81b031916908160001a90535060006116e9846002611f46565b6116f4906001611e40565b90505b6001811115611795577f303132333435363738396162636465660000000000000000000000000000000085600f166010811061174357634e487b7160e01b600052603260045260246000fd5b1a60f81b82828151811061176757634e487b7160e01b600052603260045260246000fd5b60200101906001600160f81b031916908160001a90535060049490941c9361178e81611fa8565b90506116f7565b508315610ba75760405162461bcd60e51b815260206004820181905260248201527f537472696e67733a20686578206c656e67746820696e73756666696369656e7460448201526064016105d7565b600082601f8301126117f4578081fd5b8151602061180961180483611e1c565b611deb565b80838252828201915082860187848660051b8901011115611828578586fd5b855b8581101561184f57815161183d81611feb565b8452928401929084019060010161182a565b5090979650505050505050565b600082601f83011261186c578081fd5b8151602061187c61180483611e1c565b80838252828201915082860187848660051b890101111561189b578586fd5b855b8581101561184f5781518452928401929084019060010161189d565b6000602082840312156118ca578081fd5b8135610ba781611feb565b6000806000606084860312156118e9578182fd5b83356118f481611feb565b9250602084013561190481611feb565b929592945050506040919091013590565b60008060408385031215611927578182fd5b823561193281611feb565b946020939093013593505050565b600060208284031215611951578081fd5b81518015158114610ba7578182fd5b600060208284031215611971578081fd5b5035919050565b6000806040838503121561198a578182fd5b82359150602083013561199c81611feb565b809150509250929050565b6000602082840312156119b8578081fd5b81356001600160e01b031981168114610ba7578182fd5b6000602082840312156119e0578081fd5b815167ffffffffffffffff808211156119f7578283fd5b818401915084601f830112611a0a578283fd5b815181811115611a1c57611a1c611fd5565b611a2f601f8201601f1916602001611deb565b9150808252856020828501011115611a45578384fd5b611a56816020840160208601611f7c565b50949350505050565b600060208284031215611a70578081fd5b815167ffffffffffffffff80821115611a87578283fd5b9083019060808286031215611a9a578283fd5b611aa2611dc2565b825182811115611ab0578485fd5b611abc8782860161185c565b825250602083015182811115611ad0578485fd5b611adc878286016117e4565b602083015250604083015182811115611af3578485fd5b611aff878286016117e4565b6040830152506060830151606082015280935050505092915050565b600060208284031215611b2c578081fd5b5051919050565b60008060008060808587031215611b48578182fd5b843593506020850135611b5a81611feb565b92506040850135611b6a81611feb565b9396929550929360600135925050565b600060208284031215611b8b578081fd5b815160ff81168114610ba7578182fd5b6000815180845260208085019450808401835b83811015611bd35781516001600160a01b031687529582019590820190600101611bae565b509495945050505050565b60008151808452611bf6816020860160208601611f7c565b601f01601f19169290920160200192915050565b60008251611c1c818460208701611f7c565b9190910192915050565b7f416363657373436f6e74726f6c3a206163636f756e7420000000000000000000815260008351611c5e816017850160208801611f7c565b7f206973206d697373696e6720726f6c65200000000000000000000000000000006017918401918201528351611c9b816028840160208801611f7c565b01602801949350505050565b602081526000610ba76020830184611bde565b60208082528251608083830152805160a0840181905260009291820190839060c08601905b80831015611cff5783518252928401926001929092019190840190611cdf565b50838701519350601f19925082868203016040870152611d1f8185611b9b565b93505050604085015181858403016060860152611d3c8382611b9b565b92505050606084015160808401528091505092915050565b602081526001600160a01b0382511660208201526000602083015160e06040840152611d84610100840182611bde565b90506040840151606084015260608401516080840152608084015160a084015260a084015160c084015260c084015160e08401528091505092915050565b6040516080810167ffffffffffffffff81118282101715611de557611de5611fd5565b60405290565b604051601f8201601f1916810167ffffffffffffffff81118282101715611e1457611e14611fd5565b604052919050565b600067ffffffffffffffff821115611e3657611e36611fd5565b5060051b60200190565b60008219821115611e5357611e53611fbf565b500190565b600181815b80851115611e93578160001904821115611e7957611e79611fbf565b80851615611e8657918102915b93841c9390800290611e5d565b509250929050565b6000610ba760ff841683600082611eb45750600161045c565b81611ec15750600061045c565b8160018114611ed75760028114611ee157611efd565b600191505061045c565b60ff841115611ef257611ef2611fbf565b50506001821b61045c565b5060208310610133831016604e8410600b8410161715611f20575081810a61045c565b611f2a8383611e58565b8060001904821115611f3e57611f3e611fbf565b029392505050565b6000816000190483118215151615611f6057611f60611fbf565b500290565b600082821015611f7757611f77611fbf565b500390565b60005b83811015611f97578181015183820152602001611f7f565b838111156115a55750506000910152565b600081611fb757611fb7611fbf565b506000190190565b634e487b7160e01b600052601160045260246000fd5b634e487b7160e01b600052604160045260246000fd5b6001600160a01b038116811461061857600080fdfea2646970667358221220e73f403c58a4bde6412ca90bf013984684d5382dd815c52f651681b1ae3f8a5864736f6c63430008040033",
  "linkReferences": {},
  "deployedLinkReferences": {}
}