{
  "_format": "hh-sol-artifact-1",
  "contractName": "SummitReferrals",
  "sourceName": "src/contracts/SummitReferrals.sol",
  "abi": [
    {
      "inputs": [],
      "stateMutability": "nonpayable",
      "type": "constructor"
    },
    {
      "inputs": [],
      "name": "AlreadyInitialized",
      "type": "error"
    },
    {
      "inputs": [],
      "name": "AlreadyReferredByUser",
      "type": "error"
    },
    {
      "inputs": [],
      "name": "AlreadySetCode",
      "type": "error"
    },
    {
      "inputs": [],
      "name": "CodeNotAvailable",
      "type": "error"
    },
    {
      "inputs": [],
      "name": "InvalidCode",
      "type": "error"
    },
    {
      "inputs": [],
      "name": "InvalidLevel",
      "type": "error"
    },
    {
      "inputs": [],
      "name": "LengthMismatch",
      "type": "error"
    },
    {
      "inputs": [],
      "name": "MissingReferral",
      "type": "error"
    },
    {
      "inputs": [],
      "name": "MustBeAtLeastBronze",
      "type": "error"
    },
    {
      "inputs": [],
      "name": "ReciprocalReferral",
      "type": "error"
    },
    {
      "inputs": [],
      "name": "SelfReferral",
      "type": "error"
    },
    {
      "anonymous": false,
      "inputs": [
        {
          "indexed": true,
          "internalType": "address",
          "name": "referrer",
          "type": "address"
        },
        {
          "indexed": false,
          "internalType": "uint8",
          "name": "_boostLevel",
          "type": "uint8"
        }
      ],
      "name": "BoostedReferrer",
      "type": "event"
    },
    {
      "anonymous": false,
      "inputs": [
        {
          "indexed": false,
          "internalType": "address[]",
          "name": "referrer",
          "type": "address[]"
        },
        {
          "indexed": false,
          "internalType": "uint8[]",
          "name": "_boostLevel",
          "type": "uint8[]"
        }
      ],
      "name": "BoostedReferrers",
      "type": "event"
    },
    {
      "anonymous": false,
      "inputs": [
        {
          "indexed": true,
          "internalType": "bytes32",
          "name": "role",
          "type": "bytes32"
        },
        {
          "indexed": true,
          "internalType": "bytes32",
          "name": "previousAdminRole",
          "type": "bytes32"
        },
        {
          "indexed": true,
          "internalType": "bytes32",
          "name": "newAdminRole",
          "type": "bytes32"
        }
      ],
      "name": "RoleAdminChanged",
      "type": "event"
    },
    {
      "anonymous": false,
      "inputs": [
        {
          "indexed": true,
          "internalType": "bytes32",
          "name": "role",
          "type": "bytes32"
        },
        {
          "indexed": true,
          "internalType": "address",
          "name": "account",
          "type": "address"
        },
        {
          "indexed": true,
          "internalType": "address",
          "name": "sender",
          "type": "address"
        }
      ],
      "name": "RoleGranted",
      "type": "event"
    },
    {
      "anonymous": false,
      "inputs": [
        {
          "indexed": true,
          "internalType": "bytes32",
          "name": "role",
          "type": "bytes32"
        },
        {
          "indexed": true,
          "internalType": "address",
          "name": "account",
          "type": "address"
        },
        {
          "indexed": true,
          "internalType": "address",
          "name": "sender",
          "type": "address"
        }
      ],
      "name": "RoleRevoked",
      "type": "event"
    },
    {
      "anonymous": false,
      "inputs": [
        {
          "indexed": false,
          "internalType": "uint256[]",
          "name": "_refPointsReq",
          "type": "uint256[]"
        },
        {
          "indexed": false,
          "internalType": "uint256[]",
          "name": "_selfPointsReq",
          "type": "uint256[]"
        },
        {
          "indexed": false,
          "internalType": "uint256[]",
          "name": "_refsReq",
          "type": "uint256[]"
        },
        {
          "indexed": false,
          "internalType": "uint256[]",
          "name": "_multRew",
          "type": "uint256[]"
        },
        {
          "indexed": false,
          "internalType": "uint256",
          "name": "_hasReferrerBonusMult",
          "type": "uint256"
        }
      ],
      "name": "UpdatedLevelData",
      "type": "event"
    },
    {
      "anonymous": false,
      "inputs": [
        {
          "indexed": true,
          "internalType": "address",
          "name": "_pointsContract",
          "type": "address"
        }
      ],
      "name": "UpdatedPointsContract",
      "type": "event"
    },
    {
      "anonymous": false,
      "inputs": [
        {
          "indexed": true,
          "internalType": "address",
          "name": "_caller",
          "type": "address"
        },
        {
          "indexed": true,
          "internalType": "address",
          "name": "_user",
          "type": "address"
        },
        {
          "indexed": false,
          "internalType": "string",
          "name": "_code",
          "type": "string"
        }
      ],
      "name": "UpdatedReferralCode",
      "type": "event"
    },
    {
      "anonymous": false,
      "inputs": [
        {
          "indexed": true,
          "internalType": "address",
          "name": "_add",
          "type": "address"
        },
        {
          "indexed": true,
          "internalType": "address",
          "name": "_referrer",
          "type": "address"
        }
      ],
      "name": "UpdatedReferrer",
      "type": "event"
    },
    {
      "inputs": [],
      "name": "BONUS_FOR_BEING_REFERRED",
      "outputs": [
        {
          "internalType": "uint256",
          "name": "",
          "type": "uint256"
        }
      ],
      "stateMutability": "view",
      "type": "function"
    },
    {
      "inputs": [],
      "name": "DEFAULT_ADMIN_ROLE",
      "outputs": [
        {
          "internalType": "bytes32",
          "name": "",
          "type": "bytes32"
        }
      ],
      "stateMutability": "view",
      "type": "function"
    },
    {
      "inputs": [
        {
          "internalType": "uint256",
          "name": "",
          "type": "uint256"
        }
      ],
      "name": "LEVEL_MULT_REWARD",
      "outputs": [
        {
          "internalType": "uint256",
          "name": "",
          "type": "uint256"
        }
      ],
      "stateMutability": "view",
      "type": "function"
    },
    {
      "inputs": [
        {
          "internalType": "uint256",
          "name": "",
          "type": "uint256"
        }
      ],
      "name": "LEVEL_REFS_REQ",
      "outputs": [
        {
          "internalType": "uint256",
          "name": "",
          "type": "uint256"
        }
      ],
      "stateMutability": "view",
      "type": "function"
    },
    {
      "inputs": [
        {
          "internalType": "uint256",
          "name": "",
          "type": "uint256"
        }
      ],
      "name": "LEVEL_REF_VOLUME_REQ",
      "outputs": [
        {
          "internalType": "uint256",
          "name": "",
          "type": "uint256"
        }
      ],
      "stateMutability": "view",
      "type": "function"
    },
    {
      "inputs": [
        {
          "internalType": "uint256",
          "name": "",
          "type": "uint256"
        }
      ],
      "name": "LEVEL_SELF_VOLUME_REQ",
      "outputs": [
        {
          "internalType": "uint256",
          "name": "",
          "type": "uint256"
        }
      ],
      "stateMutability": "view",
      "type": "function"
    },
    {
      "inputs": [],
      "name": "MAINTAINER_ROLE",
      "outputs": [
        {
          "internalType": "bytes32",
          "name": "",
          "type": "bytes32"
        }
      ],
      "stateMutability": "view",
      "type": "function"
    },
    {
      "inputs": [
        {
          "internalType": "address",
          "name": "",
          "type": "address"
        }
      ],
      "name": "REFERRER",
      "outputs": [
        {
          "internalType": "address",
          "name": "",
          "type": "address"
        }
      ],
      "stateMutability": "view",
      "type": "function"
    },
    {
      "inputs": [
        {
          "internalType": "address",
          "name": "",
          "type": "address"
        }
      ],
      "name": "REF_BOOST_LEVEL",
      "outputs": [
        {
          "internalType": "uint8",
          "name": "",
          "type": "uint8"
        }
      ],
      "stateMutability": "view",
      "type": "function"
    },
    {
      "inputs": [
        {
          "internalType": "string",
          "name": "",
          "type": "string"
        }
      ],
      "name": "REF_CODE",
      "outputs": [
        {
          "internalType": "address",
          "name": "",
          "type": "address"
        }
      ],
      "stateMutability": "view",
      "type": "function"
    },
    {
      "inputs": [
        {
          "internalType": "address",
          "name": "",
          "type": "address"
        }
      ],
      "name": "REF_CODE_INV",
      "outputs": [
        {
          "internalType": "string",
          "name": "",
          "type": "string"
        }
      ],
      "stateMutability": "view",
      "type": "function"
    },
    {
      "inputs": [
        {
          "internalType": "address",
          "name": "",
          "type": "address"
        }
      ],
      "name": "REF_COUNT",
      "outputs": [
        {
          "internalType": "uint256",
          "name": "",
          "type": "uint256"
        }
      ],
      "stateMutability": "view",
      "type": "function"
    },
    {
      "inputs": [],
      "name": "SUMMIT_POINTS",
      "outputs": [
        {
          "internalType": "address",
          "name": "",
          "type": "address"
        }
      ],
      "stateMutability": "view",
      "type": "function"
    },
    {
      "inputs": [
        {
          "internalType": "address",
          "name": "addedMaintainer",
          "type": "address"
        }
      ],
      "name": "addMaintainer",
      "outputs": [],
      "stateMutability": "nonpayable",
      "type": "function"
    },
    {
      "inputs": [
        {
          "internalType": "address",
          "name": "_referrer",
          "type": "address"
        },
        {
          "internalType": "uint8",
          "name": "_boostLevel",
          "type": "uint8"
        }
      ],
      "name": "boostReferrer",
      "outputs": [],
      "stateMutability": "nonpayable",
      "type": "function"
    },
    {
      "inputs": [
        {
          "internalType": "address[]",
          "name": "_referrers",
          "type": "address[]"
        },
        {
          "internalType": "uint8[]",
          "name": "_levels",
          "type": "uint8[]"
        }
      ],
      "name": "boostReferrers",
      "outputs": [],
      "stateMutability": "nonpayable",
      "type": "function"
    },
    {
      "inputs": [
        {
          "internalType": "uint8",
          "name": "_level",
          "type": "uint8"
        }
      ],
      "name": "getLevelRequirements",
      "outputs": [
        {
          "internalType": "uint256",
          "name": "selfVolume",
          "type": "uint256"
        },
        {
          "internalType": "uint256",
          "name": "refVolume",
          "type": "uint256"
        },
        {
          "internalType": "uint256",
          "name": "refsCount",
          "type": "uint256"
        }
      ],
      "stateMutability": "view",
      "type": "function"
    },
    {
      "inputs": [
        {
          "internalType": "address",
          "name": "_add",
          "type": "address"
        }
      ],
      "name": "getRefVolumeBonusMultiplier",
      "outputs": [
        {
          "internalType": "uint256",
          "name": "",
          "type": "uint256"
        }
      ],
      "stateMutability": "view",
      "type": "function"
    },
    {
      "inputs": [
        {
          "internalType": "address",
          "name": "_add",
          "type": "address"
        }
      ],
      "name": "getReferrer",
      "outputs": [
        {
          "internalType": "address",
          "name": "",
          "type": "address"
        }
      ],
      "stateMutability": "view",
      "type": "function"
    },
    {
      "inputs": [
        {
          "internalType": "address",
          "name": "_add",
          "type": "address"
        }
      ],
      "name": "getReferrerCode",
      "outputs": [
        {
          "internalType": "string",
          "name": "",
          "type": "string"
        }
      ],
      "stateMutability": "view",
      "type": "function"
    },
    {
      "inputs": [
        {
          "internalType": "address",
          "name": "_add",
          "type": "address"
        }
      ],
      "name": "getReferrerLevel",
      "outputs": [
        {
          "internalType": "uint8",
          "name": "",
          "type": "uint8"
        }
      ],
      "stateMutability": "view",
      "type": "function"
    },
    {
      "inputs": [
        {
          "internalType": "address",
          "name": "_add",
          "type": "address"
        }
      ],
      "name": "getReferrerLevelWithoutBoost",
      "outputs": [
        {
          "internalType": "uint8",
          "name": "",
          "type": "uint8"
        }
      ],
      "stateMutability": "view",
      "type": "function"
    },
    {
      "inputs": [
        {
          "internalType": "address",
          "name": "_add",
          "type": "address"
        }
      ],
      "name": "getRefsCount",
      "outputs": [
        {
          "internalType": "uint256",
          "name": "",
          "type": "uint256"
        }
      ],
      "stateMutability": "view",
      "type": "function"
    },
    {
      "inputs": [
        {
          "internalType": "bytes32",
          "name": "role",
          "type": "bytes32"
        }
      ],
      "name": "getRoleAdmin",
      "outputs": [
        {
          "internalType": "bytes32",
          "name": "",
          "type": "bytes32"
        }
      ],
      "stateMutability": "view",
      "type": "function"
    },
    {
      "inputs": [
        {
          "internalType": "address",
          "name": "_add",
          "type": "address"
        }
      ],
      "name": "getSelfVolumeMultiplier",
      "outputs": [
        {
          "internalType": "uint256",
          "name": "",
          "type": "uint256"
        }
      ],
      "stateMutability": "view",
      "type": "function"
    },
    {
      "inputs": [
        {
          "internalType": "address",
          "name": "_add",
          "type": "address"
        }
      ],
      "name": "getUserNextLevelRequirements",
      "outputs": [
        {
          "internalType": "uint256",
          "name": "selfVolume",
          "type": "uint256"
        },
        {
          "internalType": "uint256",
          "name": "refVolume",
          "type": "uint256"
        },
        {
          "internalType": "uint256",
          "name": "refsCount",
          "type": "uint256"
        }
      ],
      "stateMutability": "view",
      "type": "function"
    },
    {
      "inputs": [],
      "name": "governor",
      "outputs": [
        {
          "internalType": "address",
          "name": "",
          "type": "address"
        }
      ],
      "stateMutability": "view",
      "type": "function"
    },
    {
      "inputs": [
        {
          "internalType": "bytes32",
          "name": "role",
          "type": "bytes32"
        },
        {
          "internalType": "address",
          "name": "account",
          "type": "address"
        }
      ],
      "name": "grantRole",
      "outputs": [],
      "stateMutability": "nonpayable",
      "type": "function"
    },
    {
      "inputs": [
        {
          "internalType": "bytes32",
          "name": "role",
          "type": "bytes32"
        },
        {
          "internalType": "address",
          "name": "account",
          "type": "address"
        }
      ],
      "name": "hasRole",
      "outputs": [
        {
          "internalType": "bool",
          "name": "",
          "type": "bool"
        }
      ],
      "stateMutability": "view",
      "type": "function"
    },
    {
      "inputs": [
        {
          "internalType": "address",
          "name": "_governor",
          "type": "address"
        }
      ],
      "name": "initialize",
      "outputs": [],
      "stateMutability": "nonpayable",
      "type": "function"
    },
    {
      "inputs": [],
      "name": "initialized",
      "outputs": [
        {
          "internalType": "bool",
          "name": "",
          "type": "bool"
        }
      ],
      "stateMutability": "view",
      "type": "function"
    },
    {
      "inputs": [],
      "name": "levelCount",
      "outputs": [
        {
          "internalType": "uint256",
          "name": "",
          "type": "uint256"
        }
      ],
      "stateMutability": "view",
      "type": "function"
    },
    {
      "inputs": [
        {
          "internalType": "address",
          "name": "_add",
          "type": "address"
        },
        {
          "internalType": "string",
          "name": "_code",
          "type": "string"
        }
      ],
      "name": "maintainerSetReferralCode",
      "outputs": [],
      "stateMutability": "nonpayable",
      "type": "function"
    },
    {
      "inputs": [
        {
          "internalType": "address",
          "name": "removedMaintainer",
          "type": "address"
        }
      ],
      "name": "removeMaintainer",
      "outputs": [],
      "stateMutability": "nonpayable",
      "type": "function"
    },
    {
      "inputs": [
        {
          "internalType": "bytes32",
          "name": "role",
          "type": "bytes32"
        },
        {
          "internalType": "address",
          "name": "account",
          "type": "address"
        }
      ],
      "name": "renounceRole",
      "outputs": [],
      "stateMutability": "nonpayable",
      "type": "function"
    },
    {
      "inputs": [
        {
          "internalType": "bytes32",
          "name": "role",
          "type": "bytes32"
        }
      ],
      "name": "renounceRole",
      "outputs": [],
      "stateMutability": "nonpayable",
      "type": "function"
    },
    {
      "inputs": [
        {
          "internalType": "bytes32",
          "name": "role",
          "type": "bytes32"
        },
        {
          "internalType": "address",
          "name": "account",
          "type": "address"
        }
      ],
      "name": "revokeRole",
      "outputs": [],
      "stateMutability": "nonpayable",
      "type": "function"
    },
    {
      "inputs": [
        {
          "internalType": "uint256[]",
          "name": "_refVolumeReq",
          "type": "uint256[]"
        },
        {
          "internalType": "uint256[]",
          "name": "_selfVolumeReq",
          "type": "uint256[]"
        },
        {
          "internalType": "uint256[]",
          "name": "_refsReq",
          "type": "uint256[]"
        },
        {
          "internalType": "uint256[]",
          "name": "_multReward",
          "type": "uint256[]"
        },
        {
          "internalType": "uint256",
          "name": "_hasReferrerBonusMult",
          "type": "uint256"
        }
      ],
      "name": "setLevelData",
      "outputs": [],
      "stateMutability": "nonpayable",
      "type": "function"
    },
    {
      "inputs": [
        {
          "internalType": "address",
          "name": "_pointsContract",
          "type": "address"
        }
      ],
      "name": "setPointsContract",
      "outputs": [],
      "stateMutability": "nonpayable",
      "type": "function"
    },
    {
      "inputs": [
        {
          "internalType": "string",
          "name": "_code",
          "type": "string"
        }
      ],
      "name": "setReferralCode",
      "outputs": [],
      "stateMutability": "nonpayable",
      "type": "function"
    },
    {
      "inputs": [
        {
          "internalType": "address",
          "name": "_referrer",
          "type": "address"
        },
        {
          "internalType": "string",
          "name": "_code",
          "type": "string"
        }
      ],
      "name": "setReferrer",
      "outputs": [],
      "stateMutability": "nonpayable",
      "type": "function"
    },
    {
      "inputs": [
        {
          "internalType": "bytes4",
          "name": "interfaceId",
          "type": "bytes4"
        }
      ],
      "name": "supportsInterface",
      "outputs": [
        {
          "internalType": "bool",
          "name": "",
          "type": "bool"
        }
      ],
      "stateMutability": "view",
      "type": "function"
    },
    {
      "inputs": [
        {
          "internalType": "address",
          "name": "newOwner",
          "type": "address"
        }
      ],
      "name": "transferOwnership",
      "outputs": [],
      "stateMutability": "nonpayable",
      "type": "function"
    }
  ],
  "bytecode": "0x6080604052600660025560c8600755600d805460ff191690553480156200002557600080fd5b5062000033600033620002ad565b6200005f7f339759585899103d2ace64958e37e18ccb0504652c81d4a1b8aa80fe2126ab9533620002ad565b60006040518060c00160405280600081526020016000815260200169021e19e0c9bab2400000815260200169054b40b1f852bda00000815260200169152d02c7e14af6800000815260200169d3c21bcecceda1000000815250905060006040518060c001604052806000815260200168056bc75e2d631000008152602001683635c9adc5dea000008152602001686c6b935b8bbd400000815260200169010f0cf064dd59200000815260200169054b40b1f852bda00000815250905060006040518060c0016040528060008152602001600081526020016003815260200160058152602001600a81526020016019815250905060006040518060c001604052806000815260200160c8815260200161019081526020016101f481526020016102bc81526020016105dc815250905060005b600254811015620002a257848160068110620001bc57634e487b7160e01b600052603260045260246000fd5b60200201516003600083815260200190815260200160002081905550838160068110620001f957634e487b7160e01b600052603260045260246000fd5b602002015160046000838152602001908152602001600020819055508281600681106200023657634e487b7160e01b600052603260045260246000fd5b602002015160056000838152602001908152602001600020819055508181600681106200027357634e487b7160e01b600052603260045260246000fd5b60209081029190910151600083815260069092526040909120558062000299816200035d565b91505062000190565b505050505062000385565b620002b98282620002bd565b5050565b6000828152602081815260408083206001600160a01b038516845290915290205460ff16620002b9576000828152602081815260408083206001600160a01b03851684529091529020805460ff19166001179055620003193390565b6001600160a01b0316816001600160a01b0316837f2f8788117e7eff1d82e926ec794901d17c78024a50270940304540a733656f0d60405160405180910390a45050565b60006000198214156200037e57634e487b7160e01b81526011600452602481fd5b5060010190565b612a4f80620003956000396000f3fe608060405234801561001057600080fd5b50600436106102e95760003560e01c806391d1485411610191578063c4d66de8116100e3578063e0f442d511610097578063fa98b69d11610071578063fa98b69d1461072f578063fb4e6c2d1461074f578063fd0dfb851461076257600080fd5b8063e0f442d5146106e2578063f2fde38b146106f5578063f87422541461070857600080fd5b8063d547741f116100c8578063d547741f146106a9578063d8baf7cf146106bc578063de2ad91a146106cf57600080fd5b8063c4d66de81461066d578063ce0b66391461068057600080fd5b8063a4b0df2511610145578063b8ef9fb31161011f578063b8ef9fb314610611578063ba32aa151461063a578063bc826e641461064d57600080fd5b8063a4b0df25146105cb578063a8654bcb146105de578063affb41a0146105f157600080fd5b8063982b6d4511610176578063982b6d451461056e5780639e8d7cd4146105a3578063a217fddf146105c357600080fd5b806391d148541461052457806395754abb1461055b57600080fd5b80634c10fb251161024a578063651a2b4c116101fe5780637c4e94b5116101d85780637c4e94b5146104de57806386ec3e3d146104fe5780638bb9c5bf1461051157600080fd5b8063651a2b4c146104af5780636b453c1f146104b857806373930f04146104cb57600080fd5b806359ee3c5b1161022f57806359ee3c5b146104485780635a3553c9146104685780635cefd2c61461049c57600080fd5b80634c10fb2514610407578063570f61eb1461041a57600080fd5b8063248a9ca3116102a157806336568abe1161028657806336568abe146103b55780633fe9bba8146103c85780634a9fefc7146103db57600080fd5b8063248a9ca31461037d5780632f2ff15d146103a057600080fd5b8063080472d2116102d2578063080472d21461032d5780630c340a2414610358578063158ef93e1461037057600080fd5b806301e6896b146102ee57806301ffc9a71461030a575b600080fd5b6102f760075481565b6040519081526020015b60405180910390f35b61031d610318366004612528565b610775565b6040519015158152602001610301565b600154610340906001600160a01b031681565b6040516001600160a01b039091168152602001610301565b600d546103409061010090046001600160a01b031681565b600d5461031d9060ff1681565b6102f761038b3660046124ee565b60009081526020819052604090206001015490565b6103b36103ae366004612506565b61080e565b005b6103b36103c3366004612506565b610838565b6103b36103d636600461243e565b6108c9565b6103406103e93660046122ef565b6001600160a01b039081166000908152600860205260409020541690565b6103b3610415366004612355565b610b1a565b61042d6104283660046125d0565b610c09565b60408051938452602084019290925290820152606001610301565b61045b6104563660046122ef565b610c7b565b6040516103019190612835565b610340610476366004612568565b8051602081830181018051600b825292820191909301209152546001600160a01b031681565b6103b36104aa366004612387565b610d15565b6102f760025481565b6103b36104c63660046122ef565b610f43565b6102f76104d93660046122ef565b610f70565b6102f76104ec3660046124ee565b60036020526000908152604090205481565b6103b361050c366004612568565b610fa8565b6103b361051f3660046124ee565b6111a6565b61031d610532366004612506565b6000918252602082815260408084206001600160a01b0393909316845291905290205460ff1690565b6103b36105693660046122ef565b6111b0565b61059161057c3660046122ef565b600a6020526000908152604090205460ff1681565b60405160ff9091168152602001610301565b6102f76105b13660046124ee565b60046020526000908152604090205481565b6102f7600081565b61042d6105d93660046122ef565b611295565b6102f76105ec3660046122ef565b6112fb565b6102f76105ff3660046124ee565b60056020526000908152604090205481565b61034061061f3660046122ef565b6008602052600090815260409020546001600160a01b031681565b6103b3610648366004612309565b611323565b6102f761065b3660046122ef565b60096020526000908152604090205481565b6103b361067b3660046122ef565b6114f0565b6102f761068e3660046122ef565b6001600160a01b031660009081526009602052604090205490565b6103b36106b7366004612506565b6116fe565b6103b36106ca3660046122ef565b611723565b6105916106dd3660046122ef565b61174d565b61045b6106f03660046122ef565b6117d7565b6103b36107033660046122ef565b611892565b6102f77f339759585899103d2ace64958e37e18ccb0504652c81d4a1b8aa80fe2126ab9581565b6102f761073d3660046124ee565b60066020526000908152604090205481565b61059161075d3660046122ef565b6118a8565b6103b3610770366004612309565b611a39565b60007fffffffff0000000000000000000000000000000000000000000000000000000082167f7965db0b00000000000000000000000000000000000000000000000000000000148061080857507f01ffc9a7000000000000000000000000000000000000000000000000000000007fffffffff000000000000000000000000000000000000000000000000000000008316145b92915050565b60008281526020819052604090206001015461082981611d11565b6108338383611d1b565b505050565b6001600160a01b03811633146108bb5760405162461bcd60e51b815260206004820152602f60248201527f416363657373436f6e74726f6c3a2063616e206f6e6c792072656e6f756e636560448201527f20726f6c657320666f722073656c66000000000000000000000000000000000060648201526084015b60405180910390fd5b6108c58282611db9565b5050565b3360009081527fa54247010af6b3693b80aceddfad12e077c5de3571e6243fada502635f0d7d39602052604090205460ff166109585760405162461bcd60e51b815260206004820152602860248201527f4d61696e7461696e61626c653a2043616c6c6572206973206e6f742061206d6160448201526734b73a30b4b732b960c11b60648201526084016108b2565b8351855114158061096b57508251855114155b8061097857508151855114155b156109af576040517fff633a3800000000000000000000000000000000000000000000000000000000815260040160405180910390fd5b845160005b81811015610ac7578681815181106109dc57634e487b7160e01b600052603260045260246000fd5b60200260200101516003600083815260200190815260200160002081905550858181518110610a1b57634e487b7160e01b600052603260045260246000fd5b60200260200101516004600083815260200190815260200160002081905550848181518110610a5a57634e487b7160e01b600052603260045260246000fd5b60200260200101516005600083815260200190815260200160002081905550838181518110610a9957634e487b7160e01b600052603260045260246000fd5b6020908102919091018101516000838152600690925260409091205580610abf816129b2565b9150506109b4565b50600281905560078290556040517f562c204f2c2ef9fa88aa881cd4d49bc65849451a4bdb97fad62dc3a5eae6041390610b0a90889088908890889088906127d5565b60405180910390a1505050505050565b3360009081527fa54247010af6b3693b80aceddfad12e077c5de3571e6243fada502635f0d7d39602052604090205460ff16610ba95760405162461bcd60e51b815260206004820152602860248201527f4d61696e7461696e61626c653a2043616c6c6572206973206e6f742061206d6160448201526734b73a30b4b732b960c11b60648201526084016108b2565b6001600160a01b0382166000818152600a6020908152604091829020805460ff191660ff861690811790915591519182527fc4f4125174e3f54bd4ffb0f92384ddca0b2dc931f194e9f5efb1a1b88443fb32910160405180910390a25050565b60008060006002548460ff1610610c4c576040517fd1459f7900000000000000000000000000000000000000000000000000000000815260040160405180910390fd5b50505060ff16600090815260046020908152604080832054600383528184205460059093529220549192909190565b600c6020526000908152604090208054610c9490612977565b80601f0160208091040260200160405190810160405280929190818152602001828054610cc090612977565b8015610d0d5780601f10610ce257610100808354040283529160200191610d0d565b820191906000526020600020905b815481529060010190602001808311610cf057829003601f168201915b505050505081565b3360009081527fa54247010af6b3693b80aceddfad12e077c5de3571e6243fada502635f0d7d39602052604090205460ff16610da45760405162461bcd60e51b815260206004820152602860248201527f4d61696e7461696e61626c653a2043616c6c6572206973206e6f742061206d6160448201526734b73a30b4b732b960c11b60648201526084016108b2565b8051825114610ddf576040517fff633a3800000000000000000000000000000000000000000000000000000000815260040160405180910390fd5b60005b8251811015610f0557818181518110610e0b57634e487b7160e01b600052603260045260246000fd5b602002602001015160ff16600a6000858481518110610e3a57634e487b7160e01b600052603260045260246000fd5b6020908102919091018101516001600160a01b031682528101919091526040016000205460ff1614610ef357818181518110610e8657634e487b7160e01b600052603260045260246000fd5b6020026020010151600a6000858481518110610eb257634e487b7160e01b600052603260045260246000fd5b60200260200101516001600160a01b03166001600160a01b0316815260200190815260200160002060006101000a81548160ff021916908360ff1602179055505b80610efd816129b2565b915050610de2565b507fa8ebc437633f921c0b85258fb33b74715331194b7fdc1627091b38ce0ea7afd48282604051610f3792919061275c565b60405180910390a15050565b610f6d7f339759585899103d2ace64958e37e18ccb0504652c81d4a1b8aa80fe2126ab958261080e565b50565b6001600160a01b03818116600090815260086020526040812054909116610f98576000610f9c565b6007545b610808906127106128bd565b600381511080610fb95750600f8151115b15610ff0576040517f6606a46200000000000000000000000000000000000000000000000000000000815260040160405180910390fd5b336000908152600c60205260409020805461100a90612977565b159050611043576040517fad51e20300000000000000000000000000000000000000000000000000000000815260040160405180910390fd5b61104c3361174d565b60ff1661106c576040516338b729c360e11b815260040160405180910390fd5b60006001600160a01b0316600b826040516110879190612624565b908152604051908190036020019020546001600160a01b0316146110be5760405163096a1aab60e21b815260040160405180910390fd5b336000908152600c60205260408082209051600b916110dc91612640565b908152604080516020928190038301902080546001600160a01b0319166001600160a01b039490941693909317909255336000908152600c8252919091208251611128928401906120eb565b5033600b8260405161113a9190612624565b90815260405190819003602001812080546001600160a01b03939093166001600160a01b031990931692909217909155339081907f627a1b03408ad803620768c059b68f695d3740108ac22fd6cdab3c887b162cbe9061119b908590612835565b60405180910390a350565b610f6d8133610838565b3360009081527fa54247010af6b3693b80aceddfad12e077c5de3571e6243fada502635f0d7d39602052604090205460ff1661123f5760405162461bcd60e51b815260206004820152602860248201527f4d61696e7461696e61626c653a2043616c6c6572206973206e6f742061206d6160448201526734b73a30b4b732b960c11b60648201526084016108b2565b6040516001600160a01b038216907fc44f7b4fe9d29c078d207864fd556e8b68e1759e3ac4ee9cece99d2ec03c27c690600090a2600180546001600160a01b0319166001600160a01b0392909216919091179055565b6000806000806112a4856118a8565b6112af9060016128d5565b9050600060016002546112c29190612919565b8260ff1610156112d257816112e1565b60016002546112e19190612919565b90506112ec81610c09565b94509450945050509193909250565b60006006600061130a8461174d565b60ff168152602001908152602001600020549050919050565b3360009081527fa54247010af6b3693b80aceddfad12e077c5de3571e6243fada502635f0d7d39602052604090205460ff166113b25760405162461bcd60e51b815260206004820152602860248201527f4d61696e7461696e61626c653a2043616c6c6572206973206e6f742061206d6160448201526734b73a30b4b732b960c11b60648201526084016108b2565b60006001600160a01b0316600b826040516113cd9190612624565b908152604051908190036020019020546001600160a01b0316146114045760405163096a1aab60e21b815260040160405180910390fd5b6001600160a01b0382166000908152600c60205260408082209051600b9161142b91612640565b908152604080516020928190038301902080546001600160a01b0319166001600160a01b039485161790559184166000908152600c8252919091208251611474928401906120eb565b5081600b826040516114869190612624565b90815260405190819003602001812080546001600160a01b039384166001600160a01b03199091161790559083169033907f627a1b03408ad803620768c059b68f695d3740108ac22fd6cdab3c887b162cbe906114e4908590612835565b60405180910390a35050565b3360009081527fa54247010af6b3693b80aceddfad12e077c5de3571e6243fada502635f0d7d39602052604090205460ff1661157f5760405162461bcd60e51b815260206004820152602860248201527f4d61696e7461696e61626c653a2043616c6c6572206973206e6f742061206d6160448201526734b73a30b4b732b960c11b60648201526084016108b2565b600d5460ff16156115bc576040517f0dc149f000000000000000000000000000000000000000000000000000000000815260040160405180910390fd5b600d805460ff19166001179055604080517f4e606c470000000000000000000000000000000000000000000000000000000081529051734300000000000000000000000000000000000002918291634e606c479160048082019260009290919082900301818387803b15801561163157600080fd5b505af1158015611645573d6000803e3d6000fd5b50506040517feb8646980000000000000000000000000000000000000000000000000000000081526001600160a01b0385811660048301528416925063eb8646989150602401600060405180830381600087803b1580156116a557600080fd5b505af11580156116b9573d6000803e3d6000fd5b5050600d80546001600160a01b03909516610100027fffffffffffffffffffffff0000000000000000000000000000000000000000ff90951694909417909355505050565b60008281526020819052604090206001015461171981611d11565b6108338383611db9565b610f6d7f339759585899103d2ace64958e37e18ccb0504652c81d4a1b8aa80fe2126ab95826116fe565b6001600160a01b0381166000908152600a602052604081205460ff16156117ce57600160025461177d9190612919565b6001600160a01b0383166000908152600a602052604090205460ff16116117bf576001600160a01b0382166000908152600a602052604090205460ff16610808565b60016002546108089190612919565b610808826118a8565b6001600160a01b038082166000908152600860209081526040808320549093168252600c90522080546060919061180d90612977565b80601f016020809104026020016040519081016040528092919081815260200182805461183990612977565b80156118865780601f1061185b57610100808354040283529160200191611886565b820191906000526020600020905b81548152906001019060200180831161186957829003601f168201915b50505050509050919050565b61189d60008261080e565b610f6d600033610838565b6001546000906001600160a01b03166118c357506000919050565b6001546040517f8ba17f860000000000000000000000000000000000000000000000000000000081526001600160a01b0384811660048301526000928392911690638ba17f869060240160606040518083038186803b15801561192557600080fd5b505afa158015611939573d6000803e3d6000fd5b505050506040513d601f19601f8201168201806040525081019061195d91906125a3565b509150915060005b6002548160ff161015611a2d57600460006119818360016128d5565b60ff168152602001908152602001600020548310156119a257949350505050565b600360006119b18360016128d5565b60ff168152602001908152602001600020548210156119d257949350505050565b600560006119e18360016128d5565b60ff16815260208082019290925260409081016000908120546001600160a01b0389168252600990935220541015611a1b57949350505050565b80611a25816129cd565b915050611965565b50506002549392505050565b60006001600160a01b03831615611a505782611a7a565b600b82604051611a609190612624565b908152604051908190036020019020546001600160a01b03165b90506001600160a01b038116611abc576040517fcd2d66aa00000000000000000000000000000000000000000000000000000000815260040160405180910390fd5b6001600160a01b038116331415611aff576040517f55e8f70e00000000000000000000000000000000000000000000000000000000815260040160405180910390fd5b336000908152600860205260409020546001600160a01b0382811691161415611b54576040517ffe1ffa9500000000000000000000000000000000000000000000000000000000815260040160405180910390fd5b6001600160a01b0381811660009081526008602052604090205416331415611b8f5760405163b6ea0b0160e01b815260040160405180910390fd5b6001600160a01b03818116600090815260086020526040808220548316825290205416331415611bd25760405163b6ea0b0160e01b815260040160405180910390fd5b611bdb8161174d565b60ff16611bfb576040516338b729c360e11b815260040160405180910390fd5b336000908152600860205260409020546001600160a01b031615801590611c485750336000908152600860209081526040808320546001600160a01b031683526009909152902054600111155b15611c8957336000908152600860209081526040808320546001600160a01b0316835260099091528120805460019290611c83908490612919565b90915550505b33600090815260086020908152604080832080546001600160a01b0319166001600160a01b038616908117909155835260099091528120805460019290611cd19084906128bd565b90915550506040516001600160a01b0382169033907f82ca166ebb8d22637409e8fcca994e7e1b757a1e28f0ee91f4defe3cff1e919390600090a3505050565b610f6d8133611e38565b6000828152602081815260408083206001600160a01b038516845290915290205460ff166108c5576000828152602081815260408083206001600160a01b03851684529091529020805460ff19166001179055611d753390565b6001600160a01b0316816001600160a01b0316837f2f8788117e7eff1d82e926ec794901d17c78024a50270940304540a733656f0d60405160405180910390a45050565b6000828152602081815260408083206001600160a01b038516845290915290205460ff16156108c5576000828152602081815260408083206001600160a01b0385168085529252808320805460ff1916905551339285917ff6391f5c32d9c69d2a47ea670b442974b53935d1edc7fd64eb21e047a839171b9190a45050565b6000828152602081815260408083206001600160a01b038516845290915290205460ff166108c557611e6981611eab565b611e74836020611ebd565b604051602001611e859291906126db565b60408051601f198184030181529082905262461bcd60e51b82526108b291600401612835565b60606108086001600160a01b03831660145b60606000611ecc8360026128fa565b611ed79060026128bd565b67ffffffffffffffff811115611efd57634e487b7160e01b600052604160045260246000fd5b6040519080825280601f01601f191660200182016040528015611f27576020820181803683370190505b5090507f300000000000000000000000000000000000000000000000000000000000000081600081518110611f6c57634e487b7160e01b600052603260045260246000fd5b60200101906001600160f81b031916908160001a9053507f780000000000000000000000000000000000000000000000000000000000000081600181518110611fc557634e487b7160e01b600052603260045260246000fd5b60200101906001600160f81b031916908160001a9053506000611fe98460026128fa565b611ff49060016128bd565b90505b6001811115612095577f303132333435363738396162636465660000000000000000000000000000000085600f166010811061204357634e487b7160e01b600052603260045260246000fd5b1a60f81b82828151811061206757634e487b7160e01b600052603260045260246000fd5b60200101906001600160f81b031916908160001a90535060049490941c9361208e81612960565b9050611ff7565b5083156120e45760405162461bcd60e51b815260206004820181905260248201527f537472696e67733a20686578206c656e67746820696e73756666696369656e7460448201526064016108b2565b9392505050565b8280546120f790612977565b90600052602060002090601f016020900481019282612119576000855561215f565b82601f1061213257805160ff191683800117855561215f565b8280016001018555821561215f579182015b8281111561215f578251825591602001919060010190612144565b5061216b92915061216f565b5090565b5b8082111561216b5760008155600101612170565b80356001600160a01b038116811461219b57600080fd5b919050565b600082601f8301126121b0578081fd5b813560206121c56121c083612899565b612868565b80838252828201915082860187848660051b89010111156121e4578586fd5b855b85811015612202578135845292840192908401906001016121e6565b5090979650505050505050565b600082601f83011261221f578081fd5b8135602061222f6121c083612899565b80838252828201915082860187848660051b890101111561224e578586fd5b855b8581101561220257612261826122de565b84529284019290840190600101612250565b600082601f830112612283578081fd5b813567ffffffffffffffff81111561229d5761229d612a03565b6122b0601f8201601f1916602001612868565b8181528460208386010111156122c4578283fd5b816020850160208301379081016020019190915292915050565b803560ff8116811461219b57600080fd5b600060208284031215612300578081fd5b6120e482612184565b6000806040838503121561231b578081fd5b61232483612184565b9150602083013567ffffffffffffffff81111561233f578182fd5b61234b85828601612273565b9150509250929050565b60008060408385031215612367578182fd5b61237083612184565b915061237e602084016122de565b90509250929050565b60008060408385031215612399578182fd5b823567ffffffffffffffff808211156123b0578384fd5b818501915085601f8301126123c3578384fd5b813560206123d36121c083612899565b8083825282820191508286018a848660051b89010111156123f2578889fd5b8896505b8487101561241b5761240781612184565b8352600196909601959183019183016123f6565b5096505086013592505080821115612431578283fd5b5061234b8582860161220f565b600080600080600060a08688031215612455578081fd5b853567ffffffffffffffff8082111561246c578283fd5b61247889838a016121a0565b9650602088013591508082111561248d578283fd5b61249989838a016121a0565b955060408801359150808211156124ae578283fd5b6124ba89838a016121a0565b945060608801359150808211156124cf578283fd5b506124dc888289016121a0565b95989497509295608001359392505050565b6000602082840312156124ff578081fd5b5035919050565b60008060408385031215612518578182fd5b8235915061237e60208401612184565b600060208284031215612539578081fd5b81357fffffffff00000000000000000000000000000000000000000000000000000000811681146120e4578182fd5b600060208284031215612579578081fd5b813567ffffffffffffffff81111561258f578182fd5b61259b84828501612273565b949350505050565b6000806000606084860312156125b7578081fd5b8351925060208401519150604084015190509250925092565b6000602082840312156125e1578081fd5b6120e4826122de565b6000815180845260208085019450808401835b83811015612619578151875295820195908201906001016125fd565b509495945050505050565b60008251612636818460208701612930565b9190910192915050565b600080835482600182811c91508083168061265c57607f831692505b602080841082141561267c57634e487b7160e01b87526022600452602487fd5b81801561269057600181146126a1576126cd565b60ff198616895284890196506126cd565b60008a815260209020885b868110156126c55781548b8201529085019083016126ac565b505084890196505b509498975050505050505050565b7f416363657373436f6e74726f6c3a206163636f756e7420000000000000000000815260008351612713816017850160208801612930565b7f206973206d697373696e6720726f6c65200000000000000000000000000000006017918401918201528351612750816028840160208801612930565b01602801949350505050565b604080825283519082018190526000906020906060840190828701845b8281101561279e5781516001600160a01b031684529284019290840190600101612779565b50505083810382850152845180825285830191830190845b8181101561220257835160ff16835292840192918401916001016127b6565b60a0815260006127e860a08301886125ea565b82810360208401526127fa81886125ea565b9050828103604084015261280e81876125ea565b9050828103606084015261282281866125ea565b9150508260808301529695505050505050565b6020815260008251806020840152612854816040850160208701612930565b601f01601f19169190910160400192915050565b604051601f8201601f1916810167ffffffffffffffff8111828210171561289157612891612a03565b604052919050565b600067ffffffffffffffff8211156128b3576128b3612a03565b5060051b60200190565b600082198211156128d0576128d06129ed565b500190565b600060ff821660ff84168060ff038211156128f2576128f26129ed565b019392505050565b6000816000190483118215151615612914576129146129ed565b500290565b60008282101561292b5761292b6129ed565b500390565b60005b8381101561294b578181015183820152602001612933565b8381111561295a576000848401525b50505050565b60008161296f5761296f6129ed565b506000190190565b600181811c9082168061298b57607f821691505b602082108114156129ac57634e487b7160e01b600052602260045260246000fd5b50919050565b60006000198214156129c6576129c66129ed565b5060010190565b600060ff821660ff8114156129e4576129e46129ed565b60010192915050565b634e487b7160e01b600052601160045260246000fd5b634e487b7160e01b600052604160045260246000fdfea264697066735822122081cb55390721778e5ebde06ffdba4100e63be4df1d04c411eb635601e1b13d2164736f6c63430008040033",
  "linkReferences": {},
  "deployedLinkReferences": {}
}